{
  "_format": "hh-sol-artifact-1",
  "contractName": "AssetFactory",
  "sourceName": "contracts/AssetFactory.sol",
  "abi": [
    {
      "inputs": [
        {
          "internalType": "address",
          "name": "_trustToken",
          "type": "address"
        },
        {
          "internalType": "address",
          "name": "_feeRecipient",
          "type": "address"
        },
        {
          "internalType": "address",
          "name": "_verificationRegistry",
          "type": "address"
        }
      ],
      "stateMutability": "nonpayable",
      "type": "constructor"
    },
    {
      "inputs": [],
      "name": "AccessControlBadConfirmation",
      "type": "error"
    },
    {
      "inputs": [
        {
          "internalType": "address",
          "name": "account",
          "type": "address"
        },
        {
          "internalType": "bytes32",
          "name": "neededRole",
          "type": "bytes32"
        }
      ],
      "name": "AccessControlUnauthorizedAccount",
      "type": "error"
    },
    {
      "inputs": [],
      "name": "EnforcedPause",
      "type": "error"
    },
    {
      "inputs": [],
      "name": "ExpectedPause",
      "type": "error"
    },
    {
      "inputs": [],
      "name": "ReentrancyGuardReentrantCall",
      "type": "error"
    },
    {
      "anonymous": false,
      "inputs": [
        {
          "indexed": true,
          "internalType": "bytes32",
          "name": "assetId",
          "type": "bytes32"
        },
        {
          "indexed": false,
          "internalType": "uint256",
          "name": "finalValue",
          "type": "uint256"
        }
      ],
      "name": "AssetMatured",
      "type": "event"
    },
    {
      "anonymous": false,
      "inputs": [
        {
          "indexed": true,
          "internalType": "bytes32",
          "name": "assetId",
          "type": "bytes32"
        },
        {
          "indexed": true,
          "internalType": "address",
          "name": "owner",
          "type": "address"
        },
        {
          "indexed": false,
          "internalType": "string",
          "name": "assetType",
          "type": "string"
        },
        {
          "indexed": false,
          "internalType": "uint256",
          "name": "totalValue",
          "type": "uint256"
        },
        {
          "indexed": false,
          "internalType": "address",
          "name": "tokenContract",
          "type": "address"
        }
      ],
      "name": "AssetTokenized",
      "type": "event"
    },
    {
      "anonymous": false,
      "inputs": [
        {
          "indexed": true,
          "internalType": "bytes32",
          "name": "assetId",
          "type": "bytes32"
        },
        {
          "indexed": false,
          "internalType": "uint8",
          "name": "score",
          "type": "uint8"
        }
      ],
      "name": "AssetVerified",
      "type": "event"
    },
    {
      "anonymous": false,
      "inputs": [
        {
          "indexed": false,
          "internalType": "address",
          "name": "account",
          "type": "address"
        }
      ],
      "name": "Paused",
      "type": "event"
    },
    {
      "anonymous": false,
      "inputs": [
        {
          "indexed": true,
          "internalType": "bytes32",
          "name": "role",
          "type": "bytes32"
        },
        {
          "indexed": true,
          "internalType": "bytes32",
          "name": "previousAdminRole",
          "type": "bytes32"
        },
        {
          "indexed": true,
          "internalType": "bytes32",
          "name": "newAdminRole",
          "type": "bytes32"
        }
      ],
      "name": "RoleAdminChanged",
      "type": "event"
    },
    {
      "anonymous": false,
      "inputs": [
        {
          "indexed": true,
          "internalType": "bytes32",
          "name": "role",
          "type": "bytes32"
        },
        {
          "indexed": true,
          "internalType": "address",
          "name": "account",
          "type": "address"
        },
        {
          "indexed": true,
          "internalType": "address",
          "name": "sender",
          "type": "address"
        }
      ],
      "name": "RoleGranted",
      "type": "event"
    },
    {
      "anonymous": false,
      "inputs": [
        {
          "indexed": true,
          "internalType": "bytes32",
          "name": "role",
          "type": "bytes32"
        },
        {
          "indexed": true,
          "internalType": "address",
          "name": "account",
          "type": "address"
        },
        {
          "indexed": true,
          "internalType": "address",
          "name": "sender",
          "type": "address"
        }
      ],
      "name": "RoleRevoked",
      "type": "event"
    },
    {
      "anonymous": false,
      "inputs": [
        {
          "indexed": false,
          "internalType": "address",
          "name": "account",
          "type": "address"
        }
      ],
      "name": "Unpaused",
      "type": "event"
    },
    {
      "inputs": [],
      "name": "DEFAULT_ADMIN_ROLE",
      "outputs": [
        {
          "internalType": "bytes32",
          "name": "",
          "type": "bytes32"
        }
      ],
      "stateMutability": "view",
      "type": "function"
    },
    {
      "inputs": [],
      "name": "VERIFIER_ROLE",
      "outputs": [
        {
          "internalType": "bytes32",
          "name": "",
          "type": "bytes32"
        }
      ],
      "stateMutability": "view",
      "type": "function"
    },
    {
      "inputs": [
        {
          "internalType": "bytes32",
          "name": "",
          "type": "bytes32"
        }
      ],
      "name": "assets",
      "outputs": [
        {
          "internalType": "bytes32",
          "name": "id",
          "type": "bytes32"
        },
        {
          "internalType": "address",
          "name": "owner",
          "type": "address"
        },
        {
          "internalType": "string",
          "name": "assetType",
          "type": "string"
        },
        {
          "internalType": "string",
          "name": "name",
          "type": "string"
        },
        {
          "internalType": "string",
          "name": "location",
          "type": "string"
        },
        {
          "internalType": "uint256",
          "name": "totalValue",
          "type": "uint256"
        },
        {
          "internalType": "uint256",
          "name": "tokenSupply",
          "type": "uint256"
        },
        {
          "internalType": "uint256",
          "name": "tokenizedAmount",
          "type": "uint256"
        },
        {
          "internalType": "uint256",
          "name": "maturityDate",
          "type": "uint256"
        },
        {
          "internalType": "uint8",
          "name": "verificationScore",
          "type": "uint8"
        },
        {
          "internalType": "bool",
          "name": "isActive",
          "type": "bool"
        },
        {
          "internalType": "uint256",
          "name": "createdAt",
          "type": "uint256"
        },
        {
          "internalType": "address",
          "name": "tokenContract",
          "type": "address"
        }
      ],
      "stateMutability": "view",
      "type": "function"
    },
    {
      "inputs": [
        {
          "internalType": "string",
          "name": "",
          "type": "string"
        }
      ],
      "name": "countryAssetCount",
      "outputs": [
        {
          "internalType": "uint256",
          "name": "",
          "type": "uint256"
        }
      ],
      "stateMutability": "view",
      "type": "function"
    },
    {
      "inputs": [],
      "name": "feeRecipient",
      "outputs": [
        {
          "internalType": "address",
          "name": "",
          "type": "address"
        }
      ],
      "stateMutability": "view",
      "type": "function"
    },
    {
      "inputs": [
        {
          "internalType": "bytes32",
          "name": "assetId",
          "type": "bytes32"
        }
      ],
      "name": "getAsset",
      "outputs": [
        {
          "components": [
            {
              "internalType": "bytes32",
              "name": "id",
              "type": "bytes32"
            },
            {
              "internalType": "address",
              "name": "owner",
              "type": "address"
            },
            {
              "internalType": "string",
              "name": "assetType",
              "type": "string"
            },
            {
              "internalType": "string",
              "name": "name",
              "type": "string"
            },
            {
              "internalType": "string",
              "name": "location",
              "type": "string"
            },
            {
              "internalType": "uint256",
              "name": "totalValue",
              "type": "uint256"
            },
            {
              "internalType": "uint256",
              "name": "tokenSupply",
              "type": "uint256"
            },
            {
              "internalType": "uint256",
              "name": "tokenizedAmount",
              "type": "uint256"
            },
            {
              "internalType": "uint256",
              "name": "maturityDate",
              "type": "uint256"
            },
            {
              "internalType": "uint8",
              "name": "verificationScore",
              "type": "uint8"
            },
            {
              "internalType": "bool",
              "name": "isActive",
              "type": "bool"
            },
            {
              "internalType": "uint256",
              "name": "createdAt",
              "type": "uint256"
            },
            {
              "internalType": "address",
              "name": "tokenContract",
              "type": "address"
            }
          ],
          "internalType": "struct AssetFactory.Asset",
          "name": "",
          "type": "tuple"
        }
      ],
      "stateMutability": "view",
      "type": "function"
    },
    {
      "inputs": [
        {
          "internalType": "bytes32",
          "name": "role",
          "type": "bytes32"
        }
      ],
      "name": "getRoleAdmin",
      "outputs": [
        {
          "internalType": "bytes32",
          "name": "",
          "type": "bytes32"
        }
      ],
      "stateMutability": "view",
      "type": "function"
    },
    {
      "inputs": [
        {
          "internalType": "address",
          "name": "user",
          "type": "address"
        }
      ],
      "name": "getUserAssets",
      "outputs": [
        {
          "internalType": "bytes32[]",
          "name": "",
          "type": "bytes32[]"
        }
      ],
      "stateMutability": "view",
      "type": "function"
    },
    {
      "inputs": [
        {
          "internalType": "bytes32",
          "name": "role",
          "type": "bytes32"
        },
        {
          "internalType": "address",
          "name": "account",
          "type": "address"
        }
      ],
      "name": "grantRole",
      "outputs": [],
      "stateMutability": "nonpayable",
      "type": "function"
    },
    {
      "inputs": [
        {
          "internalType": "bytes32",
          "name": "role",
          "type": "bytes32"
        },
        {
          "internalType": "address",
          "name": "account",
          "type": "address"
        }
      ],
      "name": "hasRole",
      "outputs": [
        {
          "internalType": "bool",
          "name": "",
          "type": "bool"
        }
      ],
      "stateMutability": "view",
      "type": "function"
    },
    {
      "inputs": [],
      "name": "paused",
      "outputs": [
        {
          "internalType": "bool",
          "name": "",
          "type": "bool"
        }
      ],
      "stateMutability": "view",
      "type": "function"
    },
    {
      "inputs": [
        {
          "internalType": "bytes32",
          "name": "role",
          "type": "bytes32"
        },
        {
          "internalType": "address",
          "name": "callerConfirmation",
          "type": "address"
        }
      ],
      "name": "renounceRole",
      "outputs": [],
      "stateMutability": "nonpayable",
      "type": "function"
    },
    {
      "inputs": [
        {
          "internalType": "bytes32",
          "name": "role",
          "type": "bytes32"
        },
        {
          "internalType": "address",
          "name": "account",
          "type": "address"
        }
      ],
      "name": "revokeRole",
      "outputs": [],
      "stateMutability": "nonpayable",
      "type": "function"
    },
    {
      "inputs": [
        {
          "internalType": "uint256",
          "name": "newFee",
          "type": "uint256"
        }
      ],
      "name": "setTokenizationFee",
      "outputs": [],
      "stateMutability": "nonpayable",
      "type": "function"
    },
    {
      "inputs": [
        {
          "internalType": "address",
          "name": "_verificationRegistry",
          "type": "address"
        }
      ],
      "name": "setVerificationRegistry",
      "outputs": [],
      "stateMutability": "nonpayable",
      "type": "function"
    },
    {
      "inputs": [
        {
          "internalType": "bytes4",
          "name": "interfaceId",
          "type": "bytes4"
        }
      ],
      "name": "supportsInterface",
      "outputs": [
        {
          "internalType": "bool",
          "name": "",
          "type": "bool"
        }
      ],
      "stateMutability": "view",
      "type": "function"
    },
    {
      "inputs": [],
      "name": "tokenizationFee",
      "outputs": [
        {
          "internalType": "uint256",
          "name": "",
          "type": "uint256"
        }
      ],
      "stateMutability": "view",
      "type": "function"
    },
    {
      "inputs": [
        {
          "internalType": "string",
          "name": "assetType",
          "type": "string"
        },
        {
          "internalType": "string",
          "name": "name",
          "type": "string"
        },
        {
          "internalType": "string",
          "name": "location",
          "type": "string"
        },
        {
          "internalType": "uint256",
          "name": "totalValue",
          "type": "uint256"
        },
        {
          "internalType": "uint256",
          "name": "tokenSupply",
          "type": "uint256"
        },
        {
          "internalType": "uint256",
          "name": "maturityDate",
          "type": "uint256"
        },
        {
          "internalType": "bytes32",
          "name": "verificationAssetId",
          "type": "bytes32"
        }
      ],
      "name": "tokenizeAsset",
      "outputs": [
        {
          "internalType": "bytes32",
          "name": "",
          "type": "bytes32"
        }
      ],
      "stateMutability": "payable",
      "type": "function"
    },
    {
      "inputs": [],
      "name": "totalAssetsTokenized",
      "outputs": [
        {
          "internalType": "uint256",
          "name": "",
          "type": "uint256"
        }
      ],
      "stateMutability": "view",
      "type": "function"
    },
    {
      "inputs": [],
      "name": "totalValueLocked",
      "outputs": [
        {
          "internalType": "uint256",
          "name": "",
          "type": "uint256"
        }
      ],
      "stateMutability": "view",
      "type": "function"
    },
    {
      "inputs": [],
      "name": "trustToken",
      "outputs": [
        {
          "internalType": "address",
          "name": "",
          "type": "address"
        }
      ],
      "stateMutability": "view",
      "type": "function"
    },
    {
      "inputs": [
        {
          "internalType": "address",
          "name": "",
          "type": "address"
        },
        {
          "internalType": "uint256",
          "name": "",
          "type": "uint256"
        }
      ],
      "name": "userAssets",
      "outputs": [
        {
          "internalType": "bytes32",
          "name": "",
          "type": "bytes32"
        }
      ],
      "stateMutability": "view",
      "type": "function"
    },
    {
      "inputs": [],
      "name": "verificationRegistry",
      "outputs": [
        {
          "internalType": "contract IVerificationRegistry",
          "name": "",
          "type": "address"
        }
      ],
      "stateMutability": "view",
      "type": "function"
    },
    {
      "inputs": [
        {
          "internalType": "bytes32",
          "name": "",
          "type": "bytes32"
        }
      ],
      "name": "verifications",
      "outputs": [
        {
          "internalType": "bool",
          "name": "satelliteVerified",
          "type": "bool"
        },
        {
          "internalType": "bool",
          "name": "communityVerified",
          "type": "bool"
        },
        {
          "internalType": "bool",
          "name": "documentVerified",
          "type": "bool"
        },
        {
          "internalType": "uint256",
          "name": "timestamp",
          "type": "uint256"
        },
        {
          "internalType": "address",
          "name": "verifier",
          "type": "address"
        }
      ],
      "stateMutability": "view",
      "type": "function"
    },
    {
      "inputs": [
        {
          "internalType": "bytes32",
          "name": "assetId",
          "type": "bytes32"
        },
        {
          "internalType": "bool",
          "name": "satelliteVerified",
          "type": "bool"
        },
        {
          "internalType": "bool",
          "name": "communityVerified",
          "type": "bool"
        },
        {
          "internalType": "bool",
          "name": "documentVerified",
          "type": "bool"
        }
      ],
      "name": "verifyAsset",
      "outputs": [],
      "stateMutability": "nonpayable",
      "type": "function"
    }
  ],
  "bytecode": "0x6080346100cc57601f612cd638819003918201601f19168301916001600160401b038311848410176100d1578084926060946040528339810103126100cc57610047816100e7565b906100606040610059602084016100e7565b92016100e7565b91600160025560c8600955610074336100fb565b5061007e33610177565b50600b80546001600160a01b03199081166001600160a01b0393841617909155600a8054821693831693909317909255600c80549092169216919091179055604051612a6690816102108239f35b600080fd5b634e487b7160e01b600052604160045260246000fd5b51906001600160a01b03821682036100cc57565b6001600160a01b0381166000908152600080516020612cb6833981519152602052604090205460ff16610171576001600160a01b03166000818152600080516020612cb683398151915260205260408120805460ff19166001179055339190600080516020612c768339815191528180a4600190565b50600090565b6001600160a01b0381166000908152600080516020612c96833981519152602052604090205460ff16610171576001600160a01b03166000818152600080516020612c9683398151915260205260408120805460ff191660011790553391907f0ce23c3e399818cfee81a7ab0880f714e53d7672b08df0fa62f2843416e1ea0990600080516020612c768339815191529080a460019056fe608080604052600436101561001357600080fd5b60003560e01c90816301ffc9a7146115d95750806303dbe152146115bb57806305c4c0811461155d57806310c74e16146114f3578063248a9ca3146114be5780632cc3ce801461129b5780632f2ff15d1461125b57806336568abe1461121557806346904840146111ec5780635c975abb146111c95780636a8a69aa14611170578063765ff061146110b657806387664f911461107357806391d14854146110265780639fda5b6614610f16578063a217fddf14610efa578063b23501c614610507578063b5d683eb146104aa578063d13deb2f14610481578063d547741f1461043a578063e7705db6146103ff578063ec18154e146103e1578063ed91e044146103c3578063efa4f8d41461039a5763f03cb55b1461013257600080fd5b3461039557608036600319011261039557600435602435801515808203610395576044359182151592838103610395576064359081151594858303610395573360009081527f1da0b5176dfe03406af5a6eed66ca01dda9b45ac4da671c3fa379cb93717ef81602052604090205460ff161561035c576000878152600360205260409020600101546001600160a01b031615610320576040519060a082019082821067ffffffffffffffff83111761030a577f55f03eeb400018e7e243d6b1c3354986fae969ebfb93dbba8d236d23e8e5a74a97602097600293604052845287840191825260408401908152606084019042825261026a60808601933385528c60005260048b5260406000209651151560ff80198954169116178755511515869061ff00825491151560081b169061ff001916179055565b51845462ff0000191690151560101b62ff00001617845551600184015551910180546001600160a01b0319166001600160a01b0392909216919091179055600092610301575b6102f1575b6102e3575b8360005260038252600960406000200160ff821660ff1982541617905560ff60405191168152a2005b6102ec90611842565b6102ba565b906102fb90611842565b906102b5565b602892506102b0565b634e487b7160e01b600052604160045260246000fd5b60405162461bcd60e51b8152602060048201526014602482015273105cdcd95d08191bd95cc81b9bdd08195e1a5cdd60621b6044820152606490fd5b63e2517d3f60e01b600052336004527f0ce23c3e399818cfee81a7ab0880f714e53d7672b08df0fa62f2843416e1ea0960245260446000fd5b600080fd5b3461039557600036600319011261039557600c546040516001600160a01b039091168152602090f35b34610395576000366003190112610395576020600954604051908152f35b34610395576000366003190112610395576020600854604051908152f35b346103955760003660031901126103955760206040517f0ce23c3e399818cfee81a7ab0880f714e53d7672b08df0fa62f2843416e1ea098152f35b346103955760403660031901126103955761047f600435610459611674565b9061047a61047582600052600060205260016040600020015490565b6118a7565b61196d565b005b3461039557600036600319011261039557600b546040516001600160a01b039091168152602090f35b346103955760203660031901126103955760043567ffffffffffffffff8111610395576104f460206104e1819336906004016117eb565b816040519382858094519384920161162c565b8101600681520301902054604051908152f35b60e03660031901126103955760043567ffffffffffffffff8111610395576105339036906004016117eb565b60243567ffffffffffffffff8111610395576105539036906004016117eb565b60443567ffffffffffffffff8111610395576105739036906004016117eb565b6064356084359160a43560c4359460ff60015416610ee9576002805414610ed85760028055600c54604051636346000b60e01b81526004810188905290608090829060249082906001600160a01b03165afa908115610ecc576000908192610e79575b5015610e3f57421015610e03578315610dca578415610d855742821115610d40576009548085029085820403610a8457612710900491823410610d0857604051956b02a393ab9ba213934b233b2960a51b6020880152610655602c8885516106448184840160208a0161162c565b81010301601f198101895288611725565b6106af6040976106c060018c60208c80516106708282611725565b60028152828101916120a360f11b83525197846106968a9651809287808a01910161162c565b850191602d60f81b85840152518093602184019061162c565b01010301601f198101845283611725565b885191611041908184019184831067ffffffffffffffff84111761030a5761070c8d926106fe87966060946119f0893960808752608087019061164f565b90858203602087015261164f565b92868d820152015203906000f08015610cfd5760018a9493898b948a600095858060a01b03169a8b9884519a8b998a9661074588611708565b8188526020880191338352818901938452606089019485526080890195865260a0890196875260c0890197885261018061016060e08b019a8e8c5261010081019c8d5261012081019e8f5261014081019d8e52019d8e429052019d8e5260005260036020526000209c518d5560018060a01b0390511660018d019060018060a01b03166bffffffffffffffffffffffff60a01b82541617905560028c01905180519067ffffffffffffffff821161030a57819061080284546116ce565b601f8111610caa575b50602090601f8311600114610c4557600092610c3a575b50508160011b916000199060031b1c19161790555b51805160038c019167ffffffffffffffff821161030a57819061085a84546116ce565b601f8111610be7575b50602090601f8311600114610b8257600092610b77575b50508160011b916000199060031b1c19161790555b51805160048b019167ffffffffffffffff821161030a576108b083546116ce565b601f8111610b2f575b50602090601f8311600114610ab9579180600b9c9b9a9896949261093d9a989694600092610aae575b50508160011b916000199060031b1c19161790555b5160058b01555160068a015551600789015551600888015560ff80600989019351161660ff1983541617825551151561ff00825491151560081b169061ff001916179055565b51600a84015551910180546001600160a01b0319166001600160a01b0392909216919091179055336000908152600560205284902080546801000000000000000081101561030a57610994916001820181556116a0565b81549060031b9087821b91600019901b19161790556007546000198114610a8457600101600755600854838101809111610a845760085560008080808460018060a01b03600a5416828215610aa5575bf115610a9a57803411610a47575b507f32a0d401cddae5b460bea8161da6b6ea9f31c03e432e9b4009e0586efc8ad6c56020958592610a2d86519260608452606084019061164f565b9488830152858201528033940390a3600160025551908152f35b80340390348211610a84576000808093819382903414610a7b575b3390f115610a7057856109f2565b82513d6000823e3d90fd5b506108fc610a62565b634e487b7160e01b600052601160045260246000fd5b83513d6000823e3d90fd5b506108fc6109e4565b0151905038806108e2565b90601f1983169184600052816000209260005b818110610b175750926001928592600b9f9e9d9b9997959661093d9d9b999710610afe575b505050811b0190556108f7565b015160001960f88460031b161c19169055388080610af1565b92936020600181928786015181550195019301610acc565b836000526020600020601f840160051c81019160208510610b6d575b601f0160051c01905b818110610b6157506108b9565b60008155600101610b54565b9091508190610b4b565b01519050388061087a565b60008581528281209350601f198516905b818110610bcf5750908460019594939210610bb6575b505050811b01905561088f565b015160001960f88460031b161c19169055388080610ba9565b92936020600181928786015181550195019301610b93565b909150836000526020600020601f840160051c81019160208510610c30575b90601f859493920160051c01905b818110610c215750610863565b60008155849350600101610c14565b9091508190610c06565b015190503880610822565b60008581528281209350601f198516905b818110610c925750908460019594939210610c79575b505050811b019055610837565b015160001960f88460031b161c19169055388080610c6c565b92936020600181928786015181550195019301610c56565b909150836000526020600020601f840160051c81019160208510610cf3575b90601f859493920160051c01905b818110610ce4575061080b565b60008155849350600101610cd7565b9091508190610cc9565b87513d6000823e3d90fd5b60405162461bcd60e51b815260206004820152601060248201526f496e73756666696369656e742066656560801b6044820152606490fd5b60405162461bcd60e51b815260206004820152601c60248201527f4d617475726974792064617465206d75737420626520667574757265000000006044820152606490fd5b60405162461bcd60e51b815260206004820152601860248201527f546f6b656e20737570706c79206d757374206265203e203000000000000000006044820152606490fd5b60405162461bcd60e51b8152602060048201526011602482015270056616c7565206d757374206265203e203607c1b6044820152606490fd5b60405162461bcd60e51b815260206004820152601460248201527315995c9a599a58d85d1a5bdb88195e1c1a5c995960621b6044820152606490fd5b60405162461bcd60e51b8152602060048201526012602482015271105cdcd95d081b9bdd081d995c9a599a595960721b6044820152606490fd5b91506080823d608011610ec4575b81610e9460809383611725565b81010312610ec1578151908115158203610ec1576005606060408501519401511015610ec15750896105d6565b80fd5b3d9150610e87565b6040513d6000823e3d90fd5b633ee5aeb560e01b60005260046000fd5b63d93c066560e01b60005260046000fd5b3461039557600036600319011261039557602060405160008152f35b34610395576020366003190112610395576004356000908152600360205260409020805460018201546001600160a01b031691610f5560028201611747565b610f6160038301611747565b91610f6e60048201611747565b926005820154936006830154600784015490600885015492600986015494600a87015496600160a01b6001900390600b015416976040519b8c9b8c5260208c015260408b016101a090526101a08b01610fc69161164f565b8a810360608c0152610fd79161164f565b89810360808b0152610fe89161164f565b9660a089015260c088015260e087015261010086015260ff811661012086015260081c60ff1615156101408501526101608401526101808301520390f35b346103955760403660031901126103955761103f611674565b600435600052600060205260406000209060018060a01b0316600052602052602060ff604060002054166040519015158152f35b346103955760203660031901126103955761108c61168a565b611094611854565b600c80546001600160a01b0319166001600160a01b0392909216919091179055005b34610395576020366003190112610395576001600160a01b036110d761168a565b16600052600560205260406000206040518060208354918281520190819360005260206000209060005b81811061115a5750505081611117910382611725565b6040519182916020830190602084525180915260408301919060005b818110611141575050500390f35b8251845285945060209384019390920191600101611133565b8254845260209093019260019283019201611101565b346103955760403660031901126103955761118961168a565b6001600160a01b0316600090815260056020526040902080546024359190821015610395576020916111ba916116a0565b90549060031b1c604051908152f35b3461039557600036600319011261039557602060ff600154166040519015158152f35b3461039557600036600319011261039557600a546040516001600160a01b039091168152602090f35b346103955760403660031901126103955761122e611674565b336001600160a01b0382160361124a5761047f9060043561196d565b63334bd91960e11b60005260046000fd5b346103955760403660031901126103955761047f60043561127a611674565b9061129661047582600052600060205260016040600020015490565b6118e2565b34610395576020366003190112610395576040516112b881611708565b60008152602081016000905260408101606090526060810160609052608081016060905260a081016000905260c081016000905260e081016000905261010081016000905261012081016000905261014081016000905261016081016000905261018001600090526004356000526003602052604060002060405161133c81611708565b8154815260018201546001600160a01b0316602082019081529161136260028201611747565b6040830190815261137560038301611747565b606084019081529161138960048201611747565b6080850190815260058201549360a08601948552600683015460c08701908152600784015460e0880190815260088501549161010089019283526009860154946101208a019460ff871686526101408b019660081c60ff1615158752600a880154976101608c01988952600160a01b6001900390600b015416986101808c01998a526040519c8d809d60208252519060200152600160a01b6001900390511660408d01525160608c016101a090526101c08c016114459161164f565b90518b8203601f190160808d015261145d919061164f565b90518a8203601f190160a08c0152611475919061164f565b975160c08a01525160e089015251610100880152516101208701525160ff1661014086015251151561016085015251610180840152516001600160a01b03166101a08301520390f35b346103955760203660031901126103955760206114eb600435600052600060205260016040600020015490565b604051908152f35b3461039557602036600319011261039557600435600052600460205260a060406000208054906001810154906002600180861b03910154169060ff6040519381811615158552818160081c161515602086015260101c161515604084015260608301526080820152f35b3461039557602036600319011261039557600435611579611854565b6103e8811161158757600955005b60405162461bcd60e51b815260206004820152600c60248201526b08ccaca40e8dede40d0d2ced60a31b6044820152606490fd5b34610395576000366003190112610395576020600754604051908152f35b34610395576020366003190112610395576004359063ffffffff60e01b821680920361039557602091637965db0b60e01b811490811561161b575b5015158152f35b6301ffc9a760e01b14905083611614565b60005b83811061163f5750506000910152565b818101518382015260200161162f565b906020916116688151809281855285808601910161162c565b601f01601f1916010190565b602435906001600160a01b038216820361039557565b600435906001600160a01b038216820361039557565b80548210156116b85760005260206000200190600090565b634e487b7160e01b600052603260045260246000fd5b90600182811c921680156116fe575b60208310146116e857565b634e487b7160e01b600052602260045260246000fd5b91607f16916116dd565b6101a0810190811067ffffffffffffffff82111761030a57604052565b90601f8019910116810190811067ffffffffffffffff82111761030a57604052565b906040519182600082549261175b846116ce565b80845293600181169081156117c95750600114611782575b5061178092500383611725565b565b90506000929192526020600020906000915b8183106117ad5750509060206117809282010138611773565b6020919350806001915483858901015201910190918492611794565b90506020925061178094915060ff191682840152151560051b82010138611773565b81601f820112156103955780359067ffffffffffffffff821161030a5760405192611820601f8401601f191660200185611725565b8284526020838301011161039557816000926020809301838601378301015290565b60ff601e9116019060ff8211610a8457565b3360009081527fad3228b676f7d3cd4284a5443f17f1962b36e491b30a40b2405849e597ba5fb5602052604090205460ff161561188d57565b63e2517d3f60e01b60005233600452600060245260446000fd5b60008181526020818152604080832033845290915290205460ff16156118ca5750565b63e2517d3f60e01b6000523360045260245260446000fd5b6000818152602081815260408083206001600160a01b038616845290915290205460ff16611966576000818152602081815260408083206001600160a01b0395909516808452949091528120805460ff19166001179055339291907f2f8788117e7eff1d82e926ec794901d17c78024a50270940304540a733656f0d9080a4600190565b5050600090565b6000818152602081815260408083206001600160a01b038616845290915290205460ff1615611966576000818152602081815260408083206001600160a01b0395909516808452949091528120805460ff19169055339291907ff6391f5c32d9c69d2a47ea670b442974b53935d1edc7fd64eb21e047a839171b9080a460019056fe6080604052346103dc5761104180380380610019816103e1565b9283398101906080818303126103dc5780516001600160401b0381116103dc5782610045918301610406565b602082015190926001600160401b0382116103dc57610065918301610406565b604082015160609092015183519192916001600160401b0381116102e557600354600181811c911680156103d2575b60208210146102c557601f811161036d575b50602094601f8211600114610306579481929394956000926102fb575b50508160011b916000199060031b1c1916176003555b82516001600160401b0381116102e557600454600181811c911680156102db575b60208210146102c557601f8111610260575b506020601f82116001146101f957819293946000926101ee575b50508160011b916000199060031b1c1916176004555b600655600780546001600160a01b0319163390811790915561015d90610471565b5033156101d8576002548181018091116101c257600255600033815280602052604081208281540190556040519182527fddf252ad1be2c89b69c2b068fc378daa952ba7f163c4a11628f55a4df523b3ef60203393a3604051610b2190816105008239f35b634e487b7160e01b600052601160045260246000fd5b63ec442f0560e01b600052600060045260246000fd5b015190503880610126565b601f198216906004600052806000209160005b8181106102485750958360019596971061022f575b505050811b0160045561013c565b015160001960f88460031b161c19169055388080610221565b9192602060018192868b01518155019401920161020c565b60046000527f8a35acfbc15ff81a39ae7d344fd709f28e8600b4aa8c65c6b64bfe7fe36bd19b601f830160051c810191602084106102bb575b601f0160051c01905b8181106102af575061010c565b600081556001016102a2565b9091508190610299565b634e487b7160e01b600052602260045260246000fd5b90607f16906100fa565b634e487b7160e01b600052604160045260246000fd5b0151905038806100c3565b601f198216956003600052806000209160005b8881106103555750836001959697981061033c575b505050811b016003556100d9565b015160001960f88460031b161c1916905538808061032e565b91926020600181928685015181550194019201610319565b60036000527fc2575a0e9e593c00f959f8c92f12db2869c3395a3b0502d05e2516446f71f85b601f830160051c810191602084106103c8575b601f0160051c01905b8181106103bc57506100a6565b600081556001016103af565b90915081906103a6565b90607f1690610094565b600080fd5b6040519190601f01601f191682016001600160401b038111838210176102e557604052565b81601f820112156103dc578051906001600160401b0382116102e557610435601f8301601f19166020016103e1565b92828452602083830101116103dc5760005b82811061045c57505060206000918301015290565b80602080928401015182828701015201610447565b6001600160a01b0381166000908152600080516020611021833981519152602052604090205460ff166104f9576001600160a01b0316600081815260008051602061102183398151915260205260408120805460ff191660011790553391907f2f8788117e7eff1d82e926ec794901d17c78024a50270940304540a733656f0d8180a4600190565b5060009056fe608080604052600436101561001357600080fd5b60003560e01c90816301ffc9a7146108225750806306fdde031461074c578063095ea7b3146106c657806318160ddd146106a857806323b872dd146105bb578063248a9ca3146105865780632f2ff15d14610546578063313ce5671461052a57806336568abe146104e457806342966c68146103c957806344de240a146103ab57806370a082311461037157806391d148541461032457806395d89b4114610203578063a217fddf146101e7578063a9059cbb146101b6578063c3acb4d11461018d578063d547741f146101465763dd62ed3e146100f057600080fd5b34610141576040366003190112610141576101096108be565b6101116108d4565b6001600160a01b039182166000908152600160209081526040808320949093168252928352819020549051908152f35b600080fd5b346101415760403660031901126101415761018b6004356101656108d4565b9061018661018182600052600560205260016040600020015490565b610999565b610a65565b005b34610141576000366003190112610141576007546040516001600160a01b039091168152602090f35b34610141576040366003190112610141576101dc6101d26108be565b60243590336108ea565b602060405160018152f35b3461014157600036600319011261014157602060405160008152f35b346101415760003660031901126101415760405160006004548060011c9060018116801561031a575b602083108114610306578285529081156102ea5750600114610293575b50819003601f01601f191681019067ffffffffffffffff82118183101761027d5761027982918260405282610875565b0390f35b634e487b7160e01b600052604160045260246000fd5b905060046000527f8a35acfbc15ff81a39ae7d344fd709f28e8600b4aa8c65c6b64bfe7fe36bd19b6000905b8282106102d457506020915082010182610249565b60018160209254838588010152019101906102bf565b90506020925060ff191682840152151560051b82010182610249565b634e487b7160e01b84526022600452602484fd5b91607f169161022c565b346101415760403660031901126101415761033d6108d4565b600435600052600560205260406000209060018060a01b0316600052602052602060ff604060002054166040519015158152f35b34610141576020366003190112610141576001600160a01b036103926108be565b1660005260006020526020604060002054604051908152f35b34610141576000366003190112610141576020600654604051908152f35b34610141576020366003190112610141573360009081527f05b8ccbb9d4d8fb16ea74ce3c29a41f1b461fbdaff4714a0d9a8eb05499746bc60205260409020546004359060ff16156104a757331561049157600033815280602052604081205491808310610478578082933384528360205203604083205580600254036002556040519081527fddf252ad1be2c89b69c2b068fc378daa952ba7f163c4a11628f55a4df523b3ef60203392a380f35b60649263391434e360e21b835233600452602452604452fd5b634b637e8f60e11b600052600060045260246000fd5b60405162461bcd60e51b815260206004820152601560248201527427b7363c903330b1ba37b93c9031b0b710313ab93760591b6044820152606490fd5b34610141576040366003190112610141576104fd6108d4565b336001600160a01b038216036105195761018b90600435610a65565b63334bd91960e11b60005260046000fd5b3461014157600036600319011261014157602060405160128152f35b346101415760403660031901126101415761018b6004356105656108d4565b9061058161018182600052600560205260016040600020015490565b6109d6565b346101415760203660031901126101415760206105b3600435600052600560205260016040600020015490565b604051908152f35b34610141576060366003190112610141576105d46108be565b6105dc6108d4565b6001600160a01b038216600081815260016020908152604080832033845290915290205490926044359291600019811061061c575b506101dc93506108ea565b83811061068b57841561067557331561065f576101dc946000526001602052604060002060018060a01b0333166000526020528360406000209103905584610611565b634a1406b160e11b600052600060045260246000fd5b63e602df0560e01b600052600060045260246000fd5b8390637dc7a0d960e11b6000523360045260245260445260646000fd5b34610141576000366003190112610141576020600254604051908152f35b34610141576040366003190112610141576106df6108be565b602435903315610675576001600160a01b031690811561065f57336000526001602052604060002082600052602052806040600020556040519081527f8c5be1e5ebec7d5bd14f71427d1e84f3dd0314c0f7b2291e5b200ac8c7c3b92560203392a3602060405160018152f35b346101415760003660031901126101415760405160006003548060011c90600181168015610818575b602083108114610306578285529081156102ea57506001146107c15750819003601f01601f191681019067ffffffffffffffff82118183101761027d5761027982918260405282610875565b905060036000527fc2575a0e9e593c00f959f8c92f12db2869c3395a3b0502d05e2516446f71f85b6000905b82821061080257506020915082010182610249565b60018160209254838588010152019101906107ed565b91607f1691610775565b34610141576020366003190112610141576004359063ffffffff60e01b821680920361014157602091637965db0b60e01b8114908115610864575b5015158152f35b6301ffc9a760e01b1490508361085d565b91909160208152825180602083015260005b8181106108a8575060409293506000838284010152601f8019910116010190565b8060208092870101516040828601015201610887565b600435906001600160a01b038216820361014157565b602435906001600160a01b038216820361014157565b6001600160a01b0316908115610491576001600160a01b03169182156109835760008281528060205260408120548281106109695791604082827fddf252ad1be2c89b69c2b068fc378daa952ba7f163c4a11628f55a4df523b3ef958760209652828652038282205586815280845220818154019055604051908152a3565b916064928463391434e360e21b8452600452602452604452fd5b63ec442f0560e01b600052600060045260246000fd5b600081815260056020908152604080832033845290915290205460ff16156109be5750565b63e2517d3f60e01b6000523360045260245260446000fd5b60008181526005602090815260408083206001600160a01b038616845290915290205460ff16610a5e5760008181526005602090815260408083206001600160a01b0395909516808452949091528120805460ff19166001179055339291907f2f8788117e7eff1d82e926ec794901d17c78024a50270940304540a733656f0d9080a4600190565b5050600090565b60008181526005602090815260408083206001600160a01b038616845290915290205460ff1615610a5e5760008181526005602090815260408083206001600160a01b0395909516808452949091528120805460ff19169055339291907ff6391f5c32d9c69d2a47ea670b442974b53935d1edc7fd64eb21e047a839171b9080a460019056fea2646970667358221220ad64b685460a11ddd6eaeffbbd195879b0c3a1f836d3ba48f94d2cb68d6d988964736f6c634300081c003305b8ccbb9d4d8fb16ea74ce3c29a41f1b461fbdaff4714a0d9a8eb05499746bca264697066735822122028e32f4c1ad8d03a33a4c9eed9fec1b0d18e18aabea88c7a19b16ee8d74dfbb464736f6c634300081c00332f8788117e7eff1d82e926ec794901d17c78024a50270940304540a733656f0d1da0b5176dfe03406af5a6eed66ca01dda9b45ac4da671c3fa379cb93717ef81ad3228b676f7d3cd4284a5443f17f1962b36e491b30a40b2405849e597ba5fb5",
  "linkReferences": {},
  "deployedLinkReferences": {}
}