{
  "_format": "hh-sol-artifact-1",
  "contractName": "AdvancedMinting",
  "sourceName": "contracts/AdvancedMinting.sol",
  "abi": [
    {
      "inputs": [
        {
          "internalType": "address",
          "name": "_trustToken",
          "type": "address"
        },
        {
          "internalType": "address",
          "name": "_assetNFT",
          "type": "address"
        }
      ],
      "stateMutability": "nonpayable",
      "type": "constructor"
    },
    {
      "inputs": [],
      "name": "AccessControlBadConfirmation",
      "type": "error"
    },
    {
      "inputs": [
        {
          "internalType": "address",
          "name": "account",
          "type": "address"
        },
        {
          "internalType": "bytes32",
          "name": "neededRole",
          "type": "bytes32"
        }
      ],
      "name": "AccessControlUnauthorizedAccount",
      "type": "error"
    },
    {
      "inputs": [],
      "name": "EnforcedPause",
      "type": "error"
    },
    {
      "inputs": [],
      "name": "ExpectedPause",
      "type": "error"
    },
    {
      "inputs": [],
      "name": "ReentrancyGuardReentrantCall",
      "type": "error"
    },
    {
      "anonymous": false,
      "inputs": [
        {
          "indexed": true,
          "internalType": "address",
          "name": "to",
          "type": "address"
        },
        {
          "indexed": true,
          "internalType": "uint256",
          "name": "tokenId",
          "type": "uint256"
        },
        {
          "components": [
            {
              "internalType": "string",
              "name": "name",
              "type": "string"
            },
            {
              "internalType": "string",
              "name": "value",
              "type": "string"
            },
            {
              "internalType": "uint256",
              "name": "rarity",
              "type": "uint256"
            }
          ],
          "indexed": false,
          "internalType": "struct AdvancedMinting.Attribute[]",
          "name": "attributes",
          "type": "tuple[]"
        }
      ],
      "name": "AttributeMinted",
      "type": "event"
    },
    {
      "anonymous": false,
      "inputs": [
        {
          "indexed": true,
          "internalType": "uint256",
          "name": "dropId",
          "type": "uint256"
        },
        {
          "indexed": false,
          "internalType": "string",
          "name": "name",
          "type": "string"
        },
        {
          "indexed": false,
          "internalType": "enum AdvancedMinting.RarityLevel",
          "name": "rarity",
          "type": "uint8"
        },
        {
          "indexed": false,
          "internalType": "uint256",
          "name": "totalSupply",
          "type": "uint256"
        }
      ],
      "name": "DropCreated",
      "type": "event"
    },
    {
      "anonymous": false,
      "inputs": [
        {
          "indexed": true,
          "internalType": "uint256",
          "name": "dropId",
          "type": "uint256"
        },
        {
          "indexed": true,
          "internalType": "address",
          "name": "to",
          "type": "address"
        },
        {
          "indexed": false,
          "internalType": "uint256[]",
          "name": "tokenIds",
          "type": "uint256[]"
        },
        {
          "indexed": false,
          "internalType": "uint256",
          "name": "quantity",
          "type": "uint256"
        }
      ],
      "name": "DropMinted",
      "type": "event"
    },
    {
      "anonymous": false,
      "inputs": [
        {
          "indexed": false,
          "internalType": "address",
          "name": "account",
          "type": "address"
        }
      ],
      "name": "Paused",
      "type": "event"
    },
    {
      "anonymous": false,
      "inputs": [
        {
          "indexed": true,
          "internalType": "address",
          "name": "to",
          "type": "address"
        },
        {
          "indexed": true,
          "internalType": "uint256",
          "name": "tokenId",
          "type": "uint256"
        },
        {
          "indexed": false,
          "internalType": "enum AdvancedMinting.RarityLevel",
          "name": "rarity",
          "type": "uint8"
        },
        {
          "indexed": false,
          "internalType": "uint256",
          "name": "price",
          "type": "uint256"
        }
      ],
      "name": "RarityMinted",
      "type": "event"
    },
    {
      "anonymous": false,
      "inputs": [
        {
          "indexed": true,
          "internalType": "bytes32",
          "name": "role",
          "type": "bytes32"
        },
        {
          "indexed": true,
          "internalType": "bytes32",
          "name": "previousAdminRole",
          "type": "bytes32"
        },
        {
          "indexed": true,
          "internalType": "bytes32",
          "name": "newAdminRole",
          "type": "bytes32"
        }
      ],
      "name": "RoleAdminChanged",
      "type": "event"
    },
    {
      "anonymous": false,
      "inputs": [
        {
          "indexed": true,
          "internalType": "bytes32",
          "name": "role",
          "type": "bytes32"
        },
        {
          "indexed": true,
          "internalType": "address",
          "name": "account",
          "type": "address"
        },
        {
          "indexed": true,
          "internalType": "address",
          "name": "sender",
          "type": "address"
        }
      ],
      "name": "RoleGranted",
      "type": "event"
    },
    {
      "anonymous": false,
      "inputs": [
        {
          "indexed": true,
          "internalType": "bytes32",
          "name": "role",
          "type": "bytes32"
        },
        {
          "indexed": true,
          "internalType": "address",
          "name": "account",
          "type": "address"
        },
        {
          "indexed": true,
          "internalType": "address",
          "name": "sender",
          "type": "address"
        }
      ],
      "name": "RoleRevoked",
      "type": "event"
    },
    {
      "anonymous": false,
      "inputs": [
        {
          "indexed": false,
          "internalType": "address",
          "name": "account",
          "type": "address"
        }
      ],
      "name": "Unpaused",
      "type": "event"
    },
    {
      "anonymous": false,
      "inputs": [
        {
          "indexed": true,
          "internalType": "address",
          "name": "to",
          "type": "address"
        },
        {
          "indexed": true,
          "internalType": "uint256",
          "name": "tokenId",
          "type": "uint256"
        },
        {
          "indexed": true,
          "internalType": "bytes32",
          "name": "merkleRoot",
          "type": "bytes32"
        }
      ],
      "name": "WhitelistMinted",
      "type": "event"
    },
    {
      "inputs": [],
      "name": "DEFAULT_ADMIN_ROLE",
      "outputs": [
        {
          "internalType": "bytes32",
          "name": "",
          "type": "bytes32"
        }
      ],
      "stateMutability": "view",
      "type": "function"
    },
    {
      "inputs": [],
      "name": "MANAGER_ROLE",
      "outputs": [
        {
          "internalType": "bytes32",
          "name": "",
          "type": "bytes32"
        }
      ],
      "stateMutability": "view",
      "type": "function"
    },
    {
      "inputs": [],
      "name": "MINTER_ROLE",
      "outputs": [
        {
          "internalType": "bytes32",
          "name": "",
          "type": "bytes32"
        }
      ],
      "stateMutability": "view",
      "type": "function"
    },
    {
      "inputs": [],
      "name": "assetNFT",
      "outputs": [
        {
          "internalType": "contract ERC721",
          "name": "",
          "type": "address"
        }
      ],
      "stateMutability": "view",
      "type": "function"
    },
    {
      "inputs": [
        {
          "internalType": "string",
          "name": "name",
          "type": "string"
        },
        {
          "internalType": "string",
          "name": "description",
          "type": "string"
        },
        {
          "internalType": "uint256",
          "name": "totalSupply",
          "type": "uint256"
        },
        {
          "internalType": "uint256",
          "name": "mintPrice",
          "type": "uint256"
        },
        {
          "internalType": "uint256",
          "name": "startTime",
          "type": "uint256"
        },
        {
          "internalType": "uint256",
          "name": "endTime",
          "type": "uint256"
        },
        {
          "internalType": "enum AdvancedMinting.RarityLevel",
          "name": "rarity",
          "type": "uint8"
        },
        {
          "internalType": "bytes32",
          "name": "merkleRoot",
          "type": "bytes32"
        }
      ],
      "name": "createDrop",
      "outputs": [],
      "stateMutability": "nonpayable",
      "type": "function"
    },
    {
      "inputs": [
        {
          "internalType": "uint256",
          "name": "",
          "type": "uint256"
        }
      ],
      "name": "drops",
      "outputs": [
        {
          "internalType": "string",
          "name": "name",
          "type": "string"
        },
        {
          "internalType": "string",
          "name": "description",
          "type": "string"
        },
        {
          "internalType": "uint256",
          "name": "totalSupply",
          "type": "uint256"
        },
        {
          "internalType": "uint256",
          "name": "minted",
          "type": "uint256"
        },
        {
          "internalType": "uint256",
          "name": "mintPrice",
          "type": "uint256"
        },
        {
          "internalType": "uint256",
          "name": "startTime",
          "type": "uint256"
        },
        {
          "internalType": "uint256",
          "name": "endTime",
          "type": "uint256"
        },
        {
          "internalType": "bool",
          "name": "isActive",
          "type": "bool"
        },
        {
          "internalType": "enum AdvancedMinting.RarityLevel",
          "name": "rarity",
          "type": "uint8"
        },
        {
          "internalType": "bytes32",
          "name": "merkleRoot",
          "type": "bytes32"
        }
      ],
      "stateMutability": "view",
      "type": "function"
    },
    {
      "inputs": [
        {
          "internalType": "uint256",
          "name": "dropId",
          "type": "uint256"
        }
      ],
      "name": "getDrop",
      "outputs": [
        {
          "components": [
            {
              "internalType": "string",
              "name": "name",
              "type": "string"
            },
            {
              "internalType": "string",
              "name": "description",
              "type": "string"
            },
            {
              "internalType": "uint256",
              "name": "totalSupply",
              "type": "uint256"
            },
            {
              "internalType": "uint256",
              "name": "minted",
              "type": "uint256"
            },
            {
              "internalType": "uint256",
              "name": "mintPrice",
              "type": "uint256"
            },
            {
              "internalType": "uint256",
              "name": "startTime",
              "type": "uint256"
            },
            {
              "internalType": "uint256",
              "name": "endTime",
              "type": "uint256"
            },
            {
              "internalType": "bool",
              "name": "isActive",
              "type": "bool"
            },
            {
              "internalType": "enum AdvancedMinting.RarityLevel",
              "name": "rarity",
              "type": "uint8"
            },
            {
              "internalType": "bytes32",
              "name": "merkleRoot",
              "type": "bytes32"
            }
          ],
          "internalType": "struct AdvancedMinting.Drop",
          "name": "",
          "type": "tuple"
        }
      ],
      "stateMutability": "view",
      "type": "function"
    },
    {
      "inputs": [
        {
          "internalType": "bytes32",
          "name": "role",
          "type": "bytes32"
        }
      ],
      "name": "getRoleAdmin",
      "outputs": [
        {
          "internalType": "bytes32",
          "name": "",
          "type": "bytes32"
        }
      ],
      "stateMutability": "view",
      "type": "function"
    },
    {
      "inputs": [
        {
          "internalType": "uint256",
          "name": "tokenId",
          "type": "uint256"
        }
      ],
      "name": "getTokenAttributes",
      "outputs": [
        {
          "components": [
            {
              "internalType": "string",
              "name": "name",
              "type": "string"
            },
            {
              "internalType": "string",
              "name": "value",
              "type": "string"
            },
            {
              "internalType": "uint256",
              "name": "rarity",
              "type": "uint256"
            }
          ],
          "internalType": "struct AdvancedMinting.Attribute[]",
          "name": "",
          "type": "tuple[]"
        }
      ],
      "stateMutability": "view",
      "type": "function"
    },
    {
      "inputs": [
        {
          "internalType": "bytes32",
          "name": "role",
          "type": "bytes32"
        },
        {
          "internalType": "address",
          "name": "account",
          "type": "address"
        }
      ],
      "name": "grantRole",
      "outputs": [],
      "stateMutability": "nonpayable",
      "type": "function"
    },
    {
      "inputs": [
        {
          "internalType": "bytes32",
          "name": "role",
          "type": "bytes32"
        },
        {
          "internalType": "address",
          "name": "account",
          "type": "address"
        }
      ],
      "name": "hasRole",
      "outputs": [
        {
          "internalType": "bool",
          "name": "",
          "type": "bool"
        }
      ],
      "stateMutability": "view",
      "type": "function"
    },
    {
      "inputs": [
        {
          "internalType": "uint256",
          "name": "dropId",
          "type": "uint256"
        },
        {
          "internalType": "uint256",
          "name": "quantity",
          "type": "uint256"
        },
        {
          "internalType": "address",
          "name": "to",
          "type": "address"
        },
        {
          "internalType": "bytes32[]",
          "name": "proof",
          "type": "bytes32[]"
        }
      ],
      "name": "mintFromDrop",
      "outputs": [],
      "stateMutability": "nonpayable",
      "type": "function"
    },
    {
      "inputs": [
        {
          "internalType": "address",
          "name": "to",
          "type": "address"
        },
        {
          "internalType": "string",
          "name": "metadataURI",
          "type": "string"
        },
        {
          "components": [
            {
              "internalType": "string",
              "name": "name",
              "type": "string"
            },
            {
              "internalType": "string",
              "name": "value",
              "type": "string"
            },
            {
              "internalType": "uint256",
              "name": "rarity",
              "type": "uint256"
            }
          ],
          "internalType": "struct AdvancedMinting.Attribute[]",
          "name": "attributes",
          "type": "tuple[]"
        }
      ],
      "name": "mintWithAttributes",
      "outputs": [],
      "stateMutability": "nonpayable",
      "type": "function"
    },
    {
      "inputs": [
        {
          "internalType": "address",
          "name": "to",
          "type": "address"
        },
        {
          "internalType": "enum AdvancedMinting.RarityLevel",
          "name": "rarity",
          "type": "uint8"
        },
        {
          "internalType": "string",
          "name": "metadataURI",
          "type": "string"
        }
      ],
      "name": "mintWithRarity",
      "outputs": [],
      "stateMutability": "nonpayable",
      "type": "function"
    },
    {
      "inputs": [
        {
          "internalType": "address",
          "name": "to",
          "type": "address"
        },
        {
          "internalType": "string",
          "name": "metadataURI",
          "type": "string"
        },
        {
          "internalType": "bytes32",
          "name": "merkleRoot",
          "type": "bytes32"
        },
        {
          "internalType": "bytes32[]",
          "name": "proof",
          "type": "bytes32[]"
        }
      ],
      "name": "mintWithWhitelist",
      "outputs": [],
      "stateMutability": "nonpayable",
      "type": "function"
    },
    {
      "inputs": [],
      "name": "nextDropId",
      "outputs": [
        {
          "internalType": "uint256",
          "name": "",
          "type": "uint256"
        }
      ],
      "stateMutability": "view",
      "type": "function"
    },
    {
      "inputs": [],
      "name": "pause",
      "outputs": [],
      "stateMutability": "nonpayable",
      "type": "function"
    },
    {
      "inputs": [],
      "name": "paused",
      "outputs": [
        {
          "internalType": "bool",
          "name": "",
          "type": "bool"
        }
      ],
      "stateMutability": "view",
      "type": "function"
    },
    {
      "inputs": [
        {
          "internalType": "enum AdvancedMinting.RarityLevel",
          "name": "",
          "type": "uint8"
        }
      ],
      "name": "rarityPricing",
      "outputs": [
        {
          "internalType": "uint256",
          "name": "",
          "type": "uint256"
        }
      ],
      "stateMutability": "view",
      "type": "function"
    },
    {
      "inputs": [
        {
          "internalType": "bytes32",
          "name": "role",
          "type": "bytes32"
        },
        {
          "internalType": "address",
          "name": "callerConfirmation",
          "type": "address"
        }
      ],
      "name": "renounceRole",
      "outputs": [],
      "stateMutability": "nonpayable",
      "type": "function"
    },
    {
      "inputs": [
        {
          "internalType": "bytes32",
          "name": "role",
          "type": "bytes32"
        },
        {
          "internalType": "address",
          "name": "account",
          "type": "address"
        }
      ],
      "name": "revokeRole",
      "outputs": [],
      "stateMutability": "nonpayable",
      "type": "function"
    },
    {
      "inputs": [
        {
          "internalType": "enum AdvancedMinting.RarityLevel",
          "name": "rarity",
          "type": "uint8"
        },
        {
          "internalType": "uint256",
          "name": "price",
          "type": "uint256"
        }
      ],
      "name": "setRarityPricing",
      "outputs": [],
      "stateMutability": "nonpayable",
      "type": "function"
    },
    {
      "inputs": [
        {
          "internalType": "bytes4",
          "name": "interfaceId",
          "type": "bytes4"
        }
      ],
      "name": "supportsInterface",
      "outputs": [
        {
          "internalType": "bool",
          "name": "",
          "type": "bool"
        }
      ],
      "stateMutability": "view",
      "type": "function"
    },
    {
      "inputs": [
        {
          "internalType": "uint256",
          "name": "",
          "type": "uint256"
        },
        {
          "internalType": "uint256",
          "name": "",
          "type": "uint256"
        }
      ],
      "name": "tokenAttributes",
      "outputs": [
        {
          "internalType": "string",
          "name": "name",
          "type": "string"
        },
        {
          "internalType": "string",
          "name": "value",
          "type": "string"
        },
        {
          "internalType": "uint256",
          "name": "rarity",
          "type": "uint256"
        }
      ],
      "stateMutability": "view",
      "type": "function"
    },
    {
      "inputs": [],
      "name": "trustToken",
      "outputs": [
        {
          "internalType": "contract IERC20",
          "name": "",
          "type": "address"
        }
      ],
      "stateMutability": "view",
      "type": "function"
    },
    {
      "inputs": [],
      "name": "unpause",
      "outputs": [],
      "stateMutability": "nonpayable",
      "type": "function"
    },
    {
      "inputs": [
        {
          "internalType": "address",
          "name": "",
          "type": "address"
        }
      ],
      "name": "whitelistClaimed",
      "outputs": [
        {
          "internalType": "bool",
          "name": "",
          "type": "bool"
        }
      ],
      "stateMutability": "view",
      "type": "function"
    },
    {
      "inputs": [
        {
          "internalType": "bytes32",
          "name": "",
          "type": "bytes32"
        }
      ],
      "name": "whitelistMerkleRoots",
      "outputs": [
        {
          "internalType": "bool",
          "name": "",
          "type": "bool"
        }
      ],
      "stateMutability": "view",
      "type": "function"
    },
    {
      "inputs": [],
      "name": "withdraw",
      "outputs": [],
      "stateMutability": "nonpayable",
      "type": "function"
    }
  ],
  "bytecode": "0x60c0346101aa57601f6128ed38819003918201601f19168301916001600160401b038311848410176101af5780849260409485528339810103126101aa57610052602061004b836101c5565b92016101c5565b600160028190556007556001600160a01b039182166080521660a052610077336101d9565b5061008133610255565b506003602052674563918244f400007f3617319a054d772f909f7c479a2cebe5066e836a939412e32403c99029b92eff55678ac7230489e800007fa15bc60c955c405d20d9149c709e2460f1c2d9a497496a7f46004d1772c3054c5568015af1d78b58c400007fc3a24b0501bd2c13a7e57f2db4369ec4c223447539fc0724a9d55ac4a06ebd4d556802b5e3af16b18800007fcbc4e5fb02c3d1de23a9f1e014b4d2ee5aeaea9505df5e855c9210bf472495af55600460005268056bc75e2d631000007f83ec6a1f0257b830b5e016457c9cf1435391bf56cc98f369a58a54fe937724655560405161259f90816102ee82396080518181816102710152818161045d01528181610a6d0152818161159f0152818161170b015261199d015260a05181610bca0152f35b600080fd5b634e487b7160e01b600052604160045260246000fd5b51906001600160a01b03821682036101aa57565b6001600160a01b03811660009081526000805160206128cd833981519152602052604090205460ff1661024f576001600160a01b031660008181526000805160206128cd83398151915260205260408120805460ff1916600117905533919060008051602061288d8339815191528180a4600190565b50600090565b6001600160a01b03811660009081526000805160206128ad833981519152602052604090205460ff1661024f576001600160a01b031660008181526000805160206128ad83398151915260205260408120805460ff191660011790553391907f241ecf16d79d0f8dbfb92cbc07fe17840425976cf0667f022fe9877caa831b089060008051602061288d8339815191529080a460019056fe6080604052600436101561001257600080fd5b60003560e01c806206f07414611dbe57806301ffc9a714611d685780631f4f5a2314611cbc5780632226152114611898578063248a9ca3146118635780632f2ff15d1461182357806336568abe146117dd5780633ccfd60b146116dd5780633f4ba83a146116745780634fdf0c42146114cf5780635c975abb146114ac5780635eb39968146113e1578063645228e4146113ad5780636787d4491461122c57806376ed5081146111fb5780638456cb59146111a257806391d1485414611155578063a217fddf14611139578063aa39321614610bf9578063ac6a258d14610bb4578063b83ca4a21461092e578063b9bd0aca146102ef578063bd770c56146102be578063ce0ef310146102a0578063d13deb2f1461025b578063d539139314610220578063d547741f146101d9578063db4bec441461019a5763ec87621c1461015a57600080fd5b346101955760003660031901126101955760206040517f241ecf16d79d0f8dbfb92cbc07fe17840425976cf0667f022fe9877caa831b088152f35b600080fd5b34610195576020366003190112610195576001600160a01b036101bb612092565b166000526005602052602060ff604060002054166040519015158152f35b346101955760403660031901126101955761021e6004356101f861207c565b9061021961021482600052600060205260016040600020015490565b612421565b6124e7565b005b346101955760003660031901126101955760206040517f9f2df0fed2c77648de5860a4cc508cd0818c85b8b8a1ab4ceeef8d981c8956a68152f35b34610195576000366003190112610195576040517f00000000000000000000000000000000000000000000000000000000000000006001600160a01b03168152602090f35b34610195576000366003190112610195576020600754604051908152f35b34610195576020366003190112610195576004356000526004602052602060ff604060002054166040519015158152f35b3461019557606036600319011261019557610308612092565b6024356001600160401b0381116101955761032790369060040161211c565b604435906001600160401b0382116101955736602383011215610195578160040135610352816120a8565b926103606040519485611ee7565b8184526024602085019260051b820101903682116101955760248101925b82841061089b575050505061039161231b565b610399612338565b3360009081527f0781d7cac9c378efa22a7481e4d4d29704a680ddf504b3bc50b517700ee11e6c60205260409020546103d49060ff166122b3565b8151156108465781518060011b908082046002149015171561083057670de0b6b3a7640000810290808204670de0b6b3a7640000149015171561083057678ac7230489e800000180678ac7230489e8000011610830576040516323b872dd60e01b8152336004820152306024820152604481019190915260208160648160006001600160a01b037f0000000000000000000000000000000000000000000000000000000000000000165af180156108245761049a916000916107f5575b50939293612254565b82516104dd602060546040518094838201964288523360601b60408401526104ca81518092878787019101611fac565b8201908382015203018084520182611ee7565b519020906000925b80518410156107ae57826000526008602052604060002092610507858361229f565b51938054680100000000000000008110156106c75761052b91600182018155611e44565b9590956107985784519586516001600160401b0381116106c75761054f8254611e76565b601f8111610750575b50602097601f82116001146106e8579781929394959697986000926106dd575b50508160011b916000199060031b1c19161781555b600181019560208101519687516001600160401b0381116106c7576105b28254611e76565b601f811161067f575b50602098601f821160011461060e57918160029492600198999a9b604095600092610603575b5050600019600383901b1c191690881b1790555b0151910155019290916104e5565b015190508c806105e1565b98601f1982169983600052816000209a60005b818110610667575092600198999a9b604095938a9383600299971061064e575b505050811b0190556105f5565b015160001960f88460031b161c191690558c8080610641565b828401518d556001909c019b60209384019301610621565b826000526020600020601f830160051c810191602084106106bd575b601f0160051c01905b8181106106b157506105bb565b600081556001016106a4565b909150819061069b565b634e487b7160e01b600052604160045260246000fd5b015190508880610578565b601f1982169883600052806000209160005b8b8110610738575083600195969798999a9b1061071f575b505050811b01815561058d565b015160001960f88460031b161c19169055888080610712565b919260206001819286850151815501940192016106fa565b826000526020600020601f830160051c8101916020841061078e575b601f0160051c01905b8181106107825750610558565b60008155600101610775565b909150819061076c565b634e487b7160e01b600052600060045260246000fd5b6040516001600160a01b03909216917f44ad9afbae81837c728691c2c95082c85902fb8efbe57b5deb8cc7537ba436209181906107eb9082611ff4565b0390a36001600255005b610817915060203d60201161081d575b61080f8183611ee7565b81019061223c565b85610491565b503d610805565b6040513d6000823e3d90fd5b634e487b7160e01b600052601160045260246000fd5b60405162461bcd60e51b815260206004820152602760248201527f416476616e6365644d696e74696e673a206e6f206174747269627574657320706044820152661c9bdd9a59195960ca1b6064820152608490fd5b83356001600160401b0381116101955782016060602319823603011261019557604051916108c883611eb0565b60248201356001600160401b038111610195576108eb906024369185010161211c565b83526044820135926001600160401b0384116101955760646020949361091886956024369184010161211c565b858401520135604082015281520193019261037e565b3461019557608036600319011261019557610947612092565b6024356001600160401b0381116101955761096690369060040161211c565b90604435916064356001600160401b0381116101955761098a9036906004016120bf565b9061099361231b565b61099b612338565b3360009081527f0781d7cac9c378efa22a7481e4d4d29704a680ddf504b3bc50b517700ee11e6c60205260409020546109d69060ff166122b3565b83600052600460205260ff6040600020541615610b6357336000526005602052610a0860ff60406000205416156121a5565b610a3c610a376040519386602086013360601b9687825260148152610a2e603482611ee7565b51902091612358565b6121f0565b6040516323b872dd60e01b8152336004820152306024820152674563918244f40000604482015260208160648160007f00000000000000000000000000000000000000000000000000000000000000006001600160a01b03165af1801561082457610aaf91600091610b44575b50612254565b610af06074604051809360208201954287526040830152876054830152610adf8151809260208686019101611fac565b81010301601f198101835282611ee7565b519020336000908152600560205260408120805460ff1916600117905590916001600160a01b0316907fcff362e52930d3322a05ffce51d1ed9f7eaf573981418a19ecbf6e4d820d3ea89080a46001600255005b610b5d915060203d60201161081d5761080f8183611ee7565b86610aa9565b60405162461bcd60e51b8152602060048201526024808201527f416476616e6365644d696e74696e673a20696e76616c6964206d65726b6c65206044820152631c9bdbdd60e21b6064820152608490fd5b34610195576000366003190112610195576040517f00000000000000000000000000000000000000000000000000000000000000006001600160a01b03168152602090f35b3461019557610100366003190112610195576004356001600160401b03811161019557610c2a90369060040161211c565b6024356001600160401b03811161019557610c4990369060040161211c565b6064359060a435608435600560c435101561019557610c666123af565b604435156110e6578181101561109557831561104457600754936000198514610830576001850160075560405193610c9d85611ecb565b8685526020850152604435604085015260006060850152608084015260a083015260c0820152600160e0820152610cda60c435610100830161230f565b60e43561012082015281600052600660205260406000209281518051906001600160401b0382116106c7578190610d118754611e76565b601f8111610ff4575b50602090601f8311600114610f8957600092610f7e575b50508160011b916000199060031b1c19161784555b60208201518051906001600160401b0382116106c7578190610d6b6001880154611e76565b601f8111610f2b575b50602090601f8311600114610eba57600092610eaf575b50508160011b916000199060031b1c19161760018501555b60408201516002850155606082015160038501556080820151600485015560a0820151600585015560c08201516006850155600784019060e0830151151560ff80198454169116178255610100830151946005861015610e995760086101207f9e2fc96472e36d1e256e64d241449a7aef33402b71b602694f21f178fe9e7d8f95610e5e9560009961ff00825491861b169061ff001916179055015191015560e435610e7b575b604051918291606083526060830190611fcf565b610e6d6020830160c435612172565b60443560408301520390a280f35b60e4358552600460205260408520805460ff19166001179055610e4a565b634e487b7160e01b600052602160045260246000fd5b015190508680610d8b565b92506001870160005280600020906000935b601f1984168510610f10576001945083601f19811610610ef7575b505050811b016001850155610da3565b015160001960f88460031b161c19169055868080610ee7565b81810151835560209485019460019093019290910190610ecc565b909150600187016000526020600020601f840160051c810160208510610f77575b90849392915b601f830160051c82018110610f68575050610d74565b60008155859450600101610f52565b5080610f4c565b015190508680610d31565b92508660005280600020906000935b601f1984168510610fd9576001945083601f19811610610fc0575b505050811b018455610d46565b015160001960f88460031b161c19169055868080610fb3565b81810151835560209485019460019093019290910190610f98565b909150866000526020600020601f840160051c81016020851061103d575b90849392915b601f830160051c8201811061102e575050610d1a565b60008155859450600101611018565b5080611012565b60405162461bcd60e51b815260206004820152602360248201527f416476616e6365644d696e74696e673a20696e76616c6964206d696e7420707260448201526269636560e81b6064820152608490fd5b60405162461bcd60e51b815260206004820152602360248201527f416476616e6365644d696e74696e673a20696e76616c69642074696d652072616044820152626e676560e81b6064820152608490fd5b60405162461bcd60e51b815260206004820152602560248201527f416476616e6365644d696e74696e673a20696e76616c696420746f74616c20736044820152647570706c7960d81b6064820152608490fd5b3461019557600036600319011261019557602060405160008152f35b346101955760403660031901126101955761116e61207c565b600435600052600060205260406000209060018060a01b0316600052602052602060ff604060002054166040519015158152f35b34610195576000366003190112610195576111bb6123af565b6111c361231b565b600160ff19815416176001557f62e78cea01bee320cd4e420270b5ea74000d11b0c9f74754ebdbfc544b05a2586020604051338152a1005b346101955760203660031901126101955760043560058110156101955761122360209161217f565b54604051908152f35b3461019557602036600319011261019557600061012060405161124e81611ecb565b60608152606060208201528260408201528260608201528260808201528260a08201528260c08201528260e082015282610100820152015260043560005260066020526101606040600020604051906112a682611ecb565b6112af81611f08565b82526112bd60018201611f08565b602083019081526113a2600283015492604085019384528460038201546060820190815260048301546080830190815260058401549060a0840191825260068501549260c0850193845261136e600860078801549761133160ff61010060e08b019a828d1615158c52019a841c168a61230f565b0154986101208c01998a5261135b604051809e819e60208352519161014060208201520190611fcf565b90518c8203601f190160408e0152611fcf565b985160608b01525160808a01525160a08901525160c08801525160e087015251151561010086015251610120850190612172565b516101408301520390f35b34610195576040366003190112610195576004356005811015610195576113d26123af565b6113de6024359161217f565b55005b3461019557602036600319011261019557600435600052600660205261145e604060002061140e81611f08565b9061141b60018201611f08565b6114a26002830154926003810154600482015460058301549060068401549261146c60086007870154960154976040519b8c9b6101408d526101408d0190611fcf565b908b820360208d0152611fcf565b9760408a01526060890152608088015260a087015260c086015260ff8116151560e086015260ff61010086019160081c16612172565b6101208301520390f35b3461019557600036600319011261019557602060ff600154166040519015158152f35b34610195576060366003190112610195576114e8612092565b6024356005811015610195576044356001600160401b0381116101955761151390369060040161211c565b9161151c61231b565b611524612338565b3360009081527f0781d7cac9c378efa22a7481e4d4d29704a680ddf504b3bc50b517700ee11e6c602052604090205461155f9060ff166122b3565b6115688261217f565b546040516323b872dd60e01b8152336004820152306024820152604481018290529093909160208360648160006001600160a01b037f0000000000000000000000000000000000000000000000000000000000000000165af1918215610824576115fd6040937f8d08209a98caac47a39731c0069e6c3816f69d609762fcad0a5f7aa3ff9ab9c5956000916116555750612254565b825161162e60748260208101944286523360601b88830152896054830152610adf8151809260208686019101611fac565b5190209461163e83518096612172565b60208501526001600160a01b031692a36001600255005b61166e915060203d60201161081d5761080f8183611ee7565b88610aa9565b346101955760003660031901126101955761168d6123af565b60015460ff8116156116cc5760ff19166001557f5db9ee0a495bf2e6ff9c91a7834c1ba4fdd244a5e8aa4e537bd38aeae4b073aa6020604051338152a1005b638dfc202b60e01b60005260046000fd5b34610195576000366003190112610195576116f66123af565b6040516370a0823160e01b81523060048201527f00000000000000000000000000000000000000000000000000000000000000006001600160a01b031690602081602481855afa908115610824576000916117aa575b506000916044602092604051948593849263a9059cbb60e01b845233600485015260248401525af180156108245761021e9160009161178b5750612254565b6117a4915060203d60201161081d5761080f8183611ee7565b82610aa9565b90506020813d6020116117d5575b816117c560209383611ee7565b810103126101955751600061174c565b3d91506117b8565b34610195576040366003190112610195576117f661207c565b336001600160a01b038216036118125761021e906004356124e7565b63334bd91960e11b60005260046000fd5b346101955760403660031901126101955761021e60043561184261207c565b9061185e61021482600052600060205260016040600020015490565b61245c565b34610195576020366003190112610195576020611890600435600052600060205260016040600020015490565b604051908152f35b34610195576080366003190112610195576024356044356001600160a01b0381169060043590829003610195576064356001600160401b038111610195576118e49036906004016120bf565b926118ed61231b565b6118f5612338565b81600052600660205260406000209360ff60078601541615611c785760058501544210611c295760068501544211611be4576003850194611937838754612198565b600282015410611b91578215611b4257600491600882015480611ae2575b5050015481810290808204831490151715610830576040516323b872dd60e01b8152336004820152306024820152604481019190915260208160648160006001600160a01b037f0000000000000000000000000000000000000000000000000000000000000000165af18015610824576119d691600091610b445750612254565b6119df816120a8565b906119ed6040519283611ee7565b8082526119f9816120a8565b602083019590601f19013687378054823360601b60005b828110611a91575050611a2291612198565b9055604051916040830190604084525180915260608301959060005b818110611a7b5750505060208201527fe5e4e35e3b8af19f9aa9e48645e612e7327ab4e622d7ba0d82f4d450957965ad9080850390a36001600255005b8251885260209788019790920191600101611a3e565b6001919250611aa08185612198565b60405160208101918a8352604082015242606082015284608082015260748152611acb609482611ee7565b519020611ad8828961229f565b5201908491611a10565b611b2291610a3791336000526005602052611b0560ff60406000205416156121a5565b60405160208101903360601b825260148152610a2e603482611ee7565b3360005260056020526040600020600160ff198254161790558680611955565b60405162461bcd60e51b815260206004820152602160248201527f416476616e6365644d696e74696e673a20696e76616c6964207175616e7469746044820152607960f81b6064820152608490fd5b60405162461bcd60e51b815260206004820152602560248201527f416476616e6365644d696e74696e673a206578636565647320746f74616c20736044820152647570706c7960d81b6064820152608490fd5b60405162461bcd60e51b815260206004820152601b60248201527f416476616e6365644d696e74696e673a2064726f7020656e64656400000000006044820152606490fd5b60405162461bcd60e51b815260206004820152602160248201527f416476616e6365644d696e74696e673a2064726f70206e6f74207374617274656044820152601960fa1b6064820152608490fd5b606460405162461bcd60e51b815260206004820152602060248201527f416476616e6365644d696e74696e673a2064726f70206e6f74206163746976656044820152fd5b3461019557602036600319011261019557600435600052600860205260406000208054611ce8816120a8565b91611cf66040519384611ee7565b818352602083019060005260206000206000915b838310611d235760405180611d1f8782611ff4565b0390f35b60036020600192604051611d3681611eb0565b611d3f86611f08565b8152611d4c858701611f08565b8382015260028601546040820152815201920192019190611d0a565b346101955760203660031901126101955760043563ffffffff60e01b811680910361019557602090637965db0b60e01b8114908115611dad575b506040519015158152f35b6301ffc9a760e01b14905082611da2565b346101955760403660031901126101955760243560043560005260086020526040600020805482101561019557611e2c91611df891611e44565b50611e0281611f08565b90611e3a6002611e1460018401611f08565b92015491604051948594606086526060860190611fcf565b908482036020860152611fcf565b9060408301520390f35b8054821015611e60576000526003602060002091020190600090565b634e487b7160e01b600052603260045260246000fd5b90600182811c92168015611ea6575b6020831014611e9057565b634e487b7160e01b600052602260045260246000fd5b91607f1691611e85565b606081019081106001600160401b038211176106c757604052565b61014081019081106001600160401b038211176106c757604052565b90601f801991011681019081106001600160401b038211176106c757604052565b9060405191826000825492611f1c84611e76565b8084529360018116908115611f8a5750600114611f43575b50611f4192500383611ee7565b565b90506000929192526020600020906000915b818310611f6e575050906020611f419282010138611f34565b6020919350806001915483858901015201910190918492611f55565b905060209250611f4194915060ff191682840152151560051b82010138611f34565b60005b838110611fbf5750506000910152565b8181015183820152602001611faf565b90602091611fe881518092818552858086019101611fac565b601f01601f1916010190565b602081016020825282518091526040820191602060408360051b8301019401926000915b83831061202757505050505090565b9091929394602080600192603f198582030186528851906040806120676120578551606086526060860190611fcf565b8686015185820388870152611fcf565b93015191015297019301930191939290612018565b602435906001600160a01b038216820361019557565b600435906001600160a01b038216820361019557565b6001600160401b0381116106c75760051b60200190565b9080601f830112156101955781356120d6816120a8565b926120e46040519485611ee7565b81845260208085019260051b82010192831161019557602001905b82821061210c5750505090565b81358152602091820191016120ff565b81601f82011215610195578035906001600160401b0382116106c75760405192612150601f8401601f191660200185611ee7565b8284526020838301011161019557816000926020809301838601378301015290565b906005821015610e995752565b6005811015610e99576000526003602052604060002090565b9190820180921161083057565b156121ac57565b606460405162461bcd60e51b815260206004820152602060248201527f416476616e6365644d696e74696e673a20616c726561647920636c61696d65646044820152fd5b156121f757565b60405162461bcd60e51b815260206004820152601e60248201527f416476616e6365644d696e74696e673a20696e76616c69642070726f6f6600006044820152606490fd5b90816020910312610195575180151581036101955790565b1561225b57565b606460405162461bcd60e51b815260206004820152602060248201527f416476616e6365644d696e74696e673a207472616e73666572206661696c65646044820152fd5b8051821015611e605760209160051b010190565b156122ba57565b60405162461bcd60e51b815260206004820152602760248201527f416476616e6365644d696e74696e673a2063616c6c6572206973206e6f7420616044820152661036b4b73a32b960c91b6064820152608490fd5b6005821015610e995752565b60ff6001541661232757565b63d93c066560e01b60005260046000fd5b60028054146123475760028055565b633ee5aeb560e01b60005260046000fd5b929091906000915b84518310156123a757612373838661229f565b51906000828210156123965750600052602052600160406000205b920191612360565b60409160019382526020522061238e565b915092501490565b3360009081527fe84508f2c7fa9c351146748b3025cb78b45df37d868e48c6a75102fecdeee645602052604090205460ff16156123e857565b63e2517d3f60e01b600052336004527f241ecf16d79d0f8dbfb92cbc07fe17840425976cf0667f022fe9877caa831b0860245260446000fd5b60008181526020818152604080832033845290915290205460ff16156124445750565b63e2517d3f60e01b6000523360045260245260446000fd5b6000818152602081815260408083206001600160a01b038616845290915290205460ff166124e0576000818152602081815260408083206001600160a01b0395909516808452949091528120805460ff19166001179055339291907f2f8788117e7eff1d82e926ec794901d17c78024a50270940304540a733656f0d9080a4600190565b5050600090565b6000818152602081815260408083206001600160a01b038616845290915290205460ff16156124e0576000818152602081815260408083206001600160a01b0395909516808452949091528120805460ff19169055339291907ff6391f5c32d9c69d2a47ea670b442974b53935d1edc7fd64eb21e047a839171b9080a460019056fea2646970667358221220e65cd2a1742108d57be588b7a28eb20773bc00e07292ff00459dd132064514b964736f6c634300081c00332f8788117e7eff1d82e926ec794901d17c78024a50270940304540a733656f0de84508f2c7fa9c351146748b3025cb78b45df37d868e48c6a75102fecdeee645ad3228b676f7d3cd4284a5443f17f1962b36e491b30a40b2405849e597ba5fb5",
  "linkReferences": {},
  "deployedLinkReferences": {}
}