{
  "_format": "hh-sol-artifact-1",
  "contractName": "AttestorVerificationSystem",
  "sourceName": "contracts/AttestorVerificationSystem.sol",
  "abi": [
    {
      "inputs": [
        {
          "internalType": "address",
          "name": "_feeRecipient",
          "type": "address"
        },
        {
          "internalType": "address",
          "name": "_trustToken",
          "type": "address"
        }
      ],
      "stateMutability": "nonpayable",
      "type": "constructor"
    },
    {
      "inputs": [],
      "name": "AccessControlBadConfirmation",
      "type": "error"
    },
    {
      "inputs": [
        {
          "internalType": "address",
          "name": "account",
          "type": "address"
        },
        {
          "internalType": "bytes32",
          "name": "neededRole",
          "type": "bytes32"
        }
      ],
      "name": "AccessControlUnauthorizedAccount",
      "type": "error"
    },
    {
      "inputs": [],
      "name": "EnforcedPause",
      "type": "error"
    },
    {
      "inputs": [],
      "name": "ExpectedPause",
      "type": "error"
    },
    {
      "inputs": [],
      "name": "ReentrancyGuardReentrantCall",
      "type": "error"
    },
    {
      "anonymous": false,
      "inputs": [
        {
          "indexed": true,
          "internalType": "address",
          "name": "attestor",
          "type": "address"
        },
        {
          "indexed": false,
          "internalType": "enum AttestorVerificationSystem.AttestorTier",
          "name": "tier",
          "type": "uint8"
        },
        {
          "indexed": false,
          "internalType": "uint256",
          "name": "stakedAmount",
          "type": "uint256"
        }
      ],
      "name": "AttestorRegistered",
      "type": "event"
    },
    {
      "anonymous": false,
      "inputs": [
        {
          "indexed": true,
          "internalType": "address",
          "name": "attestor",
          "type": "address"
        },
        {
          "indexed": false,
          "internalType": "enum AttestorVerificationSystem.VerificationStatus",
          "name": "status",
          "type": "uint8"
        }
      ],
      "name": "AttestorStatusUpdated",
      "type": "event"
    },
    {
      "anonymous": false,
      "inputs": [
        {
          "indexed": true,
          "internalType": "address",
          "name": "attestor",
          "type": "address"
        },
        {
          "indexed": false,
          "internalType": "enum AttestorVerificationSystem.AttestorTier",
          "name": "fromTier",
          "type": "uint8"
        },
        {
          "indexed": false,
          "internalType": "enum AttestorVerificationSystem.AttestorTier",
          "name": "toTier",
          "type": "uint8"
        },
        {
          "indexed": false,
          "internalType": "uint256",
          "name": "additionalStake",
          "type": "uint256"
        },
        {
          "indexed": false,
          "internalType": "uint256",
          "name": "upgradeFee",
          "type": "uint256"
        }
      ],
      "name": "AttestorUpgraded",
      "type": "event"
    },
    {
      "anonymous": false,
      "inputs": [
        {
          "indexed": false,
          "internalType": "address",
          "name": "account",
          "type": "address"
        }
      ],
      "name": "Paused",
      "type": "event"
    },
    {
      "anonymous": false,
      "inputs": [
        {
          "indexed": true,
          "internalType": "bytes32",
          "name": "role",
          "type": "bytes32"
        },
        {
          "indexed": true,
          "internalType": "bytes32",
          "name": "previousAdminRole",
          "type": "bytes32"
        },
        {
          "indexed": true,
          "internalType": "bytes32",
          "name": "newAdminRole",
          "type": "bytes32"
        }
      ],
      "name": "RoleAdminChanged",
      "type": "event"
    },
    {
      "anonymous": false,
      "inputs": [
        {
          "indexed": true,
          "internalType": "bytes32",
          "name": "role",
          "type": "bytes32"
        },
        {
          "indexed": true,
          "internalType": "address",
          "name": "account",
          "type": "address"
        },
        {
          "indexed": true,
          "internalType": "address",
          "name": "sender",
          "type": "address"
        }
      ],
      "name": "RoleGranted",
      "type": "event"
    },
    {
      "anonymous": false,
      "inputs": [
        {
          "indexed": true,
          "internalType": "bytes32",
          "name": "role",
          "type": "bytes32"
        },
        {
          "indexed": true,
          "internalType": "address",
          "name": "account",
          "type": "address"
        },
        {
          "indexed": true,
          "internalType": "address",
          "name": "sender",
          "type": "address"
        }
      ],
      "name": "RoleRevoked",
      "type": "event"
    },
    {
      "anonymous": false,
      "inputs": [
        {
          "indexed": true,
          "internalType": "address",
          "name": "attestor",
          "type": "address"
        },
        {
          "indexed": false,
          "internalType": "uint256",
          "name": "amount",
          "type": "uint256"
        }
      ],
      "name": "StakeWithdrawn",
      "type": "event"
    },
    {
      "anonymous": false,
      "inputs": [
        {
          "indexed": false,
          "internalType": "enum AttestorVerificationSystem.AttestorTier",
          "name": "tier",
          "type": "uint8"
        },
        {
          "components": [
            {
              "internalType": "uint256",
              "name": "stakingRequirement",
              "type": "uint256"
            },
            {
              "internalType": "uint256",
              "name": "registrationFee",
              "type": "uint256"
            },
            {
              "internalType": "uint256",
              "name": "experienceRequirement",
              "type": "uint256"
            },
            {
              "internalType": "string[]",
              "name": "requiredDocuments",
              "type": "string[]"
            }
          ],
          "indexed": false,
          "internalType": "struct AttestorVerificationSystem.TierRequirements",
          "name": "requirements",
          "type": "tuple"
        }
      ],
      "name": "TierRequirementsUpdated",
      "type": "event"
    },
    {
      "anonymous": false,
      "inputs": [
        {
          "indexed": false,
          "internalType": "address",
          "name": "account",
          "type": "address"
        }
      ],
      "name": "Unpaused",
      "type": "event"
    },
    {
      "anonymous": false,
      "inputs": [
        {
          "indexed": true,
          "internalType": "bytes32",
          "name": "requestId",
          "type": "bytes32"
        },
        {
          "indexed": false,
          "internalType": "enum AttestorVerificationSystem.VerificationStatus",
          "name": "status",
          "type": "uint8"
        },
        {
          "indexed": true,
          "internalType": "address",
          "name": "attestor",
          "type": "address"
        }
      ],
      "name": "VerificationCompleted",
      "type": "event"
    },
    {
      "anonymous": false,
      "inputs": [
        {
          "indexed": true,
          "internalType": "bytes32",
          "name": "requestId",
          "type": "bytes32"
        },
        {
          "indexed": true,
          "internalType": "address",
          "name": "assetOwner",
          "type": "address"
        },
        {
          "indexed": true,
          "internalType": "bytes32",
          "name": "assetId",
          "type": "bytes32"
        },
        {
          "indexed": false,
          "internalType": "uint8",
          "name": "requiredType",
          "type": "uint8"
        },
        {
          "indexed": false,
          "internalType": "uint256",
          "name": "requestedAt",
          "type": "uint256"
        },
        {
          "indexed": false,
          "internalType": "uint256",
          "name": "deadline",
          "type": "uint256"
        },
        {
          "indexed": false,
          "internalType": "uint256",
          "name": "fee",
          "type": "uint256"
        }
      ],
      "name": "VerificationRequested",
      "type": "event"
    },
    {
      "inputs": [],
      "name": "ATTESTOR_ROLE",
      "outputs": [
        {
          "internalType": "bytes32",
          "name": "",
          "type": "bytes32"
        }
      ],
      "stateMutability": "view",
      "type": "function"
    },
    {
      "inputs": [],
      "name": "DEFAULT_ADMIN_ROLE",
      "outputs": [
        {
          "internalType": "bytes32",
          "name": "",
          "type": "bytes32"
        }
      ],
      "stateMutability": "view",
      "type": "function"
    },
    {
      "inputs": [],
      "name": "VERIFIER_ROLE",
      "outputs": [
        {
          "internalType": "bytes32",
          "name": "",
          "type": "bytes32"
        }
      ],
      "stateMutability": "view",
      "type": "function"
    },
    {
      "inputs": [],
      "name": "activeVerificationRequests",
      "outputs": [
        {
          "internalType": "uint256",
          "name": "",
          "type": "uint256"
        }
      ],
      "stateMutability": "view",
      "type": "function"
    },
    {
      "inputs": [
        {
          "internalType": "uint256",
          "name": "",
          "type": "uint256"
        }
      ],
      "name": "allVerificationRequestIds",
      "outputs": [
        {
          "internalType": "bytes32",
          "name": "",
          "type": "bytes32"
        }
      ],
      "stateMutability": "view",
      "type": "function"
    },
    {
      "inputs": [
        {
          "internalType": "bytes32",
          "name": "_requestId",
          "type": "bytes32"
        },
        {
          "internalType": "string",
          "name": "_comments",
          "type": "string"
        }
      ],
      "name": "approveVerification",
      "outputs": [],
      "stateMutability": "nonpayable",
      "type": "function"
    },
    {
      "inputs": [
        {
          "internalType": "address",
          "name": "",
          "type": "address"
        }
      ],
      "name": "attestorProfiles",
      "outputs": [
        {
          "internalType": "address",
          "name": "attestorAddress",
          "type": "address"
        },
        {
          "internalType": "string",
          "name": "name",
          "type": "string"
        },
        {
          "internalType": "string",
          "name": "organization",
          "type": "string"
        },
        {
          "internalType": "enum AttestorVerificationSystem.AttestorType",
          "name": "attestorType",
          "type": "uint8"
        },
        {
          "internalType": "enum AttestorVerificationSystem.AttestorTier",
          "name": "tier",
          "type": "uint8"
        },
        {
          "internalType": "uint256",
          "name": "experienceYears",
          "type": "uint256"
        },
        {
          "internalType": "uint256",
          "name": "totalVerifications",
          "type": "uint256"
        },
        {
          "internalType": "uint256",
          "name": "successfulVerifications",
          "type": "uint256"
        },
        {
          "internalType": "uint256",
          "name": "failedVerifications",
          "type": "uint256"
        },
        {
          "internalType": "uint256",
          "name": "reputationScore",
          "type": "uint256"
        },
        {
          "internalType": "uint256",
          "name": "stakedAmount",
          "type": "uint256"
        },
        {
          "internalType": "uint256",
          "name": "registrationFee",
          "type": "uint256"
        },
        {
          "internalType": "enum AttestorVerificationSystem.VerificationStatus",
          "name": "status",
          "type": "uint8"
        },
        {
          "internalType": "bool",
          "name": "isActive",
          "type": "bool"
        },
        {
          "internalType": "uint256",
          "name": "createdAt",
          "type": "uint256"
        },
        {
          "internalType": "uint256",
          "name": "lastActivity",
          "type": "uint256"
        },
        {
          "internalType": "string",
          "name": "contactInfo",
          "type": "string"
        },
        {
          "internalType": "string",
          "name": "credentials",
          "type": "string"
        },
        {
          "internalType": "string",
          "name": "reviewerNotes",
          "type": "string"
        }
      ],
      "stateMutability": "view",
      "type": "function"
    },
    {
      "inputs": [
        {
          "internalType": "uint256",
          "name": "",
          "type": "uint256"
        }
      ],
      "name": "attestors",
      "outputs": [
        {
          "internalType": "address",
          "name": "",
          "type": "address"
        }
      ],
      "stateMutability": "view",
      "type": "function"
    },
    {
      "inputs": [],
      "name": "feeRecipient",
      "outputs": [
        {
          "internalType": "address",
          "name": "",
          "type": "address"
        }
      ],
      "stateMutability": "view",
      "type": "function"
    },
    {
      "inputs": [],
      "name": "getAllAttestors",
      "outputs": [
        {
          "internalType": "address[]",
          "name": "",
          "type": "address[]"
        }
      ],
      "stateMutability": "view",
      "type": "function"
    },
    {
      "inputs": [],
      "name": "getAllVerificationRequests",
      "outputs": [
        {
          "components": [
            {
              "internalType": "bytes32",
              "name": "requestId",
              "type": "bytes32"
            },
            {
              "internalType": "address",
              "name": "assetOwner",
              "type": "address"
            },
            {
              "internalType": "bytes32",
              "name": "assetId",
              "type": "bytes32"
            },
            {
              "internalType": "uint8",
              "name": "requiredType",
              "type": "uint8"
            },
            {
              "internalType": "string[]",
              "name": "evidenceHashes",
              "type": "string[]"
            },
            {
              "internalType": "string[]",
              "name": "documentTypes",
              "type": "string[]"
            },
            {
              "internalType": "uint256",
              "name": "requestedAt",
              "type": "uint256"
            },
            {
              "internalType": "uint256",
              "name": "deadline",
              "type": "uint256"
            },
            {
              "internalType": "enum AttestorVerificationSystem.VerificationStatus",
              "name": "status",
              "type": "uint8"
            },
            {
              "internalType": "string",
              "name": "comments",
              "type": "string"
            },
            {
              "internalType": "uint256",
              "name": "fee",
              "type": "uint256"
            },
            {
              "internalType": "address",
              "name": "assignedAttestor",
              "type": "address"
            }
          ],
          "internalType": "struct AttestorVerificationSystem.VerificationRequest[]",
          "name": "",
          "type": "tuple[]"
        }
      ],
      "stateMutability": "view",
      "type": "function"
    },
    {
      "inputs": [
        {
          "internalType": "address",
          "name": "attestor",
          "type": "address"
        }
      ],
      "name": "getAttestorProfile",
      "outputs": [
        {
          "components": [
            {
              "internalType": "address",
              "name": "attestorAddress",
              "type": "address"
            },
            {
              "internalType": "string",
              "name": "name",
              "type": "string"
            },
            {
              "internalType": "string",
              "name": "organization",
              "type": "string"
            },
            {
              "internalType": "enum AttestorVerificationSystem.AttestorType",
              "name": "attestorType",
              "type": "uint8"
            },
            {
              "internalType": "enum AttestorVerificationSystem.AttestorTier",
              "name": "tier",
              "type": "uint8"
            },
            {
              "internalType": "string[]",
              "name": "specializations",
              "type": "string[]"
            },
            {
              "internalType": "string[]",
              "name": "countries",
              "type": "string[]"
            },
            {
              "internalType": "uint256",
              "name": "experienceYears",
              "type": "uint256"
            },
            {
              "internalType": "uint256",
              "name": "totalVerifications",
              "type": "uint256"
            },
            {
              "internalType": "uint256",
              "name": "successfulVerifications",
              "type": "uint256"
            },
            {
              "internalType": "uint256",
              "name": "failedVerifications",
              "type": "uint256"
            },
            {
              "internalType": "uint256",
              "name": "reputationScore",
              "type": "uint256"
            },
            {
              "internalType": "uint256",
              "name": "stakedAmount",
              "type": "uint256"
            },
            {
              "internalType": "uint256",
              "name": "registrationFee",
              "type": "uint256"
            },
            {
              "internalType": "string[]",
              "name": "requiredDocuments",
              "type": "string[]"
            },
            {
              "internalType": "string[]",
              "name": "uploadedDocuments",
              "type": "string[]"
            },
            {
              "internalType": "enum AttestorVerificationSystem.VerificationStatus",
              "name": "status",
              "type": "uint8"
            },
            {
              "internalType": "bool",
              "name": "isActive",
              "type": "bool"
            },
            {
              "internalType": "uint256",
              "name": "createdAt",
              "type": "uint256"
            },
            {
              "internalType": "uint256",
              "name": "lastActivity",
              "type": "uint256"
            },
            {
              "internalType": "string",
              "name": "contactInfo",
              "type": "string"
            },
            {
              "internalType": "string",
              "name": "credentials",
              "type": "string"
            },
            {
              "internalType": "string",
              "name": "reviewerNotes",
              "type": "string"
            }
          ],
          "internalType": "struct AttestorVerificationSystem.AttestorProfile",
          "name": "",
          "type": "tuple"
        }
      ],
      "stateMutability": "view",
      "type": "function"
    },
    {
      "inputs": [
        {
          "internalType": "address",
          "name": "attestor",
          "type": "address"
        }
      ],
      "name": "getAttestorStake",
      "outputs": [
        {
          "internalType": "uint256",
          "name": "",
          "type": "uint256"
        }
      ],
      "stateMutability": "view",
      "type": "function"
    },
    {
      "inputs": [
        {
          "internalType": "address",
          "name": "attestor",
          "type": "address"
        }
      ],
      "name": "getAttestorStatus",
      "outputs": [
        {
          "internalType": "enum AttestorVerificationSystem.VerificationStatus",
          "name": "",
          "type": "uint8"
        }
      ],
      "stateMutability": "view",
      "type": "function"
    },
    {
      "inputs": [
        {
          "internalType": "address",
          "name": "attestor",
          "type": "address"
        }
      ],
      "name": "getAttestorTier",
      "outputs": [
        {
          "internalType": "enum AttestorVerificationSystem.AttestorTier",
          "name": "",
          "type": "uint8"
        }
      ],
      "stateMutability": "view",
      "type": "function"
    },
    {
      "inputs": [
        {
          "internalType": "string",
          "name": "country",
          "type": "string"
        }
      ],
      "name": "getAttestorsByCountry",
      "outputs": [
        {
          "internalType": "address[]",
          "name": "",
          "type": "address[]"
        }
      ],
      "stateMutability": "view",
      "type": "function"
    },
    {
      "inputs": [
        {
          "internalType": "enum AttestorVerificationSystem.AttestorTier",
          "name": "tier",
          "type": "uint8"
        }
      ],
      "name": "getAttestorsByTier",
      "outputs": [
        {
          "internalType": "address[]",
          "name": "",
          "type": "address[]"
        }
      ],
      "stateMutability": "view",
      "type": "function"
    },
    {
      "inputs": [
        {
          "internalType": "enum AttestorVerificationSystem.AttestorType",
          "name": "attestorType",
          "type": "uint8"
        }
      ],
      "name": "getAttestorsByType",
      "outputs": [
        {
          "internalType": "address[]",
          "name": "",
          "type": "address[]"
        }
      ],
      "stateMutability": "view",
      "type": "function"
    },
    {
      "inputs": [
        {
          "internalType": "bytes32",
          "name": "role",
          "type": "bytes32"
        }
      ],
      "name": "getRoleAdmin",
      "outputs": [
        {
          "internalType": "bytes32",
          "name": "",
          "type": "bytes32"
        }
      ],
      "stateMutability": "view",
      "type": "function"
    },
    {
      "inputs": [
        {
          "internalType": "enum AttestorVerificationSystem.AttestorTier",
          "name": "tier",
          "type": "uint8"
        }
      ],
      "name": "getTierRequirements",
      "outputs": [
        {
          "components": [
            {
              "internalType": "uint256",
              "name": "stakingRequirement",
              "type": "uint256"
            },
            {
              "internalType": "uint256",
              "name": "registrationFee",
              "type": "uint256"
            },
            {
              "internalType": "uint256",
              "name": "experienceRequirement",
              "type": "uint256"
            },
            {
              "internalType": "string[]",
              "name": "requiredDocuments",
              "type": "string[]"
            }
          ],
          "internalType": "struct AttestorVerificationSystem.TierRequirements",
          "name": "",
          "type": "tuple"
        }
      ],
      "stateMutability": "view",
      "type": "function"
    },
    {
      "inputs": [],
      "name": "getTotalAttestors",
      "outputs": [
        {
          "internalType": "uint256",
          "name": "",
          "type": "uint256"
        }
      ],
      "stateMutability": "view",
      "type": "function"
    },
    {
      "inputs": [],
      "name": "getTotalVerificationRequests",
      "outputs": [
        {
          "internalType": "uint256",
          "name": "",
          "type": "uint256"
        }
      ],
      "stateMutability": "view",
      "type": "function"
    },
    {
      "inputs": [
        {
          "internalType": "address",
          "name": "user",
          "type": "address"
        }
      ],
      "name": "getUserRequests",
      "outputs": [
        {
          "internalType": "bytes32[]",
          "name": "",
          "type": "bytes32[]"
        }
      ],
      "stateMutability": "view",
      "type": "function"
    },
    {
      "inputs": [
        {
          "internalType": "bytes32",
          "name": "requestId",
          "type": "bytes32"
        }
      ],
      "name": "getVerificationRequest",
      "outputs": [
        {
          "components": [
            {
              "internalType": "bytes32",
              "name": "requestId",
              "type": "bytes32"
            },
            {
              "internalType": "address",
              "name": "assetOwner",
              "type": "address"
            },
            {
              "internalType": "bytes32",
              "name": "assetId",
              "type": "bytes32"
            },
            {
              "internalType": "uint8",
              "name": "requiredType",
              "type": "uint8"
            },
            {
              "internalType": "string[]",
              "name": "evidenceHashes",
              "type": "string[]"
            },
            {
              "internalType": "string[]",
              "name": "documentTypes",
              "type": "string[]"
            },
            {
              "internalType": "uint256",
              "name": "requestedAt",
              "type": "uint256"
            },
            {
              "internalType": "uint256",
              "name": "deadline",
              "type": "uint256"
            },
            {
              "internalType": "enum AttestorVerificationSystem.VerificationStatus",
              "name": "status",
              "type": "uint8"
            },
            {
              "internalType": "string",
              "name": "comments",
              "type": "string"
            },
            {
              "internalType": "uint256",
              "name": "fee",
              "type": "uint256"
            },
            {
              "internalType": "address",
              "name": "assignedAttestor",
              "type": "address"
            }
          ],
          "internalType": "struct AttestorVerificationSystem.VerificationRequest",
          "name": "",
          "type": "tuple"
        }
      ],
      "stateMutability": "view",
      "type": "function"
    },
    {
      "inputs": [
        {
          "internalType": "bytes32",
          "name": "role",
          "type": "bytes32"
        },
        {
          "internalType": "address",
          "name": "account",
          "type": "address"
        }
      ],
      "name": "grantRole",
      "outputs": [],
      "stateMutability": "nonpayable",
      "type": "function"
    },
    {
      "inputs": [
        {
          "internalType": "bytes32",
          "name": "role",
          "type": "bytes32"
        },
        {
          "internalType": "address",
          "name": "account",
          "type": "address"
        }
      ],
      "name": "hasRole",
      "outputs": [
        {
          "internalType": "bool",
          "name": "",
          "type": "bool"
        }
      ],
      "stateMutability": "view",
      "type": "function"
    },
    {
      "inputs": [
        {
          "internalType": "address",
          "name": "account",
          "type": "address"
        }
      ],
      "name": "isAttestor",
      "outputs": [
        {
          "internalType": "bool",
          "name": "",
          "type": "bool"
        }
      ],
      "stateMutability": "view",
      "type": "function"
    },
    {
      "inputs": [],
      "name": "pause",
      "outputs": [],
      "stateMutability": "nonpayable",
      "type": "function"
    },
    {
      "inputs": [],
      "name": "paused",
      "outputs": [
        {
          "internalType": "bool",
          "name": "",
          "type": "bool"
        }
      ],
      "stateMutability": "view",
      "type": "function"
    },
    {
      "inputs": [
        {
          "internalType": "uint8",
          "name": "_attestorType",
          "type": "uint8"
        },
        {
          "internalType": "uint8",
          "name": "_tier",
          "type": "uint8"
        },
        {
          "internalType": "string[]",
          "name": "_specializations",
          "type": "string[]"
        },
        {
          "internalType": "string[]",
          "name": "_countries",
          "type": "string[]"
        },
        {
          "internalType": "uint256",
          "name": "_experienceYears",
          "type": "uint256"
        },
        {
          "internalType": "string",
          "name": "_contactInfo",
          "type": "string"
        },
        {
          "internalType": "string",
          "name": "_credentials",
          "type": "string"
        },
        {
          "internalType": "string[]",
          "name": "_documentHashes",
          "type": "string[]"
        },
        {
          "internalType": "string[]",
          "name": "_documentTypes",
          "type": "string[]"
        }
      ],
      "name": "registerAttestor",
      "outputs": [],
      "stateMutability": "nonpayable",
      "type": "function"
    },
    {
      "inputs": [
        {
          "internalType": "bytes32",
          "name": "_requestId",
          "type": "bytes32"
        },
        {
          "internalType": "string",
          "name": "_comments",
          "type": "string"
        }
      ],
      "name": "rejectVerification",
      "outputs": [],
      "stateMutability": "nonpayable",
      "type": "function"
    },
    {
      "inputs": [
        {
          "internalType": "bytes32",
          "name": "role",
          "type": "bytes32"
        },
        {
          "internalType": "address",
          "name": "callerConfirmation",
          "type": "address"
        }
      ],
      "name": "renounceRole",
      "outputs": [],
      "stateMutability": "nonpayable",
      "type": "function"
    },
    {
      "inputs": [
        {
          "internalType": "bytes32",
          "name": "_assetId",
          "type": "bytes32"
        },
        {
          "internalType": "uint8",
          "name": "_requiredType",
          "type": "uint8"
        },
        {
          "internalType": "string[]",
          "name": "_evidenceHashes",
          "type": "string[]"
        },
        {
          "internalType": "string[]",
          "name": "_documentTypes",
          "type": "string[]"
        },
        {
          "internalType": "uint256",
          "name": "_deadline",
          "type": "uint256"
        }
      ],
      "name": "requestVerification",
      "outputs": [],
      "stateMutability": "nonpayable",
      "type": "function"
    },
    {
      "inputs": [
        {
          "internalType": "bytes32",
          "name": "role",
          "type": "bytes32"
        },
        {
          "internalType": "address",
          "name": "account",
          "type": "address"
        }
      ],
      "name": "revokeRole",
      "outputs": [],
      "stateMutability": "nonpayable",
      "type": "function"
    },
    {
      "inputs": [
        {
          "internalType": "bytes4",
          "name": "interfaceId",
          "type": "bytes4"
        }
      ],
      "name": "supportsInterface",
      "outputs": [
        {
          "internalType": "bool",
          "name": "",
          "type": "bool"
        }
      ],
      "stateMutability": "view",
      "type": "function"
    },
    {
      "inputs": [
        {
          "internalType": "enum AttestorVerificationSystem.AttestorTier",
          "name": "",
          "type": "uint8"
        }
      ],
      "name": "tierRequirements",
      "outputs": [
        {
          "internalType": "uint256",
          "name": "stakingRequirement",
          "type": "uint256"
        },
        {
          "internalType": "uint256",
          "name": "registrationFee",
          "type": "uint256"
        },
        {
          "internalType": "uint256",
          "name": "experienceRequirement",
          "type": "uint256"
        }
      ],
      "stateMutability": "view",
      "type": "function"
    },
    {
      "inputs": [],
      "name": "totalAttestors",
      "outputs": [
        {
          "internalType": "uint256",
          "name": "",
          "type": "uint256"
        }
      ],
      "stateMutability": "view",
      "type": "function"
    },
    {
      "inputs": [],
      "name": "totalVerificationRequests",
      "outputs": [
        {
          "internalType": "uint256",
          "name": "",
          "type": "uint256"
        }
      ],
      "stateMutability": "view",
      "type": "function"
    },
    {
      "inputs": [],
      "name": "trustToken",
      "outputs": [
        {
          "internalType": "contract IERC20",
          "name": "",
          "type": "address"
        }
      ],
      "stateMutability": "view",
      "type": "function"
    },
    {
      "inputs": [],
      "name": "unpause",
      "outputs": [],
      "stateMutability": "nonpayable",
      "type": "function"
    },
    {
      "inputs": [
        {
          "internalType": "address",
          "name": "_attestor",
          "type": "address"
        },
        {
          "internalType": "uint8",
          "name": "_status",
          "type": "uint8"
        },
        {
          "internalType": "string",
          "name": "_reviewerNotes",
          "type": "string"
        }
      ],
      "name": "updateAttestorStatus",
      "outputs": [],
      "stateMutability": "nonpayable",
      "type": "function"
    },
    {
      "inputs": [
        {
          "internalType": "enum AttestorVerificationSystem.AttestorTier",
          "name": "tier",
          "type": "uint8"
        },
        {
          "components": [
            {
              "internalType": "uint256",
              "name": "stakingRequirement",
              "type": "uint256"
            },
            {
              "internalType": "uint256",
              "name": "registrationFee",
              "type": "uint256"
            },
            {
              "internalType": "uint256",
              "name": "experienceRequirement",
              "type": "uint256"
            },
            {
              "internalType": "string[]",
              "name": "requiredDocuments",
              "type": "string[]"
            }
          ],
          "internalType": "struct AttestorVerificationSystem.TierRequirements",
          "name": "requirements",
          "type": "tuple"
        }
      ],
      "name": "updateTierRequirements",
      "outputs": [],
      "stateMutability": "nonpayable",
      "type": "function"
    },
    {
      "inputs": [
        {
          "internalType": "uint8",
          "name": "_newTier",
          "type": "uint8"
        },
        {
          "internalType": "string[]",
          "name": "_newSpecializations",
          "type": "string[]"
        },
        {
          "internalType": "string[]",
          "name": "_newCountries",
          "type": "string[]"
        },
        {
          "internalType": "string",
          "name": "_updatedCredentials",
          "type": "string"
        }
      ],
      "name": "upgradeAttestor",
      "outputs": [],
      "stateMutability": "nonpayable",
      "type": "function"
    },
    {
      "inputs": [
        {
          "internalType": "address",
          "name": "",
          "type": "address"
        },
        {
          "internalType": "uint256",
          "name": "",
          "type": "uint256"
        }
      ],
      "name": "userRequests",
      "outputs": [
        {
          "internalType": "bytes32",
          "name": "",
          "type": "bytes32"
        }
      ],
      "stateMutability": "view",
      "type": "function"
    },
    {
      "inputs": [
        {
          "internalType": "bytes32",
          "name": "",
          "type": "bytes32"
        }
      ],
      "name": "verificationRequests",
      "outputs": [
        {
          "internalType": "bytes32",
          "name": "requestId",
          "type": "bytes32"
        },
        {
          "internalType": "address",
          "name": "assetOwner",
          "type": "address"
        },
        {
          "internalType": "bytes32",
          "name": "assetId",
          "type": "bytes32"
        },
        {
          "internalType": "uint8",
          "name": "requiredType",
          "type": "uint8"
        },
        {
          "internalType": "uint256",
          "name": "requestedAt",
          "type": "uint256"
        },
        {
          "internalType": "uint256",
          "name": "deadline",
          "type": "uint256"
        },
        {
          "internalType": "enum AttestorVerificationSystem.VerificationStatus",
          "name": "status",
          "type": "uint8"
        },
        {
          "internalType": "string",
          "name": "comments",
          "type": "string"
        },
        {
          "internalType": "uint256",
          "name": "fee",
          "type": "uint256"
        },
        {
          "internalType": "address",
          "name": "assignedAttestor",
          "type": "address"
        }
      ],
      "stateMutability": "view",
      "type": "function"
    },
    {
      "inputs": [],
      "name": "withdrawFees",
      "outputs": [],
      "stateMutability": "nonpayable",
      "type": "function"
    },
    {
      "inputs": [],
      "name": "withdrawStake",
      "outputs": [],
      "stateMutability": "nonpayable",
      "type": "function"
    }
  ],
  "bytecode": "0x608060405234610dc45761650b6040813803918261001c81610de8565b938492833981010312610dc45761003e602061003783610e0d565b9201610e0d565b90600160025561004d33610e21565b5061005733610e9d565b50600480546001600160a01b039283166001600160a01b0319918216179091556003805493909216921691909117905561008f610f35565b6100996040610de8565b600d81526c11dbdd995c9b9b595b9d081251609a1b60208201526100bc82610f6b565b526100c681610f6b565b506100d16040610de8565b601081526f50726f6f66206f66204164647265737360801b60208201526100f782610f8e565b5261010181610f8e565b5061010c6040610de8565b601481526000805160206164cb833981519152602082015261012d82610f9e565b5261013781610f9e565b506101426040610de8565b6006815265526573756d6560d01b602082015261015e82610fae565b5261016881610fae565b506003610173610dc9565b683635c9adc5dea0000081526020810168015af1d78b58c4000081526040820190600182526060830194855260406000808052600d6020522092518355516001830155516002820155019051805190680100000000000000008211610862578254828455808310610d46575b50602001916000526020600020916000905b828210610c2e57610200610f35565b61020a6040610de8565b600d81526c11dbdd995c9b9b595b9d081251609a1b602082015261022d82610f6b565b5261023781610f6b565b506102426040610de8565b601081526f50726f6f66206f66204164647265737360801b602082015261026882610f8e565b5261027281610f8e565b5061027d6040610de8565b601481526000805160206164cb833981519152602082015261029e82610f9e565b526102a881610f9e565b506102b36040610de8565b6006815265526573756d6560d01b60208201526102cf82610fae565b526102d981610fae565b5060036102e4610dc9565b69010f0cf064dd592000008152602081016802b5e3af16b188000081526040820190838252606083019485526040600060018152600d6020522092518355516001830155516002820155019051805190680100000000000000008211610862578254828455808310610bb0575b50602001916000526020600020916000905b828210610aa35760c061037581610de8565b6005815290601f190160005b818110610a9257826103936040610de8565b600d81526c11dbdd995c9b9b595b9d081251609a1b60208201526103b682610f6b565b526103c081610f6b565b506103cb6040610de8565b601081526f50726f6f66206f66204164647265737360801b60208201526103f182610f8e565b526103fb81610f8e565b506104066040610de8565b601481526000805160206164cb833981519152602082015261042782610f9e565b5261043181610f9e565b5061043c6040610de8565b6006815265526573756d6560d01b602082015261045882610fae565b5261046281610fae565b5061046d6040610de8565b601081526f4261636b67726f756e6420436865636b60801b602082015261049382610fbe565b5261049d81610fbe565b5060036104a8610dc9565b69021e19e0c9bab240000081526020810168056bc75e2d631000008152604082019060058252606083019485526040600060028152600d6020522092518355516001830155516002820155019051805190680100000000000000008211610862578254828455808310610a14575b50602001916000526020600020916000905b8282106109075760e061053a81610de8565b6006815290601f190160005b8181106108f657826105586040610de8565b600d81526c11dbdd995c9b9b595b9d081251609a1b602082015261057b82610f6b565b5261058581610f6b565b506105906040610de8565b601081526f50726f6f66206f66204164647265737360801b60208201526105b682610f8e565b526105c081610f8e565b506105cb6040610de8565b601481526000805160206164cb83398151915260208201526105ec82610f9e565b526105f681610f9e565b506106016040610de8565b6006815265526573756d6560d01b602082015261061d82610fae565b5261062781610fae565b506106326040610de8565b601081526f4261636b67726f756e6420436865636b60801b602082015261065882610fbe565b5261066281610fbe565b5061066d6040610de8565b60118152705265666572656e6365204c65747465727360781b602082015261069482610fce565b5261069e81610fce565b5060036106a9610dc9565b69054b40b1f852bda00000815260208101680d8d726b7177a8000081526040820190600a82526060830194855260406000858152600d6020522092518355516001830155516002820155019051805190680100000000000000008211610862578254828455808310610878575b50602001916000526020600020916000905b82821061073e5760405161545b90816110308239f35b80518051906001600160401b0382116108625761075b8654610fde565b601f8111610825575b50602090601f83116001146107b8579261079e836001959460209487966000926107ad575b50508160011b916000199060031b1c19161790565b87555b01940191019092610728565b015190508a80610789565b90601f1983169187600052816000209260005b81811061080d57509360209360019693879693838895106107f4575b505050811b0187556107a1565b015160001960f88460031b161c191690558980806107e7565b929360206001819287860151815501950193016107cb565b61085290876000526020600020601f850160051c81019160208610610858575b601f0160051c0190611018565b86610764565b9091508190610845565b634e487b7160e01b600052604160045260246000fd5b8360005282602060002091820191015b8181106108955750610716565b806108a260019254610fde565b806108af575b5001610888565b601f811183146108c55750600081555b866108a8565b6108e3908260005283601f6020600020920160051c82019101611018565b80600052600060208120818355556108bf565b806060602080938601015201610546565b80518051906001600160401b038211610862576109248654610fde565b601f81116109e2575b50602090601f83116001146109755792610966836001959460209487966000926107ad5750508160011b916000199060031b1c19161790565b87555b01940191019092610528565b90601f1983169187600052816000209260005b8181106109ca57509360209360019693879693838895106109b1575b505050811b018755610969565b015160001960f88460031b161c191690558980806109a4565b92936020600181928786015181550195019301610988565b610a0e90876000526020600020601f850160051c8101916020861061085857601f0160051c0190611018565b8661092d565b8360005282602060002091820191015b818110610a315750610516565b80610a3e60019254610fde565b80610a4b575b5001610a24565b601f81118314610a615750600081555b86610a44565b610a7f908260005283601f6020600020920160051c82019101611018565b8060005260006020812081835555610a5b565b806060602080938601015201610381565b80518051906001600160401b03821161086257610ac08654610fde565b601f8111610b7e575b50602090601f8311600114610b115792610b02836001959460209487966000926107ad5750508160011b916000199060031b1c19161790565b87555b01940191019092610363565b90601f1983169187600052816000209260005b818110610b665750936020936001969387969383889510610b4d575b505050811b018755610b05565b015160001960f88460031b161c19169055898080610b40565b92936020600181928786015181550195019301610b24565b610baa90876000526020600020601f850160051c8101916020861061085857601f0160051c0190611018565b86610ac9565b8360005282602060002091820191015b818110610bcd5750610351565b80610bda60019254610fde565b80610be7575b5001610bc0565b601f81118314610bfd5750600081555b86610be0565b610c1b908260005283601f6020600020920160051c82019101611018565b8060005260006020812081835555610bf7565b80518051906001600160401b03821161086257610c4b8654610fde565b601f8111610d14575b50602090601f8311600114610ca75792610c8d83600195946020948796600092610c9c5750508160011b916000199060031b1c19161790565b87555b019401910190926101f1565b015190503880610789565b90601f1983169187600052816000209260005b818110610cfc5750936020936001969387969383889510610ce3575b505050811b018755610c90565b015160001960f88460031b161c19169055388080610cd6565b92936020600181928786015181550195019301610cba565b610d4090876000526020600020601f850160051c8101916020861061085857601f0160051c0190611018565b38610c54565b8360005282602060002091820191015b818110610d6357506101df565b80610d7060019254610fde565b80610d7d575b5001610d56565b601f81118314610d935750600081555b38610d76565b610db1908260005283601f6020600020920160051c82019101611018565b8060005260006020812081835555610d8d565b600080fd5b60405190608082016001600160401b0381118382101761086257604052565b6040519190601f01601f191682016001600160401b0381118382101761086257604052565b51906001600160a01b0382168203610dc457565b6001600160a01b03811660009081526000805160206164eb833981519152602052604090205460ff16610e97576001600160a01b031660008181526000805160206164eb83398151915260205260408120805460ff1916600117905533919060008051602061648b8339815191528180a4600190565b50600090565b6001600160a01b03811660009081526000805160206164ab833981519152602052604090205460ff16610e97576001600160a01b031660008181526000805160206164ab83398151915260205260408120805460ff191660011790553391907f0ce23c3e399818cfee81a7ab0880f714e53d7672b08df0fa62f2843416e1ea099060008051602061648b8339815191529080a4600190565b60a090610f4182610de8565b6004815291601f19018260005b828110610f5a57505050565b806060602080938501015201610f4e565b805115610f785760200190565b634e487b7160e01b600052603260045260246000fd5b805160011015610f785760400190565b805160021015610f785760600190565b805160031015610f785760800190565b805160041015610f785760a00190565b805160051015610f785760c00190565b90600182811c9216801561100e575b6020831014610ff857565b634e487b7160e01b600052602260045260246000fd5b91607f1691610fed565b818110611023575050565b6000815560010161101856fe61012080604052600436101561001457600080fd5b60003560e01c90816301ffc9a7146148be575080630698bf42146148795780630f3908c8146147b157806311cf8b031461468f578063248a9ca31461477c578063263cb6b6146147325780632e2f4e24146146ed5780632f2ff15d146146ad578063315ede5b1461468f57806336568abe1461464957806336f4671714613de15780633b3198c414612b855780633f4ba83a14612b1c57806341adea0e14612a9057806342fbe2da14612a58578063458b5ab0146127ec57806346904840146127c3578063476343ee146126df5780634bd78841146124e95780634beb7d39146123ee57806352d5c97e1461195657806356bf1371146118a55780635c975abb14611882578063624a535914611864578063627236441461182957806381bf916014610b405780638456cb59146117d057806391d14854146117835780639bc426e7146115c35780639e4675501461136d578063a0b1317114611294578063a217fddf14611278578063a377269914610f99578063a77a9fdb14610f57578063ac837a5b14610f1a578063b183bdb614610ece578063b337cf7414610e14578063bed9d86114610c23578063c68cc3b614610bce578063d13deb2f14610ba5578063d547741f14610b5e578063de3bca9314610b40578063de9d621814610743578063e1aff69514610462578063e7705db614610427578063eeb8183c146103855763f7792a8e1461022557600080fd5b34610380576020366003190112610380576004356001600160401b03811161038057610255903690600401614b97565b610260600a546150c1565b60009160006008549360208301925b85831061028857604051806102848782614c5c565b0390f35b6102958394959293614ae1565b60018060a01b0391549060031b1c1660005260056020526102bc6005604060002001614f46565b9460005b8651811015610372576102d381886150f3565b51604051610302602082816102f18183019687815193849201614a99565b81010301601f1981018352826149d4565b519020604051602081019061032060208288516102f181878b614a99565b51902014610330576001016102c0565b5094509094929161036460019161034685614ae1565b848060a01b0391549060031b1c1661035e828a6150f3565b52614eb0565b925b0191909493929461026f565b509450909492600190610366565b600080fd5b34610380576020366003190112610380576004356004811015610380576060806040516103b18161499d565b60008152600060208201526000604082015201526103ce8161493d565b600052600d602052610284604060002061040e6003604051926103f08461499d565b80548452600181015460208501526002810154604085015201614f46565b6060820152604051918291602083526020830190614df6565b346103805760003660031901126103805760206040517f0ce23c3e399818cfee81a7ab0880f714e53d7672b08df0fa62f2843416e1ea098152f35b346103805761047036614c9f565b9061047961515a565b60008181526006602052604090206001015461049f906001600160a01b03161515614fc9565b8060005260066020526104c660ff600860406000200154166104c08161493d565b1561500e565b600081815260066020526040902060088101805460ff1916600217905582516009909101906001600160401b03811161072d576105038254614947565b601f81116106f0575b506020601f821160011461068b57819061053f939495600092610680575b50508160011b916000199060031b1c19161790565b90555b6000818152600660205260409020600b0180546001600160a01b03191633179055600c548061066e575b5033600052600560205260ff600f6040600020015460081c166105ba575b60405190600282527f0ac4d3807b28782ad61c6ad8c339177f4dac8c0e1c33387f4ff4e2b478c8ee3760203393a3005b33600052600560205260076040600020016105d58154614eb0565b905533600052600560205260096040600020016105f28154614eb0565b9055336000526005602052600a80604060002001541160001461066757336000526005602052600a604060002001546009198101908111610651575b336000908152600560205260409020600a8101919091554260119091015561058a565b634e487b7160e01b600052601160045260246000fd5b600061062e565b6106779061504b565b600c558161056c565b01519050858061052a565b601f1982169083600052806000209160005b8181106106d8575095836001959697106106bf575b505050811b019055610542565b015160001960f88460031b161c191690558480806106b2565b9192602060018192868b01518155019401920161069d565b61071d90836000526020600020601f840160051c81019160208510610723575b601f0160051c0190614e81565b8461050c565b9091508190610710565b634e487b7160e01b600052604160045260246000fd5b346103805760203660031901126103805761075c614911565b60606102c060405161076d816149b8565b60008152826020820152826040820152600083820152600060808201528260a08201528260c0820152600060e08201526000610100820152600061012082015260006101408201526000610160820152600061018082015260006101a0820152826101c0820152826101e0820152600061020082015260006102208201526000610240820152600061026082015282610280820152826102a0820152015260018060a01b031660005260056020526102846040600020610985601460405192610835846149b8565b80546001600160a01b0316845261084e600182016149f5565b602085015261085f600282016149f5565b604085015260ff600382015461087a82821660608801614f9e565b60081c166108878161493d565b608085015261089860048201614f46565b60a08501526108a960058201614f46565b60c0850152600681015460e0850152600781015461010085015260088101546101208501526009810154610140850152600a810154610160850152600b810154610180850152600c8101546101a0850152610906600d8201614f46565b6101c0850152610918600e8201614f46565b6101e085015260ff600f82015461093082821661493d565b81811661020087015260081c16151561022085015260108101546102408501526011810154610260850152610967601282016149f5565b610280850152610979601382016149f5565b6102a0850152016149f5565b6102c08201526040519182916020835260018060a01b0381511660208401526102c0610b2b610b15610ac2610aaa610a3f610a296109ee6109d88b6102e0604060208d01519201526103008d0190614abc565b60408a01518c8203601f190160608e0152614abc565b610a0060608a015160808d0190614cd1565b6080890151610a0e8161493d565b60a08c015260a0890151601f198c83030160c08d0152614cde565b60c08801518a8203601f190160e08c0152614cde565b60e08701516101008a01526101008701516101208a01526101208701516101408a01526101408701516101608a01526101608701516101808a01526101808701516101a08a01526101a08701516101c08a01526101c0870151601f198a8303016101e08b0152614cde565b6101e0860151888203601f19016102008a0152614cde565b610200850151610ad18161493d565b6102208801526102208501511515610240880152610240850151610260880152610260850151610280880152610280850151601f19888303016102a0890152614abc565b6102a0840151868203601f190184880152614abc565b910151838203601f19016102e0850152614abc565b34610380576000366003190112610380576020600a54604051908152f35b3461038057604036600319011261038057610ba3600435610b7d614927565b90610b9e610b9982600052600060205260016040600020015490565b6151cc565b615366565b005b34610380576000366003190112610380576003546040516001600160a01b039091168152602090f35b3461038057602036600319011261038057600435600481101561038057610bf48161493d565b600052600d60205260606040600020805490600260018201549101549060405192835260208301526040820152f35b3461038057600036600319011261038057610c3c6153e8565b33600052600560205260ff600f6040600020015460081c1615610dd657336000526005602052600160ff600f6040600020015416610c798161493d565b03610da257336000818152600560209081526040808320600b8101805490859055600f909101805461ff0019169055600354915163a9059cbb60e01b81526004810195909552602485018190529392839160449183916001600160a01b03165af1908115610d9657600091610d67575b5015610d22576040519081527f8108595eb6bad3acefa9da467d90cc2217686d5c5ac85460f8b7849c840645fc60203392a26001600255005b60405162461bcd60e51b815260206004820152601760248201527f5374616b65207769746864726177616c206661696c65640000000000000000006044820152606490fd5b610d89915060203d602011610d8f575b610d8181836149d4565b810190614e27565b82610ce9565b503d610d77565b6040513d6000823e3d90fd5b60405162461bcd60e51b815260206004820152600c60248201526b139bdd08185c1c1c9bdd995960a21b6044820152606490fd5b60405162461bcd60e51b81526020600482015260166024820152752737ba1030b71030b1ba34bb329030ba3a32b9ba37b960511b6044820152606490fd5b34610380576020366003190112610380576001600160a01b03610e35614911565b16600052600760205260406000206040518060208354918281520190819360005260206000209060005b818110610eb85750505081610e759103826149d4565b6040519182916020830190602084525180915260408301919060005b818110610e9f575050500390f35b8251845285945060209384019390920191600101610e91565b8254845260209093019260019283019201610e5f565b34610380576020366003190112610380576001600160a01b03610eef614911565b166000526005602052602060ff60036040600020015460081c1660405190610f168161493d565b8152f35b34610380576020366003190112610380576001600160a01b03610f3b614911565b1660005260056020526020600b60406000200154604051908152f35b346103805760203660031901126103805760043560085481101561038057610f80602091614ae1565b905460405160039290921b1c6001600160a01b03168152f35b3461038057604036600319011261038057600435600481101561038057602435906001600160401b03821161038057608060031983360301126103805760405190610fe38261499d565b8260040135825260208201926024810135845260408301936044820135855260648201356001600160401b0381116103805760039260046110279236920101614bde565b9460608501958652611037615107565b6110408461493d565b83600052600d60205260406000209185518355516001830155516002820155019251805190600160401b821161072d5784548286558083106111fa575b50602001936000526020600020936000905b8282106110e2576040517fb8015b9beb7ac5150f14c26edbf95bd2678b1002f0c4c9fadcced131fbc4836f90806110dd88886110ca8161493d565b8352604060208401526040830190614df6565b0390a1005b80518051906001600160401b03821161072d576110ff8854614947565b601f81116111c8575b50602090601f831160011461115b5792611141836001959460209487966000926111505750508160011b916000199060031b1c19161790565b89555b0196019101909461108f565b015190508c8061052a565b90601f1983169189600052816000209260005b8181106111b05750936020936001969387969383889510611197575b505050811b018955611144565b015160001960f88460031b161c191690558b808061118a565b9293602060018192878601518155019501930161116e565b6111f490896000526020600020601f850160051c8101916020861061072357601f0160051c0190614e81565b88611108565b8560005282602060002091820191015b818110611217575061107d565b8061122460019254614947565b80611231575b500161120a565b601f811183146112475750600081555b8861122a565b611265908260005283601f6020600020920160051c82019101614e81565b8060005260006020812081835555611241565b3461038057600036600319011261038057602060405160008152f35b346103805760203660031901126103805760043560088110159081610380576112be600a546150c1565b9060008091600854925b8381106112dd57604051806102848782614c5c565b6112e681614ae1565b9054600391821b1c6001600160a01b03166000908152600560205260409020015460ff1686611357576008811015611357578214611327575b6001016112c8565b9161134f60019161133785614ae1565b848060a01b0391549060031b1c1661035e82896150f3565b92905061131f565b634e487b7160e01b600052602160045260246000fd5b3461038057606036600319011261038057611386614911565b61138e614b45565b6044356001600160401b038111610380576113ad903690600401614b97565b916113b661515a565b6001600160a01b03166000818152600560205260409020600f015490919060081c60ff16156115895760ff166113eb8161493d565b81600052600560205261140581600f604060002001614e98565b816000526005602052601460406000200183516001600160401b03811161072d576114308254614947565b601f8111611557575b506020601f82116001146114cb57816020949392611490927fb5d9c2137fd4809dae73e9cc4600bc6b5c9741c45a08620984f56024f5877b9f97986000926114c05750508160011b916000199060031b1c19161790565b90555b8360005260058252426011604060002001556114ae8161493d565b604051906114bb8161493d565b8152a2005b01519050888061052a565b601f1982169583600052816000209660005b81811061153f575096600192849260209796957fb5d9c2137fd4809dae73e9cc4600bc6b5c9741c45a08620984f56024f5877b9f999a10611526575b505050811b019055611493565b015160001960f88460031b161c19169055878080611519565b838301518955600190980197602093840193016114dd565b61158390836000526020600020601f840160051c8101916020851061072357601f0160051c0190614e81565b85611439565b60405162461bcd60e51b8152602060048201526012602482015271105d1d195cdd1bdc881b9bdd08199bdd5b9960721b6044820152606490fd5b34610380576000366003190112610380576009546115e081614b65565b906115ee60405192836149d4565b808252601f196115fd82614b65565b0160005b81811061176c57505060005b81811061167c57826040518091602082016020835281518091526040830190602060408260051b8601019301916000905b82821061164d57505050500390f35b9193600191939550602061166c8192603f198a82030186528851614d37565b960192019201859493919261163e565b80611688600192614b12565b90549060031b1c60005260066020526040600020604051906116a982614981565b80548252838060a01b03848201541660208301526002810154604083015260ff60038201541660608301526116e060048201614f46565b60808301526116f160058201614f46565b60a0830152600681015460c0830152600781015460e083015260ff60088201541661171b8161493d565b61010083015261172d600982016149f5565b610120830152600a810154610140830152600b848060a01b039101541661016082015261175a82866150f3565b5261176581856150f3565b500161160d565b602090611777615065565b82828701015201611601565b346103805760403660031901126103805761179c614927565b600435600052600060205260406000209060018060a01b0316600052602052602060ff604060002054166040519015158152f35b34610380576000366003190112610380576117e9615107565b6117f1615408565b600160ff19815416176001557f62e78cea01bee320cd4e420270b5ea74000d11b0c9f74754ebdbfc544b05a2586020604051338152a1005b346103805760003660031901126103805760206040517fa7e0cd0f2772b23ee4c329892293a6bd99d48c306b094d6d008c9a8bb8b731e48152f35b34610380576000366003190112610380576020600c54604051908152f35b3461038057600036600319011261038057602060ff600154166040519015158152f35b34610380576020366003190112610380576004356004811015610380576118cd600a546150c1565b9060008091600854925b8381106118ec57604051806102848782614c5c565b6118f581614ae1565b9054600391821b1c6001600160a01b031660009081526005602052604090200154829060081c60ff166119278261493d565b6119308161493d565b1461193e575b6001016118d7565b9161194e60019161133785614ae1565b929050611936565b346103805760803660031901126103805761196f614b55565b6024356001600160401b0381116103805761198e903690600401614bde565b6044356001600160401b038111610380576119ad903690600401614bde565b6064356001600160401b038111610380576119ce60ff913690600401614b97565b936119d76153e8565b6119df615408565b166119ec60048210614ebf565b33600052600560205260ff600f6040600020015460081c16156123b85733600052600560205260ff60036040600020015460081c16611a2a8161493d565b811115612373573360005260056020526040600020600381019460ff865460081c1695611a568461493d565b611a5f8761493d565b86600052600d60205260406000206060611a9f600360405193611a818561499d565b80548552600181015460208601526002810154604086015201614f46565b910152611aab8461493d565b83600052600d60205260406000209160405190611ac78261499d565b8354825260018401549660208301978852611b09611af360036002880154976040870198895201614f46565b9560608501968752600688015490511115614efa565b825198600b8701948554808c039a8c8c1161065157519b611b2a8d8d615058565b50036122c0575b600354600480546040516323b872dd60e01b815233928101929092526001600160a01b039081166024830152604482018e9052909160209183916064918391600091165af1908115610d96576000916122a1575b501561225c5788611b9591614faa565b80516004880191600160401b821161072d5782548284558083106121de575b50602001916000526020600020916000905b8282106120d157505050506005860190805190600160401b821161072d578254828455808310612053575b50602001916000526020600020916000905b828210611f3b575050505060138501908051906001600160401b03821161072d57611c2e8354614947565b601f8111611f09575b50602090601f8311600114611ea257611c689291600091836111505750508160011b916000199060031b1c19161790565b90555b51905584600c83015551600d820190805190600160401b821161072d578254828455808310611e24575b50602001916000526020600020916000905b828210611d0c575050505060114291015560405193611cc58161493d565b8452611cd08161493d565b6020840152604083015260608201527f68c335309cc89c3b32b696c96531e6a6552d3701b84106e12108c07e0b7e39ad60803392a26001600255005b80518051906001600160401b03821161072d57611d298654614947565b601f8111611df2575b50602090601f8311600114611d855792611d6b83600195946020948796600092611d7a5750508160011b916000199060031b1c19161790565b87555b01940191019092611ca7565b015190508f8061052a565b90601f1983169187600052816000209260005b818110611dda5750936020936001969387969383889510611dc1575b505050811b018755611d6e565b015160001960f88460031b161c191690558e8080611db4565b92936020600181928786015181550195019301611d98565b611e1e90876000526020600020601f850160051c8101916020861061072357601f0160051c0190614e81565b8b611d32565b8360005282602060002091820191015b818110611e415750611c95565b80611e4e60019254614947565b80611e5b575b5001611e34565b601f81118314611e715750600081555b8b611e54565b611e8f908260005283601f6020600020920160051c82019101614e81565b8060005260006020812081835555611e6b565b90601f1983169184600052816000209260005b818110611ef15750908460019594939210611ed8575b505050811b019055611c6b565b015160001960f88460031b161c191690558b8080611ecb565b92936020600181928786015181550195019301611eb5565b611f3590846000526020600020601f850160051c8101916020861061072357601f0160051c0190614e81565b8b611c37565b80518051906001600160401b03821161072d57611f588654614947565b601f8111612021575b50602090601f8311600114611fb45792611f9a83600195946020948796600092611fa95750508160011b916000199060031b1c19161790565b87555b01940191019092611c03565b01519050388061052a565b90601f1983169187600052816000209260005b8181106120095750936020936001969387969383889510611ff0575b505050811b018755611f9d565b015160001960f88460031b161c19169055388080611fe3565b92936020600181928786015181550195019301611fc7565b61204d90876000526020600020601f850160051c8101916020861061072357601f0160051c0190614e81565b8f611f61565b8360005282602060002091820191015b8181106120705750611bf1565b8061207d60019254614947565b8061208a575b5001612063565b601f811183146120a05750600081555b8f612083565b6120be908260005283601f6020600020920160051c82019101614e81565b806000526000602081208183555561209a565b80518051906001600160401b03821161072d576120ee8654614947565b601f81116121ac575b50602090601f831160011461213f579261213083600195946020948796600092611fa95750508160011b916000199060031b1c19161790565b87555b01940191019092611bc6565b90601f1983169187600052816000209260005b818110612194575093602093600196938796938388951061217b575b505050811b018755612133565b015160001960f88460031b161c1916905538808061216e565b92936020600181928786015181550195019301612152565b6121d890876000526020600020601f850160051c8101916020861061072357601f0160051c0190614e81565b386120f7565b8360005282602060002091820191015b8181106121fb5750611bb4565b8061220860019254614947565b80612215575b50016121ee565b601f8111831461222b5750600081555b3861220e565b612249908260005283601f6020600020920160051c82019101614e81565b8060005260006020812081835555612225565b60405162461bcd60e51b815260206004820152601b60248201527f5570677261646520666565207472616e73666572206661696c656400000000006044820152606490fd5b6122ba915060203d602011610d8f57610d8181836149d4565b8d611b85565b6003546040516323b872dd60e01b8152336004820152306024820152604481018c905290602090829060649082906000906001600160a01b03165af1908115610d9657600091612354575b50611b3157606460405162461bcd60e51b815260206004820152602060248201527f4164646974696f6e616c207374616b65207472616e73666572206661696c65646044820152fd5b61236d915060203d602011610d8f57610d8181836149d4565b8d61230b565b60405162461bcd60e51b815260206004820152601f60248201527f43616e206f6e6c79207570677261646520746f206869676865722074696572006044820152606490fd5b60405162461bcd60e51b815260206004820152600e60248201526d139bdd081c9959da5cdd195c995960921b6044820152606490fd5b3461038057602036600319011261038057612407615065565b50600435600052600660205261028460406000206040519061242882614981565b8054825260018101546001600160a01b0316602083015260028101546040830152600381015460ff16606083015261246260048201614f46565b608083015261247360058201614f46565b60a0830152600681015460c0830152600781015460e083015260ff60088201541661249d8161493d565b6101008301526124af600982016149f5565b610120830152600a810154610140830152600b01546001600160a01b03166101608201526040516020808252909283929091830190614d37565b34610380576020366003190112610380576001600160a01b0361250a614911565b166000908152600560205260409020805481906001600160a01b0316612532600183016149f5565b60c052612541600283016149f5565b610100526003820154906006830154600784015460088501546009860154600a870154600b88015491600c89015493600f8a01549560108b01549760118c01549960128d0161258f906149f5565b9c60130161259c906149f5565b9d6014016125a9906149f5565b60a05260405160e05260e0515260e051602001610260905260e0516102600160c051906125d591614abc565b60e051810360e0516040015261010051906125ef91614abc565b9a60e05160600160ff82169061260491614cd1565b8060081c60ff166126149061493d565b60081c60ff1660e0516080015260e05160a0015260e05160c0015260e05160e0015260e051610100015260e051610120015260e051610140015260e051610160015260ff81166126639061493d565b60ff811660e051610180015260081c60ff16151560e0516101a0015260e0516101c0015260e0516101e0015260e051810360e05161020001526126a591614abc565b60e051810360e05161022001526126bb91614abc565b60e051810360e051610240015260e0519060a051906126d991614abc565b0360e051f35b34610380576000366003190112610380576126f8615107565b478015612788576004546000918291829182916001600160a01b03165af13d15612783573d61272681614b7c565b9061273460405192836149d4565b8152600060203d92013e5b1561274657005b60405162461bcd60e51b8152602060048201526015602482015274119959481dda5d1a191c985dd85b0819985a5b1959605a1b6044820152606490fd5b61273f565b60405162461bcd60e51b81526020600482015260136024820152724e6f206665657320746f20776974686472617760681b6044820152606490fd5b34610380576000366003190112610380576004546040516001600160a01b039091168152602090f35b34610380576127fa36614c9f565b9061280361515a565b600081815260066020526040902060010154612829906001600160a01b03161515614fc9565b80600052600660205261284a60ff600860406000200154166104c08161493d565b600081815260066020526040902060088101805460ff1916600117905582516009909101906001600160401b03811161072d576128878254614947565b601f8111612a26575b506020601f82116001146129c15781906128c29394956000926106805750508160011b916000199060031b1c19161790565b90555b6000818152600660205260409020600b0180546001600160a01b03191633179055600c54806129af575b5033600052600560205260ff600f6040600020015460081c1661293d575b60405190600182527f0ac4d3807b28782ad61c6ad8c339177f4dac8c0e1c33387f4ff4e2b478c8ee3760203393a3005b33600052600560205260076040600020016129588154614eb0565b905533600052600560205260086040600020016129758154614eb0565b9055336000526005602052600a604060002001805490600a820180921161065157553360005260056020524260116040600020015561290d565b6129b89061504b565b600c55816128ef565b601f1982169083600052806000209160005b818110612a0e575095836001959697106129f5575b505050811b0190556128c5565b015160001960f88460031b161c191690558480806129e8565b9192602060018192868b0151815501940192016129d3565b612a5290836000526020600020601f840160051c8101916020851061072357601f0160051c0190614e81565b84612890565b346103805760203660031901126103805760043560095481101561038057612a81602091614b12565b90549060031b1c604051908152f35b346103805760003660031901126103805760405180602060085491828152019060086000527ff3f7a9fe364faab93b216da50a3214154f22a0a2b415b23a84c8169e8b636ee39060005b818110612afd5761028485612af1818703826149d4565b60405191829182614c5c565b82546001600160a01b0316845260209093019260019283019201612ada565b3461038057600036600319011261038057612b35615107565b60015460ff811615612b745760ff19166001557f5db9ee0a495bf2e6ff9c91a7834c1ba4fdd244a5e8aa4e537bd38aeae4b073aa6020604051338152a1005b638dfc202b60e01b60005260046000fd5b346103805761012036600319011261038057612b9f614b55565b612ba7614b45565b6044356001600160401b03811161038057612bc6903690600401614bde565b6064356001600160401b03811161038057612be5903690600401614bde565b9260a4356001600160401b03811161038057612c05903690600401614b97565b60c4356001600160401b03811161038057612c24903690600401614b97565b9060e4356001600160401b03811161038057612c44903690600401614bde565b50610104356001600160401b03811161038057612c65903690600401614bde565b612c6d6153e8565b612c75615408565b612c84600460ff881610614ebf565b33600052600560205260ff600f6040600020015460081c16613da757612cac60ff871661493d565b612cb860ff871661493d565b60ff8616600052600d602052612cda6002604060002001546084351015614efa565b612ce660ff871661493d565b612cf260ff871661493d565b60ff8616600052600d60205260406000209460405194612d118661499d565b86548652612d37600360018901549860208901998a52600281015460408a015201614f46565b6060870190815260035487516040516323b872dd60e01b8152336004820152306024820152604481019190915291929190602090829060649082906000906001600160a01b03165af1908115610d9657600091613d88575b5015613d4b57600354600480548a516040516323b872dd60e01b815233938101939093526001600160a01b039182166024840152604483015290929160209184916064918391600091165af1918215610d965760ff92612df791600091613d2c575b50614e3f565b1696600888101561135757612e4799875191519251936040519b8c9a612e1c8c6149b8565b338c528860208d0152606060209c8d612e3860405191826149d4565b60008152604082015201614f9e565b612e5360ff8c1661493d565b60ff8b1660808d015260a08c015260c08b015260843560e08b015260006101008b015260006101208b015260006101408b015260646101608b01526101808a01526101a08901526101c08801526101e08701526000610200870152600161022087015242610240870152426102608701526102808601526102a0850152604051612edd83826149d4565b60008082526102c08601919091523381526005835260409020845181546001600160a01b0319166001600160a01b039190911617815560208501518051919591906001600160401b03821161072d57612f396001880154614947565b601f8111613cf9575b508490601f8311600114613c8857612f729291600091836114c05750508160011b916000199060031b1c19161790565b60018601555b60408101518051906001600160401b03821161072d57612f9b6002880154614947565b601f8111613c55575b508490601f8311600114613be457612fd49291600091836114c05750508160011b916000199060031b1c19161790565b60028601555b60608101519460088610156113575760009560ff80196003840154169116176003820155613018608083015161300f8161493d565b60038301614faa565b60a0820151805190600160401b821161371d5785906004840154836004860155808410613b5e575b50019060048301885285882088925b828410613a53575050505060c0820151805190600160401b821161371d57859060058401548360058601558084106139cd575b50019060058301885285882088925b8284106138c2575050505060e08201516006820155610100820151600782015561012082015160088201556101408201516009820155610160820151600a820155610180820151600b8201556101a0820151600c8201556101c0820151805190600160401b821161371d578590600d84015483600d86015580841061383c575b500190600d8301885285882088925b82841061373157505050506101e0820151805190600160401b821161371d578590600e84015483600e860155808410613697575b500190600e8301885285882088925b8284106135785750505050600f810161318a6102008401516131848161493d565b82614e98565b610220830151815461ff00191690151560081b61ff001617905561024082015160108201556102608201516011820155610280820151805160128301916001600160401b0382116134c8576131df8354614947565b601f811161354a575b508690601f83116001146134e75761321792918a91836134dc5750508160011b916000199060031b1c19161790565b90555b601381016102a08301518051906001600160401b0382116134c85761323f8354614947565b601f811161349a575b508690601f831160011461343057826102c095936014959361327f938d926111505750508160011b916000199060031b1c19161790565b90555b019101518051906001600160401b03821161341c576132a18354614947565b601f81116133ee575b508490601f831160011461338b576132d992918891836114c05750508160011b916000199060031b1c19161790565b90555b600854600160401b811015613377578060016132fb9201600855614ae1565b81546001600160a01b0360039290921b91821b19163390911b179055600a5461332390614eb0565b600a5561332f33615207565b50519060ff6040519361334382821661493d565b1683528201527fdf4b99761bb46d2f82025dfb4499c52925f340f871e5221a3d025024af7604f060403392a2600160025580f35b634e487b7160e01b85526041600452602485fd5b8388528588209190601f198416895b888282106133d85750509084600195949392106133bf575b505050811b0190556132dc565b015160001960f88460031b161c191690558780806133b2565b600185968293968601518155019501930161339a565b61341690848952868920601f850160051c81019188861061072357601f0160051c0190614e81565b876132aa565b634e487b7160e01b87526041600452602487fd5b838a52878a209190601f1984168b5b8a8282106134845750509260019285926102c09896601498961061346b575b505050811b019055613282565b015160001960f88460031b161c191690558b808061345e565b600185968293968601518155019501930161343f565b6134c290848b52888b20601f850160051c8101918a861061072357601f0160051c0190614e81565b89613248565b634e487b7160e01b89526041600452602489fd5b015190508a8061052a565b838a52878a209190601f1984168b5b8a82821061353457505090846001959493921061351b575b505050811b01905561321a565b015160001960f88460031b161c1916905589808061350e565b60018596829396860151815501950193016134f6565b61357290848b52888b20601f850160051c8101918a861061072357601f0160051c0190614e81565b896131e8565b80518051906001600160401b038211613683579089918c6135998654614947565b84601f8211613655575b50505082908d601f84116001146135ea579280600196936135db9388979692611fa95750508160011b916000199060031b1c19161790565b85555b01920193019290613163565b9190868352848320925b601f198516811061363d5750926001959286959492869383601f19811610613624575b505050811b0185556135de565b015160001960f88460031b161c191690558f8080613617565b8183015184558d9560019094019392830192016135f4565b828861367b945220601f850160051c81019186861061072357601f0160051c0190614e81565b8c8e846135a3565b634e487b7160e01b8c52604160045260248cfd5b600e85018a52828a20908482015b81830181106136b5575050613154565b600191929394508b6136c78254614947565b806136da575b50500190889392916136a5565b8b601f821185146136f3575050508b81555b8b8d6136cd565b601f8591848661370d965220920160051c82019101614e81565b808c528b8a8120818355556136ec565b634e487b7160e01b88526041600452602488fd5b80518051906001600160401b038211613683579089918c6137528654614947565b84601f821161380e575b50505082908d601f84116001146137a3579280600196936137949388979692611fa95750508160011b916000199060031b1c19161790565b85555b01920193019290613120565b9190868352848320925b601f19851681106137f65750926001959286959492869383601f198116106137dd575b505050811b018555613797565b015160001960f88460031b161c191690558f80806137d0565b8183015184558d9560019094019392830192016137ad565b8288613834945220601f850160051c81019186861061072357601f0160051c0190614e81565b8c8e8461375c565b600d85018a52828a20908482015b818301811061385a575050613111565b600191929394508b61386c8254614947565b8061387f575b505001908893929161384a565b8b601f82118514613898575050508b81555b8b8d613872565b601f859184866138b2965220920160051c82019101614e81565b808c528b8a812081835555613891565b80518051906001600160401b038211613683579089918c6138e38654614947565b84601f821161399f575b50505082908d601f8411600114613934579280600196936139259388979692611fa95750508160011b916000199060031b1c19161790565b85555b01920193019290613091565b9190868352848320925b601f19851681106139875750926001959286959492869383601f1981161061396e575b505050811b018555613928565b015160001960f88460031b161c191690558f8080613961565b8183015184558d95600190940193928301920161393e565b82886139c5945220601f850160051c81019186861061072357601f0160051c0190614e81565b8c8e846138ed565b600585018a52828a20908482015b81830181106139eb575050613082565b600191929394508b6139fd8254614947565b80613a10575b50500190889392916139db565b8b601f82118514613a29575050508b81555b8b8d613a03565b601f85918486613a43965220920160051c82019101614e81565b808c528b8a812081835555613a22565b80518051906001600160401b038211613683579089918c613a748654614947565b84601f8211613b30575b50505082908d601f8411600114613ac557928060019693613ab69388979692611fa95750508160011b916000199060031b1c19161790565b85555b0192019301929061304f565b9190868352848320925b601f1985168110613b185750926001959286959492869383601f19811610613aff575b505050811b018555613ab9565b015160001960f88460031b161c191690558f8080613af2565b8183015184558d956001909401939283019201613acf565b8288613b56945220601f850160051c81019186861061072357601f0160051c0190614e81565b8c8e84613a7e565b600485018a52828a20908482015b8183018110613b7c575050613040565b600191929394508b613b8e8254614947565b80613ba1575b5050019088939291613b6c565b8b601f82118514613bba575050508b81555b8b8d613b94565b601f85918486613bd4965220920160051c82019101614e81565b808c528b8a812081835555613bb3565b91906002880160005285600020906000935b87601f1985168610613c3c57506001945083601f19811610613c23575b505050811b016002860155612fda565b015160001960f88460031b161c19169055878080613c13565b8282015184559485019460019093019290910190613bf6565b613c82906002890160005286600020601f850160051c81019188861061072357601f0160051c0190614e81565b87612fa4565b91906001880160005285600020906000935b87601f1985168610613ce057506001945083601f19811610613cc7575b505050811b016001860155612f78565b015160001960f88460031b161c19169055878080613cb7565b8282015184559485019460019093019290910190613c9a565b613d26906001890160005286600020601f850160051c81019188861061072357601f0160051c0190614e81565b87612f42565b613d45915060203d602011610d8f57610d8181836149d4565b8d612df1565b60405162461bcd60e51b815260206004820152601560248201527414dd185ad9481d1c985b9cd9995c8819985a5b1959605a1b6044820152606490fd5b613da1915060203d602011610d8f57610d8181836149d4565b8b612d8f565b60405162461bcd60e51b8152602060048201526012602482015271105b1c9958591e481c9959da5cdd195c995960721b6044820152606490fd5b346103805760a036600319011261038057600435613dfd614b45565b6044356001600160401b03811161038057613e1c903690600401614bde565b906064356001600160401b03811161038057613e3c903690600401614bde565b9160843590613e496153e8565b613e51615408565b428211156146115780518451036145d85760405160208101903360601b825286603482015242605482015260548152613e8b6074826149d4565b519020926000602060018060a01b0360035416606460018060a01b036004541660405194859384926323b872dd60e01b8452336004850152602484015268056bc75e2d6310000060448401525af18015610d9657613ef0916000916145b95750614e3f565b60405190613efd82614981565b8482526020820192338452604083019288845260ff606082019316978884526080820192835260a08201524260c08201528560e08201526101008101906000825260006080526080515060805150602060805260405192613f60608051856149d4565b60008452610120820193845261014082019468056bc75e2d631000008652610160830196600088528a60005260066080515260406000209884518a5560018060a01b0390511660018a019060018060a01b03166bffffffffffffffffffffffff60a01b82541617905551600289015560ff6003890191511660ff19825416179055600487019051805190600160401b821161072d578254828455808310614538575b5060805160009384528084209391015b82821061442657505050506005860160a0820151805190600160401b821161072d5782548284558083106143a5575b5060805160009384528084209391015b8282106142915750505060c082015160068801555060e001516007860155516140869061407d8161493d565b60088601614e98565b51805160098501916001600160401b03821161072d576140a68354614947565b601f811161425d575b5060805190601f83116001146141ee5791806140e792600b979695946000926111505750508160011b916000199060031b1c19161790565b90555b51600a84015551910180546001600160a01b0319166001600160a01b039290921691909117905533600090815260805160079052604090208054600160401b81101561072d57614144818593600161415b94018155614b2d565b819391549060031b91821b91600019901b19161790565b9055600954600160401b81101561072d576141826141448260018694016009556009614b2d565b905561418f600b54614eb0565b600b5561419d600c54614eb0565b600c5560405192835242608051840152604083015268056bc75e2d6310000060608301527f99b5c57b51b85e3aa3cb857a3bc3f430eef3eeac6ed535233f5f9cb36f33f99e60803393a46001600255005b90601f19831691846000526080516000209260005b8181106142445750916001939185600b99989796941061422b575b505050811b0190556140ea565b015160001960f88460031b161c191690558b808061421e565b8284015185556080516001909501949384019301614203565b61428b9084600052608051600020601f850160051c810191608051861061072357601f0160051c0190614e81565b8a6140af565b80518051906001600160401b03821161072d576142ae8654614947565b601f8111614371575b5060805190601f83116001146143015782600194929385946142ef93600092611fa95750508160011b916000199060031b1c19161790565b86555b60805101940191019092614051565b90866000526080516000209160005b601f198516811061435857509260019492859492859383601f1981161061433f575b505050811b0186556142f2565b015160001960f88460031b161c19169055388080614332565b8183015184556080516001909401939283019201614310565b61439f9087600052608051600020601f850160051c810191608051861061072357601f0160051c0190614e81565b386142b7565b836000528260805160002091820191015b8181106143c35750614041565b806143d060019254614947565b806143dd575b50016143b6565b601f811183146143f35750600081555b386143d6565b614412908260005283601f608051600020920160051c82019101614e81565b8060005260006080518120818355556143ed565b80518051906001600160401b03821161072d576144438654614947565b601f8111614504575b5060805190601f831160011461449657826001949293859461448493600092611fa95750508160011b916000199060031b1c19161790565b86555b60805101940191019092614012565b90601f19831691876000526080516000209260005b8181106144eb5750926001959392859287968795106144d2575b505050811b018655614487565b015160001960f88460031b161c191690553880806144c5565b82840151855560805160019095019493840193016144ab565b6145329087600052608051600020601f850160051c810191608051861061072357601f0160051c0190614e81565b3861444c565b836000528260805160002091820191015b8181106145565750614002565b8061456360019254614947565b80614570575b5001614549565b601f811183146145865750600081555b38614569565b6145a5908260005283601f608051600020920160051c82019101614e81565b806000526000608051812081835555614580565b6145d2915060203d602011610d8f57610d8181836149d4565b88612df1565b60405162461bcd60e51b81526020600482015260116024820152704d69736d6174636865642061727261797360781b6044820152606490fd5b60405162461bcd60e51b815260206004820152601060248201526f496e76616c696420646561646c696e6560801b6044820152606490fd5b3461038057604036600319011261038057614662614927565b336001600160a01b0382160361467e57610ba390600435615366565b63334bd91960e11b60005260046000fd5b34610380576000366003190112610380576020600b54604051908152f35b3461038057604036600319011261038057610ba36004356146cc614927565b906146e8610b9982600052600060205260016040600020015490565b6152db565b34610380576020366003190112610380576001600160a01b0361470e614911565b166000526005602052602060ff600f6040600020015460081c166040519015158152f35b346103805760403660031901126103805761474b614911565b6001600160a01b031660009081526007602052604090208054602435919082101561038057602091612a8191614b2d565b346103805760203660031901126103805760206147a9600435600052600060205260016040600020015490565b604051908152f35b346103805760203660031901126103805760043560005260066020526040600020805460018060a01b0360018301541691600281015461486860ff6003840154166006840154600785015460ff60088701541691614811600988016149f5565b93600a88015497600b60018060a01b0391015416966040519a8b9a8b5260208b015260408a01526060890152608088015260a08701526148508161493d565b60c086015261014060e0860152610140850190614abc565b916101008401526101208301520390f35b34610380576020366003190112610380576001600160a01b0361489a614911565b166000526005602052602060ff600f604060002001541660405190610f168161493d565b34610380576020366003190112610380576004359063ffffffff60e01b821680920361038057602091637965db0b60e01b8114908115614900575b5015158152f35b6301ffc9a760e01b149050836148f9565b600435906001600160a01b038216820361038057565b602435906001600160a01b038216820361038057565b6004111561135757565b90600182811c92168015614977575b602083101461496157565b634e487b7160e01b600052602260045260246000fd5b91607f1691614956565b61018081019081106001600160401b0382111761072d57604052565b608081019081106001600160401b0382111761072d57604052565b6102e081019081106001600160401b0382111761072d57604052565b90601f801991011681019081106001600160401b0382111761072d57604052565b9060405191826000825492614a0984614947565b8084529360018116908115614a775750600114614a30575b50614a2e925003836149d4565b565b90506000929192526020600020906000915b818310614a5b575050906020614a2e9282010138614a21565b6020919350806001915483858901015201910190918492614a42565b905060209250614a2e94915060ff191682840152151560051b82010138614a21565b60005b838110614aac5750506000910152565b8181015183820152602001614a9c565b90602091614ad581518092818552858086019101614a99565b601f01601f1916010190565b600854811015614afc57600860005260206000200190600090565b634e487b7160e01b600052603260045260246000fd5b600954811015614afc57600960005260206000200190600090565b8054821015614afc5760005260206000200190600090565b6024359060ff8216820361038057565b6004359060ff8216820361038057565b6001600160401b03811161072d5760051b60200190565b6001600160401b03811161072d57601f01601f191660200190565b81601f8201121561038057803590614bae82614b7c565b92614bbc60405194856149d4565b8284526020838301011161038057816000926020809301838601378301015290565b9080601f83011215610380578135614bf581614b65565b92614c0360405194856149d4565b81845260208085019260051b820101918383116103805760208201905b838210614c2f57505050505090565b81356001600160401b03811161038057602091614c5187848094880101614b97565b815201910190614c20565b602060408183019282815284518094520192019060005b818110614c805750505090565b82516001600160a01b0316845260209384019390920191600101614c73565b9060406003198301126103805760043591602435906001600160401b03821161038057614cce91600401614b97565b90565b9060088210156113575752565b9080602083519182815201916020808360051b8301019401926000915b838310614d0a57505050505090565b9091929394602080614d28600193601f198682030187528951614abc565b97019301930191939290614cfb565b908151815260018060a01b0360208301511660208201526040820151604082015260ff6060830151166060820152610160614dd8614d9b614d8960808601516101806080870152610180860190614cde565b60a086015185820360a0870152614cde565b60c085015160c085015260e085015160e0850152610100850151614dbe8161493d565b610100850152610120850151848203610120860152614abc565b6101408085015190840152928101516001600160a01b031691015290565b9060806060614cce938051845260208101516020850152604081015160408501520151918160608201520190614cde565b90816020910312610380575180151581036103805790565b15614e4657565b60405162461bcd60e51b8152602060048201526013602482015272119959481d1c985b9cd9995c8819985a5b1959606a1b6044820152606490fd5b818110614e8c575050565b60008155600101614e81565b90614ea28161493d565b60ff80198354169116179055565b60001981146106515760010190565b15614ec657565b60405162461bcd60e51b815260206004820152600c60248201526b24b73b30b634b2103a34b2b960a11b6044820152606490fd5b15614f0157565b60405162461bcd60e51b815260206004820152601760248201527f496e73756666696369656e7420657870657269656e63650000000000000000006044820152606490fd5b908154614f5281614b65565b92614f6060405194856149d4565b818452602084019060005260206000206000915b838310614f815750505050565b600160208192614f90856149f5565b815201920192019190614f74565b60088210156113575752565b90614fb48161493d565b61ff0082549160081b169061ff001916179055565b15614fd057565b60405162461bcd60e51b815260206004820152601660248201527514995c5d595cdd08191bd95cc81b9bdd08195e1a5cdd60521b6044820152606490fd5b1561501557565b60405162461bcd60e51b815260206004820152600e60248201526d496e76616c69642073746174757360901b6044820152606490fd5b8015610651576000190190565b9190820180921161065157565b6040519061507282614981565b60006101608382815282602082015282604082015282606082015260606080820152606060a08201528260c08201528260e0820152826101008201526060610120820152826101408201520152565b906150cb82614b65565b6150d860405191826149d4565b82815280926150e9601f1991614b65565b0190602036910137565b8051821015614afc5760209160051b010190565b3360009081527fad3228b676f7d3cd4284a5443f17f1962b36e491b30a40b2405849e597ba5fb5602052604090205460ff161561514057565b63e2517d3f60e01b60005233600452600060245260446000fd5b3360009081527f1da0b5176dfe03406af5a6eed66ca01dda9b45ac4da671c3fa379cb93717ef81602052604090205460ff161561519357565b63e2517d3f60e01b600052336004527f0ce23c3e399818cfee81a7ab0880f714e53d7672b08df0fa62f2843416e1ea0960245260446000fd5b60008181526020818152604080832033845290915290205460ff16156151ef5750565b63e2517d3f60e01b6000523360045260245260446000fd5b6001600160a01b03811660009081527f158ce6b8b15b31f27d2e55fc663f1cad7f7703488e44e0532708385221a66770602052604090205460ff166152d5576001600160a01b031660008181527f158ce6b8b15b31f27d2e55fc663f1cad7f7703488e44e0532708385221a6677060205260408120805460ff191660011790553391907fa7e0cd0f2772b23ee4c329892293a6bd99d48c306b094d6d008c9a8bb8b731e4907f2f8788117e7eff1d82e926ec794901d17c78024a50270940304540a733656f0d9080a4600190565b50600090565b6000818152602081815260408083206001600160a01b038616845290915290205460ff1661535f576000818152602081815260408083206001600160a01b0395909516808452949091528120805460ff19166001179055339291907f2f8788117e7eff1d82e926ec794901d17c78024a50270940304540a733656f0d9080a4600190565b5050600090565b6000818152602081815260408083206001600160a01b038616845290915290205460ff161561535f576000818152602081815260408083206001600160a01b0395909516808452949091528120805460ff19169055339291907ff6391f5c32d9c69d2a47ea670b442974b53935d1edc7fd64eb21e047a839171b9080a4600190565b60028054146153f75760028055565b633ee5aeb560e01b60005260046000fd5b60ff6001541661541457565b63d93c066560e01b60005260046000fdfea26469706673582212203b9176bf5fa2c1c62bedc53a9edc8148a75f08ebc493a298333361c102e0e41464736f6c634300081c00332f8788117e7eff1d82e926ec794901d17c78024a50270940304540a733656f0d1da0b5176dfe03406af5a6eed66ca01dda9b45ac4da671c3fa379cb93717ef8150726f66657373696f6e616c204c6963656e7365000000000000000000000000ad3228b676f7d3cd4284a5443f17f1962b36e491b30a40b2405849e597ba5fb5",
  "linkReferences": {},
  "deployedLinkReferences": {}
}