{
  "_format": "hh-sol-artifact-1",
  "contractName": "BatchMinting",
  "sourceName": "contracts/BatchMinting.sol",
  "abi": [
    {
      "inputs": [
        {
          "internalType": "address",
          "name": "_trustToken",
          "type": "address"
        },
        {
          "internalType": "address",
          "name": "_assetNFT",
          "type": "address"
        }
      ],
      "stateMutability": "nonpayable",
      "type": "constructor"
    },
    {
      "inputs": [],
      "name": "AccessControlBadConfirmation",
      "type": "error"
    },
    {
      "inputs": [
        {
          "internalType": "address",
          "name": "account",
          "type": "address"
        },
        {
          "internalType": "bytes32",
          "name": "neededRole",
          "type": "bytes32"
        }
      ],
      "name": "AccessControlUnauthorizedAccount",
      "type": "error"
    },
    {
      "inputs": [],
      "name": "EnforcedPause",
      "type": "error"
    },
    {
      "inputs": [],
      "name": "ExpectedPause",
      "type": "error"
    },
    {
      "inputs": [],
      "name": "ReentrancyGuardReentrantCall",
      "type": "error"
    },
    {
      "anonymous": false,
      "inputs": [
        {
          "indexed": true,
          "internalType": "address",
          "name": "to",
          "type": "address"
        },
        {
          "indexed": false,
          "internalType": "uint256[]",
          "name": "tokenIds",
          "type": "uint256[]"
        },
        {
          "indexed": false,
          "internalType": "uint256",
          "name": "totalFee",
          "type": "uint256"
        },
        {
          "indexed": false,
          "internalType": "uint256",
          "name": "batchType",
          "type": "uint256"
        }
      ],
      "name": "BatchMinted",
      "type": "event"
    },
    {
      "anonymous": false,
      "inputs": [
        {
          "indexed": true,
          "internalType": "uint256",
          "name": "collectionId",
          "type": "uint256"
        },
        {
          "indexed": false,
          "internalType": "string",
          "name": "name",
          "type": "string"
        },
        {
          "indexed": false,
          "internalType": "uint256",
          "name": "totalSupply",
          "type": "uint256"
        },
        {
          "indexed": false,
          "internalType": "uint256",
          "name": "mintPrice",
          "type": "uint256"
        }
      ],
      "name": "CollectionCreated",
      "type": "event"
    },
    {
      "anonymous": false,
      "inputs": [
        {
          "indexed": true,
          "internalType": "uint256",
          "name": "collectionId",
          "type": "uint256"
        },
        {
          "indexed": true,
          "internalType": "address",
          "name": "to",
          "type": "address"
        },
        {
          "indexed": false,
          "internalType": "uint256[]",
          "name": "tokenIds",
          "type": "uint256[]"
        },
        {
          "indexed": false,
          "internalType": "uint256",
          "name": "quantity",
          "type": "uint256"
        }
      ],
      "name": "CollectionMinted",
      "type": "event"
    },
    {
      "anonymous": false,
      "inputs": [
        {
          "indexed": false,
          "internalType": "address",
          "name": "account",
          "type": "address"
        }
      ],
      "name": "Paused",
      "type": "event"
    },
    {
      "anonymous": false,
      "inputs": [
        {
          "indexed": true,
          "internalType": "bytes32",
          "name": "role",
          "type": "bytes32"
        },
        {
          "indexed": true,
          "internalType": "bytes32",
          "name": "previousAdminRole",
          "type": "bytes32"
        },
        {
          "indexed": true,
          "internalType": "bytes32",
          "name": "newAdminRole",
          "type": "bytes32"
        }
      ],
      "name": "RoleAdminChanged",
      "type": "event"
    },
    {
      "anonymous": false,
      "inputs": [
        {
          "indexed": true,
          "internalType": "bytes32",
          "name": "role",
          "type": "bytes32"
        },
        {
          "indexed": true,
          "internalType": "address",
          "name": "account",
          "type": "address"
        },
        {
          "indexed": true,
          "internalType": "address",
          "name": "sender",
          "type": "address"
        }
      ],
      "name": "RoleGranted",
      "type": "event"
    },
    {
      "anonymous": false,
      "inputs": [
        {
          "indexed": true,
          "internalType": "bytes32",
          "name": "role",
          "type": "bytes32"
        },
        {
          "indexed": true,
          "internalType": "address",
          "name": "account",
          "type": "address"
        },
        {
          "indexed": true,
          "internalType": "address",
          "name": "sender",
          "type": "address"
        }
      ],
      "name": "RoleRevoked",
      "type": "event"
    },
    {
      "anonymous": false,
      "inputs": [
        {
          "indexed": false,
          "internalType": "address",
          "name": "account",
          "type": "address"
        }
      ],
      "name": "Unpaused",
      "type": "event"
    },
    {
      "inputs": [],
      "name": "AUCTION_MINT_FEE",
      "outputs": [
        {
          "internalType": "uint256",
          "name": "",
          "type": "uint256"
        }
      ],
      "stateMutability": "view",
      "type": "function"
    },
    {
      "inputs": [],
      "name": "BATCH_MINT_FEE",
      "outputs": [
        {
          "internalType": "uint256",
          "name": "",
          "type": "uint256"
        }
      ],
      "stateMutability": "view",
      "type": "function"
    },
    {
      "inputs": [],
      "name": "COLLECTION_MINT_FEE",
      "outputs": [
        {
          "internalType": "uint256",
          "name": "",
          "type": "uint256"
        }
      ],
      "stateMutability": "view",
      "type": "function"
    },
    {
      "inputs": [],
      "name": "DEFAULT_ADMIN_ROLE",
      "outputs": [
        {
          "internalType": "bytes32",
          "name": "",
          "type": "bytes32"
        }
      ],
      "stateMutability": "view",
      "type": "function"
    },
    {
      "inputs": [],
      "name": "DROP_MINT_FEE",
      "outputs": [
        {
          "internalType": "uint256",
          "name": "",
          "type": "uint256"
        }
      ],
      "stateMutability": "view",
      "type": "function"
    },
    {
      "inputs": [],
      "name": "MANAGER_ROLE",
      "outputs": [
        {
          "internalType": "bytes32",
          "name": "",
          "type": "bytes32"
        }
      ],
      "stateMutability": "view",
      "type": "function"
    },
    {
      "inputs": [],
      "name": "MAX_BATCH_SIZE",
      "outputs": [
        {
          "internalType": "uint256",
          "name": "",
          "type": "uint256"
        }
      ],
      "stateMutability": "view",
      "type": "function"
    },
    {
      "inputs": [],
      "name": "MINTER_ROLE",
      "outputs": [
        {
          "internalType": "bytes32",
          "name": "",
          "type": "bytes32"
        }
      ],
      "stateMutability": "view",
      "type": "function"
    },
    {
      "inputs": [],
      "name": "MIN_BATCH_SIZE",
      "outputs": [
        {
          "internalType": "uint256",
          "name": "",
          "type": "uint256"
        }
      ],
      "stateMutability": "view",
      "type": "function"
    },
    {
      "inputs": [],
      "name": "MIN_COLLECTION_SIZE",
      "outputs": [
        {
          "internalType": "uint256",
          "name": "",
          "type": "uint256"
        }
      ],
      "stateMutability": "view",
      "type": "function"
    },
    {
      "inputs": [],
      "name": "SINGLE_MINT_FEE",
      "outputs": [
        {
          "internalType": "uint256",
          "name": "",
          "type": "uint256"
        }
      ],
      "stateMutability": "view",
      "type": "function"
    },
    {
      "inputs": [],
      "name": "assetNFT",
      "outputs": [
        {
          "internalType": "contract ERC721",
          "name": "",
          "type": "address"
        }
      ],
      "stateMutability": "view",
      "type": "function"
    },
    {
      "inputs": [
        {
          "internalType": "uint256",
          "name": "",
          "type": "uint256"
        }
      ],
      "name": "collections",
      "outputs": [
        {
          "internalType": "string",
          "name": "name",
          "type": "string"
        },
        {
          "internalType": "string",
          "name": "description",
          "type": "string"
        },
        {
          "internalType": "uint256",
          "name": "totalSupply",
          "type": "uint256"
        },
        {
          "internalType": "uint256",
          "name": "minted",
          "type": "uint256"
        },
        {
          "internalType": "uint256",
          "name": "mintPrice",
          "type": "uint256"
        },
        {
          "internalType": "uint256",
          "name": "startTime",
          "type": "uint256"
        },
        {
          "internalType": "uint256",
          "name": "endTime",
          "type": "uint256"
        },
        {
          "internalType": "bool",
          "name": "isActive",
          "type": "bool"
        },
        {
          "internalType": "address",
          "name": "creator",
          "type": "address"
        }
      ],
      "stateMutability": "view",
      "type": "function"
    },
    {
      "inputs": [
        {
          "internalType": "string",
          "name": "name",
          "type": "string"
        },
        {
          "internalType": "string",
          "name": "description",
          "type": "string"
        },
        {
          "internalType": "uint256",
          "name": "totalSupply",
          "type": "uint256"
        },
        {
          "internalType": "uint256",
          "name": "mintPrice",
          "type": "uint256"
        },
        {
          "internalType": "uint256",
          "name": "startTime",
          "type": "uint256"
        },
        {
          "internalType": "uint256",
          "name": "endTime",
          "type": "uint256"
        }
      ],
      "name": "createCollection",
      "outputs": [],
      "stateMutability": "nonpayable",
      "type": "function"
    },
    {
      "inputs": [
        {
          "internalType": "uint256",
          "name": "collectionId",
          "type": "uint256"
        }
      ],
      "name": "getCollection",
      "outputs": [
        {
          "components": [
            {
              "internalType": "string",
              "name": "name",
              "type": "string"
            },
            {
              "internalType": "string",
              "name": "description",
              "type": "string"
            },
            {
              "internalType": "uint256",
              "name": "totalSupply",
              "type": "uint256"
            },
            {
              "internalType": "uint256",
              "name": "minted",
              "type": "uint256"
            },
            {
              "internalType": "uint256",
              "name": "mintPrice",
              "type": "uint256"
            },
            {
              "internalType": "uint256",
              "name": "startTime",
              "type": "uint256"
            },
            {
              "internalType": "uint256",
              "name": "endTime",
              "type": "uint256"
            },
            {
              "internalType": "bool",
              "name": "isActive",
              "type": "bool"
            },
            {
              "internalType": "address",
              "name": "creator",
              "type": "address"
            }
          ],
          "internalType": "struct BatchMinting.Collection",
          "name": "",
          "type": "tuple"
        }
      ],
      "stateMutability": "view",
      "type": "function"
    },
    {
      "inputs": [
        {
          "internalType": "bytes32",
          "name": "role",
          "type": "bytes32"
        }
      ],
      "name": "getRoleAdmin",
      "outputs": [
        {
          "internalType": "bytes32",
          "name": "",
          "type": "bytes32"
        }
      ],
      "stateMutability": "view",
      "type": "function"
    },
    {
      "inputs": [
        {
          "internalType": "bytes32",
          "name": "role",
          "type": "bytes32"
        },
        {
          "internalType": "address",
          "name": "account",
          "type": "address"
        }
      ],
      "name": "grantRole",
      "outputs": [],
      "stateMutability": "nonpayable",
      "type": "function"
    },
    {
      "inputs": [
        {
          "internalType": "bytes32",
          "name": "role",
          "type": "bytes32"
        },
        {
          "internalType": "address",
          "name": "account",
          "type": "address"
        }
      ],
      "name": "hasRole",
      "outputs": [
        {
          "internalType": "bool",
          "name": "",
          "type": "bool"
        }
      ],
      "stateMutability": "view",
      "type": "function"
    },
    {
      "inputs": [
        {
          "internalType": "address",
          "name": "to",
          "type": "address"
        },
        {
          "internalType": "uint256[]",
          "name": "categories",
          "type": "uint256[]"
        },
        {
          "internalType": "string[]",
          "name": "assetTypes",
          "type": "string[]"
        },
        {
          "internalType": "string[]",
          "name": "names",
          "type": "string[]"
        },
        {
          "internalType": "string[]",
          "name": "locations",
          "type": "string[]"
        },
        {
          "internalType": "uint256[]",
          "name": "totalValues",
          "type": "uint256[]"
        },
        {
          "internalType": "string[]",
          "name": "imageURIs",
          "type": "string[]"
        },
        {
          "internalType": "string[]",
          "name": "descriptions",
          "type": "string[]"
        }
      ],
      "name": "mintBatch",
      "outputs": [],
      "stateMutability": "nonpayable",
      "type": "function"
    },
    {
      "inputs": [
        {
          "internalType": "uint256",
          "name": "collectionId",
          "type": "uint256"
        },
        {
          "internalType": "uint256",
          "name": "quantity",
          "type": "uint256"
        },
        {
          "internalType": "address",
          "name": "to",
          "type": "address"
        }
      ],
      "name": "mintFromCollection",
      "outputs": [],
      "stateMutability": "nonpayable",
      "type": "function"
    },
    {
      "inputs": [],
      "name": "nextCollectionId",
      "outputs": [
        {
          "internalType": "uint256",
          "name": "",
          "type": "uint256"
        }
      ],
      "stateMutability": "view",
      "type": "function"
    },
    {
      "inputs": [],
      "name": "pause",
      "outputs": [],
      "stateMutability": "nonpayable",
      "type": "function"
    },
    {
      "inputs": [],
      "name": "paused",
      "outputs": [
        {
          "internalType": "bool",
          "name": "",
          "type": "bool"
        }
      ],
      "stateMutability": "view",
      "type": "function"
    },
    {
      "inputs": [
        {
          "internalType": "bytes32",
          "name": "role",
          "type": "bytes32"
        },
        {
          "internalType": "address",
          "name": "callerConfirmation",
          "type": "address"
        }
      ],
      "name": "renounceRole",
      "outputs": [],
      "stateMutability": "nonpayable",
      "type": "function"
    },
    {
      "inputs": [
        {
          "internalType": "bytes32",
          "name": "role",
          "type": "bytes32"
        },
        {
          "internalType": "address",
          "name": "account",
          "type": "address"
        }
      ],
      "name": "revokeRole",
      "outputs": [],
      "stateMutability": "nonpayable",
      "type": "function"
    },
    {
      "inputs": [
        {
          "internalType": "bytes4",
          "name": "interfaceId",
          "type": "bytes4"
        }
      ],
      "name": "supportsInterface",
      "outputs": [
        {
          "internalType": "bool",
          "name": "",
          "type": "bool"
        }
      ],
      "stateMutability": "view",
      "type": "function"
    },
    {
      "inputs": [],
      "name": "trustToken",
      "outputs": [
        {
          "internalType": "contract IERC20",
          "name": "",
          "type": "address"
        }
      ],
      "stateMutability": "view",
      "type": "function"
    },
    {
      "inputs": [],
      "name": "unpause",
      "outputs": [],
      "stateMutability": "nonpayable",
      "type": "function"
    },
    {
      "inputs": [],
      "name": "withdraw",
      "outputs": [],
      "stateMutability": "nonpayable",
      "type": "function"
    }
  ],
  "bytecode": "0x60c0346100b857601f611e8938819003918201601f19168301916001600160401b038311848410176100bd5780849260409485528339810103126100b857610052602061004b836100d3565b92016100d3565b600160028190556004556001600160a01b039182166080521660a052610077336100e7565b5061008133610163565b50604051611c2d90816101fc82396080518181816103590152818161053d01528181610a00015261144b015260a051816103d60152f35b600080fd5b634e487b7160e01b600052604160045260246000fd5b51906001600160a01b03821682036100b857565b6001600160a01b0381166000908152600080516020611e69833981519152602052604090205460ff1661015d576001600160a01b03166000818152600080516020611e6983398151915260205260408120805460ff19166001179055339190600080516020611e298339815191528180a4600190565b50600090565b6001600160a01b0381166000908152600080516020611e49833981519152602052604090205460ff1661015d576001600160a01b03166000818152600080516020611e4983398151915260205260408120805460ff191660011790553391907f241ecf16d79d0f8dbfb92cbc07fe17840425976cf0667f022fe9877caa831b0890600080516020611e298339815191529080a460019056fe608080604052600436101561001357600080fd5b60003560e01c90816301ffc9a7146115d857508063248a9ca3146115a35780632f2ff15d1461156357806336568abe1461151d5780633ccfd60b1461141d5780633f4ba83a146113b45780634fa40b04146113915780635a1f3c28146112295780635c975abb14611206578063788da8d114610d0157806380dd2be814610ce55780638456cb5914610c8c5780638c906a441461084257806391d14854146107f55780639efd676614610467578063a1bff78614610444578063a217fddf14610428578063a6c998ae14610405578063ac6a258d146103c0578063c9d6a9f6146103a4578063cfdbf25414610388578063d13deb2f14610343578063d539139314610308578063d547741f146102c1578063d9ccfd7a1461029e578063e77d6f7c14610280578063ec87621c14610245578063ee943b18146102225763fdbda0ec1461015e57600080fd5b3461021d57602036600319011261021d5760043560005260036020526101d2604060002061018b81611848565b9061019860018201611848565b600282015491600381015460048201546005830154916101e06007600686015495015495604051998a996101208b526101208b0190611664565b9089820360208b0152611664565b60408801969096526060870152608086015260a085015260c084015260ff8116151560e084015260081c6001600160a01b03166101008301520390f35b600080fd5b3461021d57600036600319011261021d57602060405167a688906bd8b000008152f35b3461021d57600036600319011261021d5760206040517f241ecf16d79d0f8dbfb92cbc07fe17840425976cf0667f022fe9877caa831b088152f35b3461021d57600036600319011261021d576020600454604051908152f35b3461021d57600036600319011261021d5760206040516753444835ec5800008152f35b3461021d57604036600319011261021d576103066004356102e061162b565b906103016102fc82600052600060205260016040600020015490565b611a72565b611b38565b005b3461021d57600036600319011261021d5760206040517f9f2df0fed2c77648de5860a4cc508cd0818c85b8b8a1ab4ceeef8d981c8956a68152f35b3461021d57600036600319011261021d576040517f00000000000000000000000000000000000000000000000000000000000000006001600160a01b03168152602090f35b3461021d57600036600319011261021d57602060405160648152f35b3461021d57600036600319011261021d576020604051600a8152f35b3461021d57600036600319011261021d576040517f00000000000000000000000000000000000000000000000000000000000000006001600160a01b03168152602090f35b3461021d57600036600319011261021d57602060405167d02ab486cedc00008152f35b3461021d57600036600319011261021d57602060405160008152f35b3461021d57600036600319011261021d576020604051676f05b59d3b2000008152f35b3461021d57606036600319011261021d576044356001600160a01b03811690600435906024359083900361021d5761049d611bba565b6104a5611bd7565b81600052600360205260406000209060ff600783015416156107a4576005820154421061075557600682015442116107105760038201916104e78284546119f3565b6002820154106106c057811561067b57602061050a836004610537940154611950565b6040516323b872dd60e01b8152336004820152306024820152604481019190915291829081906064820190565b038160007f00000000000000000000000000000000000000000000000000000000000000006001600160a01b03165af1801561066f5761057f91600091610640575b50611904565b61058881611963565b9160008154903360601b905b8481106105f4575050917fca85947a0aacd2230ac27a14c97c7835e38f1deabeb7fc6a5889b160a5d91d5d93916105ce826105e4956119f3565b90556040519283926040845260408401906119bf565b9060208301520390a36001600255005b80610601600192856119f3565b60405160208101918a835260408201524260608201528460808201526074815261062c6094826116a5565b5190206106398289611995565b5201610594565b610662915060203d602011610668575b61065a81836116a5565b8101906118ec565b86610579565b503d610650565b6040513d6000823e3d90fd5b60405162461bcd60e51b815260206004820152601e60248201527f42617463684d696e74696e673a20696e76616c6964207175616e7469747900006044820152606490fd5b60405162461bcd60e51b815260206004820152602260248201527f42617463684d696e74696e673a206578636565647320746f74616c20737570706044820152616c7960f01b6064820152608490fd5b60405162461bcd60e51b815260206004820152601b60248201527f42617463684d696e74696e673a206d696e74696e6720656e64656400000000006044820152606490fd5b60405162461bcd60e51b815260206004820152602160248201527f42617463684d696e74696e673a206d696e74696e67206e6f74207374617274656044820152601960fa1b6064820152608490fd5b60405162461bcd60e51b815260206004820152602360248201527f42617463684d696e74696e673a20636f6c6c656374696f6e206e6f742061637460448201526269766560e81b6064820152608490fd5b3461021d57604036600319011261021d5761080e61162b565b600435600052600060205260406000209060018060a01b0316600052602052602060ff604060002054166040519015158152f35b3461021d5761010036600319011261021d576004356001600160a01b0381169081900361021d576024356001600160401b03811161021d57610888903690600401611733565b6044356001600160401b03811161021d576108a7903690600401611790565b906064356001600160401b03811161021d576108c7903690600401611790565b916084356001600160401b03811161021d576108e7903690600401611790565b5060a4356001600160401b03811161021d57610907903690600401611733565b5060c4356001600160401b03811161021d57610927903690600401611790565b5060e4356001600160401b03811161021d57610947903690600401611790565b50610950611bba565b610958611bd7565b3360009081527f0781d7cac9c378efa22a7481e4d4d29704a680ddf504b3bc50b517700ee11e6c602052604090205460ff1615610c3b578151905103610bea576005815110610ba5576064815111610b6057805190600a821080159190610b4e576109cb836753444835ec580000611950565b6040516323b872dd60e01b81523360048201523060248201526044810182905290939060208160648160006001600160a01b037f0000000000000000000000000000000000000000000000000000000000000000165af1801561066f57610a3d91600091610b2f575b50929192611904565b610a4682611963565b943360601b9160005b848110610abb57887fa8ce8eed9629ee5e5119ca54195bc3c9e61f1a3d80943ccdc04dcb9223b554a1610a9c8a8a8a15610ab25760ff60015b6040519485946060865260608601906119bf565b9260208501521660408301520390a26001600255005b60ff6000610a88565b80610ac860019284611995565b51610ad38286611995565b51610b1b6094604051809360208201954287528b60408401528760548401526074830152610b0a8151809260208686019101611641565b81010301601f1981018352826116a5565b519020610b28828b611995565b5201610a4f565b610b48915060203d6020116106685761065a81836116a5565b88610a34565b6109cb83676f05b59d3b200000611950565b60405162461bcd60e51b815260206004820152601d60248201527f42617463684d696e74696e673a20626174636820746f6f206c617267650000006044820152606490fd5b60405162461bcd60e51b815260206004820152601d60248201527f42617463684d696e74696e673a20626174636820746f6f20736d616c6c0000006044820152606490fd5b60405162461bcd60e51b8152602060048201526024808201527f42617463684d696e74696e673a20617272617973206c656e677468206d69736d6044820152630c2e8c6d60e31b6064820152608490fd5b60405162461bcd60e51b8152602060048201526024808201527f42617463684d696e74696e673a2063616c6c6572206973206e6f742061206d69604482015263373a32b960e11b6064820152608490fd5b3461021d57600036600319011261021d57610ca5611a00565b610cad611bba565b600160ff19815416176001557f62e78cea01bee320cd4e420270b5ea74000d11b0c9f74754ebdbfc544b05a2586020604051338152a1005b3461021d57600036600319011261021d57602060405160058152f35b3461021d5760c036600319011261021d576004356001600160401b03811161021d57610d319036906004016116c6565b6024356001600160401b03811161021d57610d509036906004016116c6565b9060843560a43592610d60611bba565b604435156111b65783821015611172576064351561112e57600454936000198514611118576001850160045560405192610d9984611689565b84845260208401928352604435604085015260006060850152606435608085015260a084015260c0830152600160e08301523361010083015283600052600360205260406000209082518051906001600160401b03821161103f578190610e00855461180e565b601f81116110c5575b50602090601f831160011461106057600092611055575b50508160011b916000199060031b1c19161782555b518051906001600160401b03821161103f57610e54600184015461180e565b601f8111610ff4575b50602090601f8311600114610f59577f71451d4dd46df15e69b011365182b727376669ef9dfe72e8c36fefd037a60a0b959383610f39969461010094600794600092610f4e575b50508160011b916000199060031b1c19161760018201555b60408401516002820155606084015160038201556080840151600482015560a0840151600582015560c08401516006820155019160e0810151151560ff801985541691161783550151815490610100600160a81b039060081b1690610100600160a81b031916179055604051918291606083526060830190611664565b604435602083015260643560408301520390a2005b015190508a80610ea4565b9060018401600052806000209160005b601f1985168110610fdc575093600184610100946007947f71451d4dd46df15e69b011365182b727376669ef9dfe72e8c36fefd037a60a0b9a98610f399a98601f19811610610fc3575b505050811b016001820155610ebc565b015160001960f88460031b161c191690558a8080610fb3565b91926020600181928685015181550194019201610f69565b600184016000526020600020601f840160051c81019160208510611035575b601f0160051c01905b8181106110295750610e5d565b6000815560010161101c565b9091508190611013565b634e487b7160e01b600052604160045260246000fd5b015190508780610e20565b60008681528281209350601f198516905b8181106110ad5750908460019594939210611094575b505050811b018255610e35565b015160001960f88460031b161c19169055878080611087565b92936020600181928786015181550195019301611071565b909150846000526020600020601f840160051c8101916020851061110e575b90601f859493920160051c01905b8181106110ff5750610e09565b600081558493506001016110f2565b90915081906110e4565b634e487b7160e01b600052601160045260246000fd5b606460405162461bcd60e51b815260206004820152602060248201527f42617463684d696e74696e673a20696e76616c6964206d696e742070726963656044820152fd5b606460405162461bcd60e51b815260206004820152602060248201527f42617463684d696e74696e673a20696e76616c69642074696d652072616e67656044820152fd5b60405162461bcd60e51b815260206004820152602260248201527f42617463684d696e74696e673a20696e76616c696420746f74616c20737570706044820152616c7960f01b6064820152608490fd5b3461021d57600036600319011261021d57602060ff600154166040519015158152f35b3461021d57602036600319011261021d57600061010060405161124b81611689565b60608152606060208201528260408201528260608201528260808201528260a08201528260c08201528260e08201520152600435600052600360205261134260406000206040519061129c82611689565b6112a581611848565b82526112b360018201611848565b9060208301918252600281015491604084019283526003820154916060850192835260048101546080860190815260058201549060a08701918252600760068401549360c0890194855201549461135560e089019560ff8816151587526101008a019760018060a01b039060081c1688526040519a8b9a60208c525161012060208d01526101408c0190611664565b90518a8203601f190160408c0152611664565b965160608901525160808801525160a08701525160c08601525160e0850152511515610100840152516001600160a01b03166101208301520390f35b3461021d57600036600319011261021d576020604051678ac7230489e800008152f35b3461021d57600036600319011261021d576113cd611a00565b60015460ff81161561140c5760ff19166001557f5db9ee0a495bf2e6ff9c91a7834c1ba4fdd244a5e8aa4e537bd38aeae4b073aa6020604051338152a1005b638dfc202b60e01b60005260046000fd5b3461021d57600036600319011261021d57611436611a00565b6040516370a0823160e01b81523060048201527f00000000000000000000000000000000000000000000000000000000000000006001600160a01b031690602081602481855afa90811561066f576000916114ea575b506000916044602092604051948593849263a9059cbb60e01b845233600485015260248401525af1801561066f57610306916000916114cb5750611904565b6114e4915060203d6020116106685761065a81836116a5565b82610579565b90506020813d602011611515575b81611505602093836116a5565b8101031261021d5751600061148c565b3d91506114f8565b3461021d57604036600319011261021d5761153661162b565b336001600160a01b038216036115525761030690600435611b38565b63334bd91960e11b60005260046000fd5b3461021d57604036600319011261021d5761030660043561158261162b565b9061159e6102fc82600052600060205260016040600020015490565b611aad565b3461021d57602036600319011261021d5760206115d0600435600052600060205260016040600020015490565b604051908152f35b3461021d57602036600319011261021d576004359063ffffffff60e01b821680920361021d57602091637965db0b60e01b811490811561161a575b5015158152f35b6301ffc9a760e01b14905083611613565b602435906001600160a01b038216820361021d57565b60005b8381106116545750506000910152565b8181015183820152602001611644565b9060209161167d81518092818552858086019101611641565b601f01601f1916010190565b61012081019081106001600160401b0382111761103f57604052565b90601f801991011681019081106001600160401b0382111761103f57604052565b81601f8201121561021d578035906001600160401b03821161103f57604051926116fa601f8401601f1916602001856116a5565b8284526020838301011161021d57816000926020809301838601378301015290565b6001600160401b03811161103f5760051b60200190565b9080601f8301121561021d57813561174a8161171c565b9261175860405194856116a5565b81845260208085019260051b82010192831161021d57602001905b8282106117805750505090565b8135815260209182019101611773565b9080601f8301121561021d5781356117a78161171c565b926117b560405194856116a5565b81845260208085019260051b8201019183831161021d5760208201905b8382106117e157505050505090565b81356001600160401b03811161021d57602091611803878480948801016116c6565b8152019101906117d2565b90600182811c9216801561183e575b602083101461182857565b634e487b7160e01b600052602260045260246000fd5b91607f169161181d565b906040519182600082549261185c8461180e565b80845293600181169081156118ca5750600114611883575b50611881925003836116a5565b565b90506000929192526020600020906000915b8183106118ae5750509060206118819282010138611874565b6020919350806001915483858901015201910190918492611895565b90506020925061188194915060ff191682840152151560051b82010138611874565b9081602091031261021d5751801515810361021d5790565b1561190b57565b60405162461bcd60e51b815260206004820152601d60248201527f42617463684d696e74696e673a207472616e73666572206661696c65640000006044820152606490fd5b8181029291811591840414171561111857565b9061196d8261171c565b61197a60405191826116a5565b828152809261198b601f199161171c565b0190602036910137565b80518210156119a95760209160051b010190565b634e487b7160e01b600052603260045260246000fd5b906020808351928381520192019060005b8181106119dd5750505090565b82518452602093840193909201916001016119d0565b9190820180921161111857565b3360009081527fe84508f2c7fa9c351146748b3025cb78b45df37d868e48c6a75102fecdeee645602052604090205460ff1615611a3957565b63e2517d3f60e01b600052336004527f241ecf16d79d0f8dbfb92cbc07fe17840425976cf0667f022fe9877caa831b0860245260446000fd5b60008181526020818152604080832033845290915290205460ff1615611a955750565b63e2517d3f60e01b6000523360045260245260446000fd5b6000818152602081815260408083206001600160a01b038616845290915290205460ff16611b31576000818152602081815260408083206001600160a01b0395909516808452949091528120805460ff19166001179055339291907f2f8788117e7eff1d82e926ec794901d17c78024a50270940304540a733656f0d9080a4600190565b5050600090565b6000818152602081815260408083206001600160a01b038616845290915290205460ff1615611b31576000818152602081815260408083206001600160a01b0395909516808452949091528120805460ff19169055339291907ff6391f5c32d9c69d2a47ea670b442974b53935d1edc7fd64eb21e047a839171b9080a4600190565b60ff60015416611bc657565b63d93c066560e01b60005260046000fd5b6002805414611be65760028055565b633ee5aeb560e01b60005260046000fdfea264697066735822122023154b0bfa145e24430d29bb01ade0b67908dc5be308b270b128eaad2bdd4efb64736f6c634300081c00332f8788117e7eff1d82e926ec794901d17c78024a50270940304540a733656f0de84508f2c7fa9c351146748b3025cb78b45df37d868e48c6a75102fecdeee645ad3228b676f7d3cd4284a5443f17f1962b36e491b30a40b2405849e597ba5fb5",
  "linkReferences": {},
  "deployedLinkReferences": {}
}