{
  "_format": "hh-sol-artifact-1",
  "contractName": "PoolManager",
  "sourceName": "contracts/PoolManager.sol",
  "abi": [
    {
      "inputs": [],
      "stateMutability": "nonpayable",
      "type": "constructor"
    },
    {
      "inputs": [],
      "name": "AccessControlBadConfirmation",
      "type": "error"
    },
    {
      "inputs": [
        {
          "internalType": "address",
          "name": "account",
          "type": "address"
        },
        {
          "internalType": "bytes32",
          "name": "neededRole",
          "type": "bytes32"
        }
      ],
      "name": "AccessControlUnauthorizedAccount",
      "type": "error"
    },
    {
      "inputs": [],
      "name": "EnforcedPause",
      "type": "error"
    },
    {
      "inputs": [],
      "name": "ExpectedPause",
      "type": "error"
    },
    {
      "inputs": [],
      "name": "ReentrancyGuardReentrantCall",
      "type": "error"
    },
    {
      "anonymous": false,
      "inputs": [
        {
          "indexed": true,
          "internalType": "bytes32",
          "name": "poolId",
          "type": "bytes32"
        },
        {
          "indexed": true,
          "internalType": "address",
          "name": "investor",
          "type": "address"
        },
        {
          "indexed": false,
          "internalType": "uint256",
          "name": "amount",
          "type": "uint256"
        }
      ],
      "name": "InvestmentMade",
      "type": "event"
    },
    {
      "anonymous": false,
      "inputs": [
        {
          "indexed": false,
          "internalType": "address",
          "name": "account",
          "type": "address"
        }
      ],
      "name": "Paused",
      "type": "event"
    },
    {
      "anonymous": false,
      "inputs": [
        {
          "indexed": true,
          "internalType": "bytes32",
          "name": "poolId",
          "type": "bytes32"
        },
        {
          "indexed": true,
          "internalType": "address",
          "name": "manager",
          "type": "address"
        },
        {
          "indexed": false,
          "internalType": "string",
          "name": "name",
          "type": "string"
        },
        {
          "indexed": false,
          "internalType": "uint256",
          "name": "targetValue",
          "type": "uint256"
        }
      ],
      "name": "PoolCreated",
      "type": "event"
    },
    {
      "anonymous": false,
      "inputs": [
        {
          "indexed": true,
          "internalType": "bytes32",
          "name": "poolId",
          "type": "bytes32"
        },
        {
          "indexed": false,
          "internalType": "bool",
          "name": "isActive",
          "type": "bool"
        }
      ],
      "name": "PoolStatusUpdated",
      "type": "event"
    },
    {
      "anonymous": false,
      "inputs": [
        {
          "indexed": true,
          "internalType": "bytes32",
          "name": "poolId",
          "type": "bytes32"
        },
        {
          "indexed": false,
          "internalType": "uint256",
          "name": "totalRewards",
          "type": "uint256"
        }
      ],
      "name": "RewardsDistributed",
      "type": "event"
    },
    {
      "anonymous": false,
      "inputs": [
        {
          "indexed": true,
          "internalType": "bytes32",
          "name": "role",
          "type": "bytes32"
        },
        {
          "indexed": true,
          "internalType": "bytes32",
          "name": "previousAdminRole",
          "type": "bytes32"
        },
        {
          "indexed": true,
          "internalType": "bytes32",
          "name": "newAdminRole",
          "type": "bytes32"
        }
      ],
      "name": "RoleAdminChanged",
      "type": "event"
    },
    {
      "anonymous": false,
      "inputs": [
        {
          "indexed": true,
          "internalType": "bytes32",
          "name": "role",
          "type": "bytes32"
        },
        {
          "indexed": true,
          "internalType": "address",
          "name": "account",
          "type": "address"
        },
        {
          "indexed": true,
          "internalType": "address",
          "name": "sender",
          "type": "address"
        }
      ],
      "name": "RoleGranted",
      "type": "event"
    },
    {
      "anonymous": false,
      "inputs": [
        {
          "indexed": true,
          "internalType": "bytes32",
          "name": "role",
          "type": "bytes32"
        },
        {
          "indexed": true,
          "internalType": "address",
          "name": "account",
          "type": "address"
        },
        {
          "indexed": true,
          "internalType": "address",
          "name": "sender",
          "type": "address"
        }
      ],
      "name": "RoleRevoked",
      "type": "event"
    },
    {
      "anonymous": false,
      "inputs": [
        {
          "indexed": false,
          "internalType": "address",
          "name": "account",
          "type": "address"
        }
      ],
      "name": "Unpaused",
      "type": "event"
    },
    {
      "inputs": [],
      "name": "DEFAULT_ADMIN_ROLE",
      "outputs": [
        {
          "internalType": "bytes32",
          "name": "",
          "type": "bytes32"
        }
      ],
      "stateMutability": "view",
      "type": "function"
    },
    {
      "inputs": [],
      "name": "MANAGER_ROLE",
      "outputs": [
        {
          "internalType": "bytes32",
          "name": "",
          "type": "bytes32"
        }
      ],
      "stateMutability": "view",
      "type": "function"
    },
    {
      "inputs": [
        {
          "internalType": "string",
          "name": "name",
          "type": "string"
        },
        {
          "internalType": "string",
          "name": "description",
          "type": "string"
        },
        {
          "internalType": "uint256",
          "name": "targetValue",
          "type": "uint256"
        },
        {
          "internalType": "uint256",
          "name": "minInvestment",
          "type": "uint256"
        },
        {
          "internalType": "uint256",
          "name": "maxInvestment",
          "type": "uint256"
        },
        {
          "internalType": "uint256",
          "name": "managementFee",
          "type": "uint256"
        },
        {
          "internalType": "uint256",
          "name": "performanceFee",
          "type": "uint256"
        },
        {
          "internalType": "uint256",
          "name": "maturityDate",
          "type": "uint256"
        }
      ],
      "name": "createPool",
      "outputs": [
        {
          "internalType": "bytes32",
          "name": "",
          "type": "bytes32"
        }
      ],
      "stateMutability": "nonpayable",
      "type": "function"
    },
    {
      "inputs": [
        {
          "internalType": "bytes32",
          "name": "poolId",
          "type": "bytes32"
        },
        {
          "internalType": "uint256",
          "name": "totalRewards",
          "type": "uint256"
        }
      ],
      "name": "distributeRewards",
      "outputs": [],
      "stateMutability": "nonpayable",
      "type": "function"
    },
    {
      "inputs": [
        {
          "internalType": "bytes32",
          "name": "poolId",
          "type": "bytes32"
        }
      ],
      "name": "getPool",
      "outputs": [
        {
          "components": [
            {
              "internalType": "bytes32",
              "name": "id",
              "type": "bytes32"
            },
            {
              "internalType": "address",
              "name": "manager",
              "type": "address"
            },
            {
              "internalType": "string",
              "name": "name",
              "type": "string"
            },
            {
              "internalType": "string",
              "name": "description",
              "type": "string"
            },
            {
              "internalType": "uint256",
              "name": "totalValue",
              "type": "uint256"
            },
            {
              "internalType": "uint256",
              "name": "targetValue",
              "type": "uint256"
            },
            {
              "internalType": "uint256",
              "name": "currentValue",
              "type": "uint256"
            },
            {
              "internalType": "uint256",
              "name": "minInvestment",
              "type": "uint256"
            },
            {
              "internalType": "uint256",
              "name": "maxInvestment",
              "type": "uint256"
            },
            {
              "internalType": "uint256",
              "name": "managementFee",
              "type": "uint256"
            },
            {
              "internalType": "uint256",
              "name": "performanceFee",
              "type": "uint256"
            },
            {
              "internalType": "bool",
              "name": "isActive",
              "type": "bool"
            },
            {
              "internalType": "uint256",
              "name": "createdAt",
              "type": "uint256"
            },
            {
              "internalType": "uint256",
              "name": "maturityDate",
              "type": "uint256"
            },
            {
              "internalType": "address",
              "name": "poolToken",
              "type": "address"
            },
            {
              "internalType": "uint256",
              "name": "totalInvestors",
              "type": "uint256"
            }
          ],
          "internalType": "struct PoolManager.Pool",
          "name": "",
          "type": "tuple"
        }
      ],
      "stateMutability": "view",
      "type": "function"
    },
    {
      "inputs": [
        {
          "internalType": "bytes32",
          "name": "role",
          "type": "bytes32"
        }
      ],
      "name": "getRoleAdmin",
      "outputs": [
        {
          "internalType": "bytes32",
          "name": "",
          "type": "bytes32"
        }
      ],
      "stateMutability": "view",
      "type": "function"
    },
    {
      "inputs": [
        {
          "internalType": "address",
          "name": "user",
          "type": "address"
        },
        {
          "internalType": "bytes32",
          "name": "poolId",
          "type": "bytes32"
        }
      ],
      "name": "getUserInvestment",
      "outputs": [
        {
          "internalType": "uint256",
          "name": "",
          "type": "uint256"
        }
      ],
      "stateMutability": "view",
      "type": "function"
    },
    {
      "inputs": [
        {
          "internalType": "address",
          "name": "user",
          "type": "address"
        }
      ],
      "name": "getUserPools",
      "outputs": [
        {
          "internalType": "bytes32[]",
          "name": "",
          "type": "bytes32[]"
        }
      ],
      "stateMutability": "view",
      "type": "function"
    },
    {
      "inputs": [
        {
          "internalType": "bytes32",
          "name": "role",
          "type": "bytes32"
        },
        {
          "internalType": "address",
          "name": "account",
          "type": "address"
        }
      ],
      "name": "grantRole",
      "outputs": [],
      "stateMutability": "nonpayable",
      "type": "function"
    },
    {
      "inputs": [
        {
          "internalType": "bytes32",
          "name": "role",
          "type": "bytes32"
        },
        {
          "internalType": "address",
          "name": "account",
          "type": "address"
        }
      ],
      "name": "hasRole",
      "outputs": [
        {
          "internalType": "bool",
          "name": "",
          "type": "bool"
        }
      ],
      "stateMutability": "view",
      "type": "function"
    },
    {
      "inputs": [
        {
          "internalType": "bytes32",
          "name": "poolId",
          "type": "bytes32"
        },
        {
          "internalType": "uint256",
          "name": "amount",
          "type": "uint256"
        }
      ],
      "name": "invest",
      "outputs": [],
      "stateMutability": "payable",
      "type": "function"
    },
    {
      "inputs": [],
      "name": "paused",
      "outputs": [
        {
          "internalType": "bool",
          "name": "",
          "type": "bool"
        }
      ],
      "stateMutability": "view",
      "type": "function"
    },
    {
      "inputs": [
        {
          "internalType": "bytes32",
          "name": "",
          "type": "bytes32"
        }
      ],
      "name": "pools",
      "outputs": [
        {
          "internalType": "bytes32",
          "name": "id",
          "type": "bytes32"
        },
        {
          "internalType": "address",
          "name": "manager",
          "type": "address"
        },
        {
          "internalType": "string",
          "name": "name",
          "type": "string"
        },
        {
          "internalType": "string",
          "name": "description",
          "type": "string"
        },
        {
          "internalType": "uint256",
          "name": "totalValue",
          "type": "uint256"
        },
        {
          "internalType": "uint256",
          "name": "targetValue",
          "type": "uint256"
        },
        {
          "internalType": "uint256",
          "name": "currentValue",
          "type": "uint256"
        },
        {
          "internalType": "uint256",
          "name": "minInvestment",
          "type": "uint256"
        },
        {
          "internalType": "uint256",
          "name": "maxInvestment",
          "type": "uint256"
        },
        {
          "internalType": "uint256",
          "name": "managementFee",
          "type": "uint256"
        },
        {
          "internalType": "uint256",
          "name": "performanceFee",
          "type": "uint256"
        },
        {
          "internalType": "bool",
          "name": "isActive",
          "type": "bool"
        },
        {
          "internalType": "uint256",
          "name": "createdAt",
          "type": "uint256"
        },
        {
          "internalType": "uint256",
          "name": "maturityDate",
          "type": "uint256"
        },
        {
          "internalType": "address",
          "name": "poolToken",
          "type": "address"
        },
        {
          "internalType": "uint256",
          "name": "totalInvestors",
          "type": "uint256"
        }
      ],
      "stateMutability": "view",
      "type": "function"
    },
    {
      "inputs": [
        {
          "internalType": "bytes32",
          "name": "role",
          "type": "bytes32"
        },
        {
          "internalType": "address",
          "name": "callerConfirmation",
          "type": "address"
        }
      ],
      "name": "renounceRole",
      "outputs": [],
      "stateMutability": "nonpayable",
      "type": "function"
    },
    {
      "inputs": [
        {
          "internalType": "bytes32",
          "name": "role",
          "type": "bytes32"
        },
        {
          "internalType": "address",
          "name": "account",
          "type": "address"
        }
      ],
      "name": "revokeRole",
      "outputs": [],
      "stateMutability": "nonpayable",
      "type": "function"
    },
    {
      "inputs": [
        {
          "internalType": "bytes4",
          "name": "interfaceId",
          "type": "bytes4"
        }
      ],
      "name": "supportsInterface",
      "outputs": [
        {
          "internalType": "bool",
          "name": "",
          "type": "bool"
        }
      ],
      "stateMutability": "view",
      "type": "function"
    },
    {
      "inputs": [],
      "name": "totalPools",
      "outputs": [
        {
          "internalType": "uint256",
          "name": "",
          "type": "uint256"
        }
      ],
      "stateMutability": "view",
      "type": "function"
    },
    {
      "inputs": [],
      "name": "totalValueLocked",
      "outputs": [
        {
          "internalType": "uint256",
          "name": "",
          "type": "uint256"
        }
      ],
      "stateMutability": "view",
      "type": "function"
    },
    {
      "inputs": [
        {
          "internalType": "bytes32",
          "name": "poolId",
          "type": "bytes32"
        },
        {
          "internalType": "bool",
          "name": "isActive",
          "type": "bool"
        }
      ],
      "name": "updatePoolStatus",
      "outputs": [],
      "stateMutability": "nonpayable",
      "type": "function"
    },
    {
      "inputs": [
        {
          "internalType": "address",
          "name": "",
          "type": "address"
        },
        {
          "internalType": "bytes32",
          "name": "",
          "type": "bytes32"
        }
      ],
      "name": "userInvestments",
      "outputs": [
        {
          "internalType": "uint256",
          "name": "",
          "type": "uint256"
        }
      ],
      "stateMutability": "view",
      "type": "function"
    },
    {
      "inputs": [
        {
          "internalType": "address",
          "name": "",
          "type": "address"
        },
        {
          "internalType": "uint256",
          "name": "",
          "type": "uint256"
        }
      ],
      "name": "userPools",
      "outputs": [
        {
          "internalType": "bytes32",
          "name": "",
          "type": "bytes32"
        }
      ],
      "stateMutability": "view",
      "type": "function"
    }
  ],
  "bytecode": "0x60806040523461003157600160025561001733610036565b50610021336100b2565b5060405161153b908161014b8239f35b600080fd5b6001600160a01b03811660009081526000805160206116c6833981519152602052604090205460ff166100ac576001600160a01b031660008181526000805160206116c683398151915260205260408120805460ff191660011790553391906000805160206116868339815191528180a4600190565b50600090565b6001600160a01b03811660009081526000805160206116a6833981519152602052604090205460ff166100ac576001600160a01b031660008181526000805160206116a683398151915260205260408120805460ff191660011790553391907f241ecf16d79d0f8dbfb92cbc07fe17840425976cf0667f022fe9877caa831b08906000805160206116868339815191529080a460019056fe60a080604052600436101561001357600080fd5b60003560e01c90816301ffc9a714611022575080631064aa5514610fc95780631f29d28514610dd3578063248a9ca314610d9e5780632a856dbb14610af95780632f2ff15d14610d5e57806336568abe14610d185780635c975abb14610cf55780636e69f20114610c8257806391d1485414610c355780639816af5814610b7b578063a217fddf14610b5f578063ab3c7e5214610b41578063ad65b78514610af9578063b0692d8e146105e1578063b5217bb414610498578063d547741f14610451578063db45c6eb146103b4578063ec18154e14610396578063ec87621c1461035b5763f6c009271461010657600080fd5b346103565760203660031901126103565760006101e0604051610128816110e5565b828152826020820152606060408201526060808201528260808201528260a08201528260c08201528260e08201528261010082015282610120820152826101408201528261016082015282610180820152826101a0820152826101c0820152015260043560005260036020526040600020600f604051916101a8836110e5565b8054835260018101546001600160a01b031660208401526101cb600282016111b5565b60408401526101dc600382016111b5565b606084015260048101546080840152600581015460a0840152600681015460c0840152600781015460e084015260088101546101008401526009810154610120840152600a81015461014084015260ff600b820154161515610160840152600c810154610180840152600d8101546101a084015260018060a01b03600e820154166101c084015201546101e08201526040518091602082528051602083015260018060a01b0360208201511660408301526101e06102c46102ae6040840151610200606087015261022086019061127c565b6060840151858203601f1901608087015261127c565b91608081015160a085015260a081015160c085015260c081015160e085015260e081015161010085015261010081015161012085015261012081015161014085015261014081015161016085015261016081015115156101808501526101808101516101a08501526101a08101516101c085015260018060a01b036101c0820151168285015201516102008301520390f35b600080fd5b346103565760003660031901126103565760206040517f241ecf16d79d0f8dbfb92cbc07fe17840425976cf0667f022fe9877caa831b088152f35b34610356576000366003190112610356576020600754604051908152f35b34610356576103c2366110cf565b6103ca61134b565b8160005260036020526103e760ff600b60406000200154166112a1565b801561041a5760207f603c893fe5a7abb065fd37be5d74b7570a708f31c5b02b409779f57f8ab5978891604051908152a2005b60405162461bcd60e51b815260206004820152600f60248201526e496e76616c6964207265776172647360881b6044820152606490fd5b346103565760403660031901126103565761049660043561047061108b565b9061049161048c82600052600060205260016040600020015490565b6113bd565b611483565b005b34610356576020366003190112610356576004356000908152600360205260409020805460018201546001600160a01b0316916104d7600282016111b5565b926104e4600383016111b5565b93600483015494600584015460068501546007860154600887015490600988015492600a89015494600b8a015460ff1696600c8b015498600d8c01549a8c600160a01b6001900390600e0154169c600f01549d60405160805260805152608051602001526080516040016102009052608051610200016105639161127c565b6080518103608051606001526105789161127c565b9b6080516080015260805160a0015260805160c0015260805160e001526080516101000152608051610120015260805161014001521515608051610160015260805161018001526080516101a001526080516101c001526080516101e001526080519003608051f35b34610356576101003660031901126103565760043567ffffffffffffffff811161035657610613903690600401611124565b60243567ffffffffffffffff811161035657610633903690600401611124565b6044356064359160843560e4359061064961134b565b8315610abd578415610a7f57848110610a415742821115610a045760405160208101906106a36034602083816106858d88815193849201611259565b81013360601b83820152428482015203016014810184520182611102565b5190209485600052600360205260406000209386855560018501336bffffffffffffffffffffffff60a01b82541617905560028501885167ffffffffffffffff8111610936576106f3825461117b565b601f81116109bc575b50806020601f82116001146109575760009161094c575b508160011b916000199060031b1c19161790555b8051600386019167ffffffffffffffff821161093657610747835461117b565b601f81116108ee575b5091602099959391899795938b90601f8311600114610852579282600f96937fb7f8b82afc947d7279ef81ff939c5d166aa42d76c6081bfa6e8d1e4810feaebb9a999693600099968a92610847575b50508160011b9189199060031b1c19161790555b8560048501558960058501558560068501556007840155600883015560a435600983015560c435600a830155600b8201600160ff1982541617905542600c830155600d82015501553360005260048652610811836040600020611311565b61081c600654611302565b6006556108346040519160408352604083019061127c565b93868201528033940390a3604051908152f35b015190508f8061079f565b601f9998979695949392919919821690836000528a6000209160005b8181106108d45750926000989694927fb7f8b82afc947d7279ef81ff939c5d166aa42d76c6081bfa6e8d1e4810feaebb9b9c60019383600f9b9997106108bc575b505050811b0190556107b3565b01518a1960f88460031b161c191690558f80806108af565b828d015184559b8f019b8e9b506001909301928f0161086e565b836000526020600020601f840160051c8101916020851061092c575b601f0160051c01905b8181106109205750610750565b60008155600101610913565b909150819061090a565b634e487b7160e01b600052604160045260246000fd5b90508a01518b610713565b60008481528181209250601f198416905b8d8282106109a4575050908360019493921061098b575b5050811b019055610727565b8c015160001960f88460031b161c191690558b8061097f565b60018495602093958493015181550194019201610968565b826000526020600020601f830160051c810191602084106109fa575b601f0160051c01905b8181106109ee57506106fc565b600081556001016109e1565b90915081906109d8565b60405162461bcd60e51b8152602060048201526015602482015274496e76616c6964206d61747572697479206461746560581b6044820152606490fd5b60405162461bcd60e51b8152602060048201526016602482015275125b9d985b1a59081b585e081a5b9d995cdd1b595b9d60521b6044820152606490fd5b60405162461bcd60e51b8152602060048201526016602482015275125b9d985b1a59081b5a5b881a5b9d995cdd1b595b9d60521b6044820152606490fd5b60405162461bcd60e51b8152602060048201526014602482015273496e76616c6964207461726765742076616c756560601b6044820152606490fd5b34610356576040366003190112610356576001600160a01b03610b1a611075565b16600052600560205260406000206024356000526020526020604060002054604051908152f35b34610356576000366003190112610356576020600654604051908152f35b3461035657600036600319011261035657602060405160008152f35b34610356576020366003190112610356576001600160a01b03610b9c611075565b16600052600460205260406000206040518060208354918281520190819360005260206000209060005b818110610c1f5750505081610bdc910382611102565b6040519182916020830190602084525180915260408301919060005b818110610c06575050500390f35b8251845285945060209384019390920191600101610bf8565b8254845260209093019260019283019201610bc6565b3461035657604036600319011261035657610c4e61108b565b600435600052600060205260406000209060018060a01b0316600052602052602060ff604060002054166040519015158152f35b34610356576040366003190112610356576004356024358015158091036103565760207f70584590905e6addd91f9f2e0b4b304922e6138df0bea959547fe979a2655c5191610ccf61134b565b8360005260038252600b60406000200160ff1981541660ff8316179055604051908152a2005b3461035657600036600319011261035657602060ff600154166040519015158152f35b3461035657604036600319011261035657610d3161108b565b336001600160a01b03821603610d4d5761049690600435611483565b63334bd91960e11b60005260046000fd5b3461035657604036600319011261035657610496600435610d7d61108b565b90610d9961048c82600052600060205260016040600020015490565b6113f8565b34610356576020366003190112610356576020610dcb600435600052600060205260016040600020015490565b604051908152f35b610ddc366110cf565b9060ff60015416610fb8576002805414610fa757600280558060005260036020526040600020610e1260ff600b830154166112a1565b60078101548310610f625760088101548311610f1d57823410610ee157806006600f9201610e418582546112df565b905560048101610e528582546112df565b905501610e5f8154611302565b9055610e6d826007546112df565b6007553360005260056020526040600020816000526020526040600020610e958382546112df565b9055336000526004602052610eae816040600020611311565b6040519182527f62cfb99c379fd24b09dbddc7d0d1d2eed8182cecad4679c600ef3dd78baf597960203393a36001600255005b60405162461bcd60e51b8152602060048201526014602482015273125b9cdd59999a58da595b9d081c185e5b595b9d60621b6044820152606490fd5b60405162461bcd60e51b815260206004820152601860248201527f41626f7665206d6178696d756d20696e766573746d656e7400000000000000006044820152606490fd5b60405162461bcd60e51b815260206004820152601860248201527f42656c6f77206d696e696d756d20696e766573746d656e7400000000000000006044820152606490fd5b633ee5aeb560e01b60005260046000fd5b63d93c066560e01b60005260046000fd5b3461035657604036600319011261035657610fe2611075565b6001600160a01b031660009081526004602052604090208054602435919082101561035657602091611013916110a1565b90549060031b1c604051908152f35b34610356576020366003190112610356576004359063ffffffff60e01b821680920361035657602091637965db0b60e01b8114908115611064575b5015158152f35b6301ffc9a760e01b1490508361105d565b600435906001600160a01b038216820361035657565b602435906001600160a01b038216820361035657565b80548210156110b95760005260206000200190600090565b634e487b7160e01b600052603260045260246000fd5b6040906003190112610356576004359060243590565b610200810190811067ffffffffffffffff82111761093657604052565b90601f8019910116810190811067ffffffffffffffff82111761093657604052565b81601f820112156103565780359067ffffffffffffffff82116109365760405192611159601f8401601f191660200185611102565b8284526020838301011161035657816000926020809301838601378301015290565b90600182811c921680156111ab575b602083101461119557565b634e487b7160e01b600052602260045260246000fd5b91607f169161118a565b90604051918260008254926111c98461117b565b808452936001811690811561123757506001146111f0575b506111ee92500383611102565b565b90506000929192526020600020906000915b81831061121b5750509060206111ee92820101386111e1565b6020919350806001915483858901015201910190918492611202565b9050602092506111ee94915060ff191682840152151560051b820101386111e1565b60005b83811061126c5750506000910152565b818101518382015260200161125c565b9060209161129581518092818552858086019101611259565b601f01601f1916010190565b156112a857565b60405162461bcd60e51b815260206004820152600f60248201526e506f6f6c206e6f742061637469766560881b6044820152606490fd5b919082018092116112ec57565b634e487b7160e01b600052601160045260246000fd5b60001981146112ec5760010190565b80546801000000000000000081101561093657611333916001820181556110a1565b819291549060031b91821b91600019901b1916179055565b3360009081527fe84508f2c7fa9c351146748b3025cb78b45df37d868e48c6a75102fecdeee645602052604090205460ff161561138457565b63e2517d3f60e01b600052336004527f241ecf16d79d0f8dbfb92cbc07fe17840425976cf0667f022fe9877caa831b0860245260446000fd5b60008181526020818152604080832033845290915290205460ff16156113e05750565b63e2517d3f60e01b6000523360045260245260446000fd5b6000818152602081815260408083206001600160a01b038616845290915290205460ff1661147c576000818152602081815260408083206001600160a01b0395909516808452949091528120805460ff19166001179055339291907f2f8788117e7eff1d82e926ec794901d17c78024a50270940304540a733656f0d9080a4600190565b5050600090565b6000818152602081815260408083206001600160a01b038616845290915290205460ff161561147c576000818152602081815260408083206001600160a01b0395909516808452949091528120805460ff19169055339291907ff6391f5c32d9c69d2a47ea670b442974b53935d1edc7fd64eb21e047a839171b9080a460019056fea26469706673582212203f015cafe98502f6c24b0bbe1e377723d894c127f83a4145c09fe07c1c29c00664736f6c634300081c00332f8788117e7eff1d82e926ec794901d17c78024a50270940304540a733656f0de84508f2c7fa9c351146748b3025cb78b45df37d868e48c6a75102fecdeee645ad3228b676f7d3cd4284a5443f17f1962b36e491b30a40b2405849e597ba5fb5",
  "linkReferences": {},
  "deployedLinkReferences": {}
}