{
  "_format": "hh-sol-artifact-1",
  "contractName": "TradingEngine",
  "sourceName": "contracts/TradingEngine.sol",
  "abi": [
    {
      "inputs": [
        {
          "internalType": "address",
          "name": "_trustToken",
          "type": "address"
        },
        {
          "internalType": "address",
          "name": "_feeRecipient",
          "type": "address"
        }
      ],
      "stateMutability": "nonpayable",
      "type": "constructor"
    },
    {
      "inputs": [],
      "name": "AccessControlBadConfirmation",
      "type": "error"
    },
    {
      "inputs": [
        {
          "internalType": "address",
          "name": "account",
          "type": "address"
        },
        {
          "internalType": "bytes32",
          "name": "neededRole",
          "type": "bytes32"
        }
      ],
      "name": "AccessControlUnauthorizedAccount",
      "type": "error"
    },
    {
      "inputs": [],
      "name": "EnforcedPause",
      "type": "error"
    },
    {
      "inputs": [],
      "name": "ExpectedPause",
      "type": "error"
    },
    {
      "inputs": [],
      "name": "ReentrancyGuardReentrantCall",
      "type": "error"
    },
    {
      "anonymous": false,
      "inputs": [
        {
          "indexed": true,
          "internalType": "address",
          "name": "user",
          "type": "address"
        },
        {
          "indexed": true,
          "internalType": "address",
          "name": "token",
          "type": "address"
        },
        {
          "indexed": false,
          "internalType": "uint256",
          "name": "newBalance",
          "type": "uint256"
        }
      ],
      "name": "BalanceUpdated",
      "type": "event"
    },
    {
      "anonymous": false,
      "inputs": [
        {
          "indexed": true,
          "internalType": "uint256",
          "name": "orderId",
          "type": "uint256"
        }
      ],
      "name": "OrderCancelled",
      "type": "event"
    },
    {
      "anonymous": false,
      "inputs": [
        {
          "indexed": true,
          "internalType": "uint256",
          "name": "orderId",
          "type": "uint256"
        },
        {
          "indexed": true,
          "internalType": "address",
          "name": "trader",
          "type": "address"
        },
        {
          "indexed": false,
          "internalType": "address",
          "name": "tokenContract",
          "type": "address"
        },
        {
          "indexed": false,
          "internalType": "uint256",
          "name": "amount",
          "type": "uint256"
        },
        {
          "indexed": false,
          "internalType": "uint256",
          "name": "price",
          "type": "uint256"
        },
        {
          "indexed": false,
          "internalType": "bool",
          "name": "isBuy",
          "type": "bool"
        }
      ],
      "name": "OrderCreated",
      "type": "event"
    },
    {
      "anonymous": false,
      "inputs": [
        {
          "indexed": false,
          "internalType": "address",
          "name": "account",
          "type": "address"
        }
      ],
      "name": "Paused",
      "type": "event"
    },
    {
      "anonymous": false,
      "inputs": [
        {
          "indexed": true,
          "internalType": "bytes32",
          "name": "role",
          "type": "bytes32"
        },
        {
          "indexed": true,
          "internalType": "bytes32",
          "name": "previousAdminRole",
          "type": "bytes32"
        },
        {
          "indexed": true,
          "internalType": "bytes32",
          "name": "newAdminRole",
          "type": "bytes32"
        }
      ],
      "name": "RoleAdminChanged",
      "type": "event"
    },
    {
      "anonymous": false,
      "inputs": [
        {
          "indexed": true,
          "internalType": "bytes32",
          "name": "role",
          "type": "bytes32"
        },
        {
          "indexed": true,
          "internalType": "address",
          "name": "account",
          "type": "address"
        },
        {
          "indexed": true,
          "internalType": "address",
          "name": "sender",
          "type": "address"
        }
      ],
      "name": "RoleGranted",
      "type": "event"
    },
    {
      "anonymous": false,
      "inputs": [
        {
          "indexed": true,
          "internalType": "bytes32",
          "name": "role",
          "type": "bytes32"
        },
        {
          "indexed": true,
          "internalType": "address",
          "name": "account",
          "type": "address"
        },
        {
          "indexed": true,
          "internalType": "address",
          "name": "sender",
          "type": "address"
        }
      ],
      "name": "RoleRevoked",
      "type": "event"
    },
    {
      "anonymous": false,
      "inputs": [
        {
          "indexed": true,
          "internalType": "uint256",
          "name": "tradeId",
          "type": "uint256"
        },
        {
          "indexed": false,
          "internalType": "uint256",
          "name": "buyOrderId",
          "type": "uint256"
        },
        {
          "indexed": false,
          "internalType": "uint256",
          "name": "sellOrderId",
          "type": "uint256"
        },
        {
          "indexed": false,
          "internalType": "address",
          "name": "buyer",
          "type": "address"
        },
        {
          "indexed": false,
          "internalType": "address",
          "name": "seller",
          "type": "address"
        },
        {
          "indexed": false,
          "internalType": "uint256",
          "name": "amount",
          "type": "uint256"
        },
        {
          "indexed": false,
          "internalType": "uint256",
          "name": "price",
          "type": "uint256"
        }
      ],
      "name": "TradeExecuted",
      "type": "event"
    },
    {
      "anonymous": false,
      "inputs": [
        {
          "indexed": false,
          "internalType": "address",
          "name": "account",
          "type": "address"
        }
      ],
      "name": "Unpaused",
      "type": "event"
    },
    {
      "inputs": [],
      "name": "DEFAULT_ADMIN_ROLE",
      "outputs": [
        {
          "internalType": "bytes32",
          "name": "",
          "type": "bytes32"
        }
      ],
      "stateMutability": "view",
      "type": "function"
    },
    {
      "inputs": [],
      "name": "MATCHER_ROLE",
      "outputs": [
        {
          "internalType": "bytes32",
          "name": "",
          "type": "bytes32"
        }
      ],
      "stateMutability": "view",
      "type": "function"
    },
    {
      "inputs": [],
      "name": "TRADER_ROLE",
      "outputs": [
        {
          "internalType": "bytes32",
          "name": "",
          "type": "bytes32"
        }
      ],
      "stateMutability": "view",
      "type": "function"
    },
    {
      "inputs": [
        {
          "internalType": "address",
          "name": "",
          "type": "address"
        },
        {
          "internalType": "address",
          "name": "",
          "type": "address"
        }
      ],
      "name": "balances",
      "outputs": [
        {
          "internalType": "uint256",
          "name": "",
          "type": "uint256"
        }
      ],
      "stateMutability": "view",
      "type": "function"
    },
    {
      "inputs": [
        {
          "internalType": "uint256",
          "name": "orderId",
          "type": "uint256"
        }
      ],
      "name": "cancelOrder",
      "outputs": [],
      "stateMutability": "nonpayable",
      "type": "function"
    },
    {
      "inputs": [
        {
          "internalType": "address",
          "name": "tokenContract",
          "type": "address"
        },
        {
          "internalType": "uint256",
          "name": "amount",
          "type": "uint256"
        },
        {
          "internalType": "uint256",
          "name": "price",
          "type": "uint256"
        },
        {
          "internalType": "bool",
          "name": "isBuy",
          "type": "bool"
        },
        {
          "internalType": "uint256",
          "name": "expiry",
          "type": "uint256"
        }
      ],
      "name": "createOrder",
      "outputs": [
        {
          "internalType": "uint256",
          "name": "",
          "type": "uint256"
        }
      ],
      "stateMutability": "nonpayable",
      "type": "function"
    },
    {
      "inputs": [
        {
          "internalType": "address",
          "name": "tokenContract",
          "type": "address"
        },
        {
          "internalType": "uint256",
          "name": "amount",
          "type": "uint256"
        }
      ],
      "name": "deposit",
      "outputs": [],
      "stateMutability": "payable",
      "type": "function"
    },
    {
      "inputs": [
        {
          "internalType": "uint256",
          "name": "buyOrderId",
          "type": "uint256"
        },
        {
          "internalType": "uint256",
          "name": "sellOrderId",
          "type": "uint256"
        },
        {
          "internalType": "uint256",
          "name": "amount",
          "type": "uint256"
        }
      ],
      "name": "executeTrade",
      "outputs": [],
      "stateMutability": "nonpayable",
      "type": "function"
    },
    {
      "inputs": [],
      "name": "feeRecipient",
      "outputs": [
        {
          "internalType": "address",
          "name": "",
          "type": "address"
        }
      ],
      "stateMutability": "view",
      "type": "function"
    },
    {
      "inputs": [
        {
          "internalType": "address",
          "name": "user",
          "type": "address"
        },
        {
          "internalType": "address",
          "name": "tokenContract",
          "type": "address"
        }
      ],
      "name": "getBalance",
      "outputs": [
        {
          "internalType": "uint256",
          "name": "",
          "type": "uint256"
        }
      ],
      "stateMutability": "view",
      "type": "function"
    },
    {
      "inputs": [
        {
          "internalType": "address",
          "name": "tokenContract",
          "type": "address"
        },
        {
          "internalType": "bool",
          "name": "isBuy",
          "type": "bool"
        }
      ],
      "name": "getOrderBook",
      "outputs": [
        {
          "components": [
            {
              "internalType": "uint256",
              "name": "id",
              "type": "uint256"
            },
            {
              "internalType": "address",
              "name": "trader",
              "type": "address"
            },
            {
              "internalType": "address",
              "name": "tokenContract",
              "type": "address"
            },
            {
              "internalType": "uint256",
              "name": "amount",
              "type": "uint256"
            },
            {
              "internalType": "uint256",
              "name": "price",
              "type": "uint256"
            },
            {
              "internalType": "bool",
              "name": "isBuy",
              "type": "bool"
            },
            {
              "internalType": "uint256",
              "name": "timestamp",
              "type": "uint256"
            },
            {
              "internalType": "uint256",
              "name": "expiry",
              "type": "uint256"
            },
            {
              "internalType": "bool",
              "name": "isActive",
              "type": "bool"
            }
          ],
          "internalType": "struct TradingEngine.Order[]",
          "name": "",
          "type": "tuple[]"
        }
      ],
      "stateMutability": "view",
      "type": "function"
    },
    {
      "inputs": [
        {
          "internalType": "bytes32",
          "name": "role",
          "type": "bytes32"
        }
      ],
      "name": "getRoleAdmin",
      "outputs": [
        {
          "internalType": "bytes32",
          "name": "",
          "type": "bytes32"
        }
      ],
      "stateMutability": "view",
      "type": "function"
    },
    {
      "inputs": [
        {
          "internalType": "address",
          "name": "user",
          "type": "address"
        }
      ],
      "name": "getUserOrders",
      "outputs": [
        {
          "internalType": "uint256[]",
          "name": "",
          "type": "uint256[]"
        }
      ],
      "stateMutability": "view",
      "type": "function"
    },
    {
      "inputs": [
        {
          "internalType": "bytes32",
          "name": "role",
          "type": "bytes32"
        },
        {
          "internalType": "address",
          "name": "account",
          "type": "address"
        }
      ],
      "name": "grantRole",
      "outputs": [],
      "stateMutability": "nonpayable",
      "type": "function"
    },
    {
      "inputs": [
        {
          "internalType": "bytes32",
          "name": "role",
          "type": "bytes32"
        },
        {
          "internalType": "address",
          "name": "account",
          "type": "address"
        }
      ],
      "name": "hasRole",
      "outputs": [
        {
          "internalType": "bool",
          "name": "",
          "type": "bool"
        }
      ],
      "stateMutability": "view",
      "type": "function"
    },
    {
      "inputs": [],
      "name": "maxOrderAmount",
      "outputs": [
        {
          "internalType": "uint256",
          "name": "",
          "type": "uint256"
        }
      ],
      "stateMutability": "view",
      "type": "function"
    },
    {
      "inputs": [],
      "name": "minOrderAmount",
      "outputs": [
        {
          "internalType": "uint256",
          "name": "",
          "type": "uint256"
        }
      ],
      "stateMutability": "view",
      "type": "function"
    },
    {
      "inputs": [],
      "name": "orderCounter",
      "outputs": [
        {
          "internalType": "uint256",
          "name": "",
          "type": "uint256"
        }
      ],
      "stateMutability": "view",
      "type": "function"
    },
    {
      "inputs": [
        {
          "internalType": "uint256",
          "name": "",
          "type": "uint256"
        }
      ],
      "name": "orders",
      "outputs": [
        {
          "internalType": "uint256",
          "name": "id",
          "type": "uint256"
        },
        {
          "internalType": "address",
          "name": "trader",
          "type": "address"
        },
        {
          "internalType": "address",
          "name": "tokenContract",
          "type": "address"
        },
        {
          "internalType": "uint256",
          "name": "amount",
          "type": "uint256"
        },
        {
          "internalType": "uint256",
          "name": "price",
          "type": "uint256"
        },
        {
          "internalType": "bool",
          "name": "isBuy",
          "type": "bool"
        },
        {
          "internalType": "uint256",
          "name": "timestamp",
          "type": "uint256"
        },
        {
          "internalType": "uint256",
          "name": "expiry",
          "type": "uint256"
        },
        {
          "internalType": "bool",
          "name": "isActive",
          "type": "bool"
        }
      ],
      "stateMutability": "view",
      "type": "function"
    },
    {
      "inputs": [],
      "name": "pause",
      "outputs": [],
      "stateMutability": "nonpayable",
      "type": "function"
    },
    {
      "inputs": [],
      "name": "paused",
      "outputs": [
        {
          "internalType": "bool",
          "name": "",
          "type": "bool"
        }
      ],
      "stateMutability": "view",
      "type": "function"
    },
    {
      "inputs": [
        {
          "internalType": "bytes32",
          "name": "role",
          "type": "bytes32"
        },
        {
          "internalType": "address",
          "name": "callerConfirmation",
          "type": "address"
        }
      ],
      "name": "renounceRole",
      "outputs": [],
      "stateMutability": "nonpayable",
      "type": "function"
    },
    {
      "inputs": [
        {
          "internalType": "bytes32",
          "name": "role",
          "type": "bytes32"
        },
        {
          "internalType": "address",
          "name": "account",
          "type": "address"
        }
      ],
      "name": "revokeRole",
      "outputs": [],
      "stateMutability": "nonpayable",
      "type": "function"
    },
    {
      "inputs": [
        {
          "internalType": "uint256",
          "name": "minAmount",
          "type": "uint256"
        },
        {
          "internalType": "uint256",
          "name": "maxAmount",
          "type": "uint256"
        }
      ],
      "name": "setOrderLimits",
      "outputs": [],
      "stateMutability": "nonpayable",
      "type": "function"
    },
    {
      "inputs": [
        {
          "internalType": "uint256",
          "name": "newFee",
          "type": "uint256"
        }
      ],
      "name": "setTradingFee",
      "outputs": [],
      "stateMutability": "nonpayable",
      "type": "function"
    },
    {
      "inputs": [
        {
          "internalType": "bytes4",
          "name": "interfaceId",
          "type": "bytes4"
        }
      ],
      "name": "supportsInterface",
      "outputs": [
        {
          "internalType": "bool",
          "name": "",
          "type": "bool"
        }
      ],
      "stateMutability": "view",
      "type": "function"
    },
    {
      "inputs": [],
      "name": "tradeCounter",
      "outputs": [
        {
          "internalType": "uint256",
          "name": "",
          "type": "uint256"
        }
      ],
      "stateMutability": "view",
      "type": "function"
    },
    {
      "inputs": [],
      "name": "tradingFee",
      "outputs": [
        {
          "internalType": "uint256",
          "name": "",
          "type": "uint256"
        }
      ],
      "stateMutability": "view",
      "type": "function"
    },
    {
      "inputs": [],
      "name": "trustToken",
      "outputs": [
        {
          "internalType": "address",
          "name": "",
          "type": "address"
        }
      ],
      "stateMutability": "view",
      "type": "function"
    },
    {
      "inputs": [],
      "name": "unpause",
      "outputs": [],
      "stateMutability": "nonpayable",
      "type": "function"
    },
    {
      "inputs": [
        {
          "internalType": "address",
          "name": "",
          "type": "address"
        },
        {
          "internalType": "uint256",
          "name": "",
          "type": "uint256"
        }
      ],
      "name": "userOrders",
      "outputs": [
        {
          "internalType": "uint256",
          "name": "",
          "type": "uint256"
        }
      ],
      "stateMutability": "view",
      "type": "function"
    },
    {
      "inputs": [
        {
          "internalType": "address",
          "name": "tokenContract",
          "type": "address"
        },
        {
          "internalType": "uint256",
          "name": "amount",
          "type": "uint256"
        }
      ],
      "name": "withdraw",
      "outputs": [],
      "stateMutability": "nonpayable",
      "type": "function"
    }
  ],
  "bytecode": "0x6080346100cc57601f611e0838819003918201601f19168301916001600160401b038311848410176100d15780849260409485528339810103126100cc57610052602061004b836100e7565b92016100e7565b9060016002556019600855606460095569d3c21bcecceda1000000600a55610079336100fb565b5061008333610177565b5061008d3361020f565b50600c80546001600160a01b039283166001600160a01b031991821617909155600b8054939092169216919091179055604051611ae090816102a88239f35b600080fd5b634e487b7160e01b600052604160045260246000fd5b51906001600160a01b03821682036100cc57565b6001600160a01b0381166000908152600080516020611de8833981519152602052604090205460ff16610171576001600160a01b03166000818152600080516020611de883398151915260205260408120805460ff19166001179055339190600080516020611d888339815191528180a4600190565b50600090565b6001600160a01b0381166000908152600080516020611dc8833981519152602052604090205460ff16610171576001600160a01b03166000818152600080516020611dc883398151915260205260408120805460ff191660011790553391907ffacaf2747a7486cf5730e9265973fb54447d3ace6e7e4711f6360826b073194190600080516020611d888339815191529080a4600190565b6001600160a01b0381166000908152600080516020611da8833981519152602052604090205460ff16610171576001600160a01b03166000818152600080516020611da883398151915260205260408120805460ff191660011790553391907fdf91394c13c48ebd5370100f1eb84afe3c6c47a78f9f9f874d5a9ec6afe0ae6b90600080516020611d888339815191529080a460019056fe608080604052600436101561001357600080fd5b60003560e01c90816301ffc9a7146116ae575080631c6c7cb214611373578063248a9ca31461133e5780632f2ff15d146112fe57806335cd4a2114610e5f57806336568abe14610e195780633f4ba83a14610db05780634434a9a7146109d657806346904840146109ad57806346b62c4a1461098f57806347e7ef241461088b578063514fcac7146107ab57806356f433521461078d5780635c975abb1461076a57806363c69f08146106b0578063660d15b5146106925780638456cb5914610639578063856652e9146105e057806391d1485414610593578063a217fddf14610577578063a85c38ef146104d9578063a9381d21146104b2578063b0d54bcf14610454578063b2194ff514610419578063b789bf52146103fb578063c23f001f14610381578063d13deb2f146103d2578063d4fac45d14610381578063d547741f1461033a578063f0a56fc8146102ff578063f3fef3a3146101a25763fdf0a7f11461017f57600080fd5b3461019d57600036600319011261019d576020600a54604051908152f35b600080fd5b3461019d57604036600319011261019d576101bb611701565b602435906101c76119cb565b336000526005602052604060002060018060a01b0382166000526020526101f5826040600020541015611857565b336000526005602052604060002060018060a01b038216600052602052604060002061022283825461184a565b90556001600160a01b0316908161029b57600080808093818115610292575b3390f115610286575b336000526005602052604060002081600052602052604060002054604051908152600080516020611a8b83398151915260203392a36001600255005b6040513d6000823e3d90fd5b506108fc610241565b6040519063a9059cbb60e01b825233600483015260248201526020816044816000865af18015610286576102d0575b5061024a565b6102f19060203d6020116102f8575b6102e9818361179d565b81019061189a565b50816102ca565b503d6102df565b3461019d57600036600319011261019d5760206040517ffacaf2747a7486cf5730e9265973fb54447d3ace6e7e4711f6360826b07319418152f35b3461019d57604036600319011261019d5761037f600435610359611717565b9061037a61037582600052600060205260016040600020015490565b611905565b6119eb565b005b3461019d57604036600319011261019d5761039a611701565b6103a2611717565b6001600160a01b039182166000908152600560209081526040808320949093168252928352819020549051908152f35b3461019d57600036600319011261019d57600c546040516001600160a01b039091168152602090f35b3461019d57600036600319011261019d576020600654604051908152f35b3461019d57600036600319011261019d5760206040517fdf91394c13c48ebd5370100f1eb84afe3c6c47a78f9f9f874d5a9ec6afe0ae6b8152f35b3461019d57602036600319011261019d576004356104706118b2565b6103e8811161047e57600855005b60405162461bcd60e51b815260206004820152600c60248201526b08ccaca40e8dede40d0d2ced60a31b6044820152606490fd5b3461019d57604036600319011261019d576104cb6118b2565b600435600955602435600a55005b3461019d57602036600319011261019d576004356000526003602052610120604060002080549060018060a01b036001820154169060018060a01b036002820154166003820154600483015460ff6005850154169160068501549360ff6008600788015497015416966040519889526020890152604088015260608701526080860152151560a085015260c084015260e08301521515610100820152f35b3461019d57600036600319011261019d57602060405160008152f35b3461019d57604036600319011261019d576105ac611717565b600435600052600060205260406000209060018060a01b0316600052602052602060ff604060002054166040519015158152f35b3461019d57604036600319011261019d576105f9611701565b6001600160a01b031660009081526004602052604090208054602435919082101561019d5760209161062a9161172d565b90549060031b1c604051908152f35b3461019d57600036600319011261019d576106526118b2565b61065a611a6d565b600160ff19815416176001557f62e78cea01bee320cd4e420270b5ea74000d11b0c9f74754ebdbfc544b05a2586020604051338152a1005b3461019d57600036600319011261019d576020600754604051908152f35b3461019d57602036600319011261019d576001600160a01b036106d1611701565b16600052600460205260406000206040518060208354918281520190819360005260206000209060005b818110610754575050508161071191038261179d565b6040519182916020830190602084525180915260408301919060005b81811061073b575050500390f35b825184528594506020938401939092019160010161072d565b82548452602090930192600192830192016106fb565b3461019d57600036600319011261019d57602060ff600154166040519015158152f35b3461019d57600036600319011261019d576020600854604051908152f35b3461019d57602036600319011261019d57600435600081815260036020526040902060018101546001600160a01b0316330361085457600801805460ff81161561081c5760ff191690557f61b9399f2f0f32ca39ce8d7be32caed5ec22fe07a6daba3a467ed479ec606582600080a2005b60405162461bcd60e51b815260206004820152601060248201526f4f72646572206e6f742061637469766560801b6044820152606490fd5b60405162461bcd60e51b815260206004820152600f60248201526e2737ba1037b93232b91037bbb732b960891b6044820152606490fd5b604036600319011261019d5761089f611701565b6001600160a01b03166024358161090f5750336000526005602052604080600020600090818052602052206108d534825461183d565b90555b336000526005602052604060002081600052602052604060002054604051908152600080516020611a8b83398151915260203392a3005b6040516323b872dd60e01b8152336004820152306024820152604481018290526020816064816000875af1801561028657610972575b5033600052600560205260406000208260005260205261096b604060002091825461183d565b90556108d8565b61098a9060203d6020116102f8576102e9818361179d565b610945565b3461019d57600036600319011261019d576020600954604051908152f35b3461019d57600036600319011261019d57600b546040516001600160a01b039091168152602090f35b3461019d5760a036600319011261019d576109ef611701565b602435604435916064358015159081810361019d5760843590610a10611a6d565b3360009081527f6ac0a3cc639bf037b4b0f42fc91a4de27374e7898883f5a05dc61a01ae170955602052604090205460ff1615610d7c576009548510610d4457610a5e600a548611156117eb565b8515610d0f5742821115610cd95715610c6c57610bc190336000526005602052604060002060008052602052610aa4604060002054610a9d888861182a565b1115611857565b6008610ab160065461175b565b8060065560405192610ac284611780565b81845260208401338152610b9f604086019860018060a01b031698898152606087018b815260808801908d825260a08901928b845260c08a019542875260e08b019788526101008b019860018a52600052600360205260406000209a518b5560018060a01b0390511660018b019060018060a01b03166bffffffffffffffffffffffff60a01b82541617905560018060a01b0390511660028a019060018060a01b03166bffffffffffffffffffffffff60a01b825416179055516003890155516004880155511515600587019060ff801983541691151516179055565b51600685015551600784015551151591019060ff801983541691151516179055565b33600052600460205260406000209360065485549568010000000000000000871015610c565786610bf991600160209901815561172d565b819291549060031b91821b91600019901b1916179055600654936040519384528584015260408301526060820152817f71ddda3e80a940057a90ca362aa41230649e5dc217aa8bb07b769cac0c450b3560803393a3604051908152f35b634e487b7160e01b600052604160045260246000fd5b336000526005602052604060002060018060a01b0384166000526020528360406000205410610c9e57610bc190610aa4565b60405162461bcd60e51b8152602060048201526013602482015272496e73756666696369656e7420746f6b656e7360681b6044820152606490fd5b60405162461bcd60e51b815260206004820152600e60248201526d496e76616c69642065787069727960901b6044820152606490fd5b60405162461bcd60e51b815260206004820152600d60248201526c496e76616c696420707269636560981b6044820152606490fd5b60405162461bcd60e51b815260206004820152601060248201526f105b5bdd5b9d081d1bdbc81cdb585b1b60821b6044820152606490fd5b60405162461bcd60e51b815260206004820152600c60248201526b4f6e6c79207472616465727360a01b6044820152606490fd5b3461019d57600036600319011261019d57610dc96118b2565b60015460ff811615610e085760ff19166001557f5db9ee0a495bf2e6ff9c91a7834c1ba4fdd244a5e8aa4e537bd38aeae4b073aa6020604051338152a1005b638dfc202b60e01b60005260046000fd5b3461019d57604036600319011261019d57610e32611717565b336001600160a01b03821603610e4e5761037f906004356119eb565b63334bd91960e11b60005260046000fd5b3461019d57606036600319011261019d573360009081527fa364f696a6c045481f027229b52d5f6627323c1ae901ff9bb8a960d331d4b3f6602052604090205460043590604435906024359060ff16156112c557610ebb6119cb565b8260005260036020526040600020928160005260036020526040600020936008810160ff815416806112b7575b1561127e5760ff6005830154168061126f575b15611234576002828101805491880180549195909290916001600160a01b039182169116036111fe57600484015495600489019788548098106111c8576000998a987fb662b8fd0611fc5ea725f80b64649a4508ebcd344cc8ae2245c0b10e84e729959660c096610f8460038b01938454871115806111ba575b610f7e906117eb565b8661182a565b90610fdf612710610f976008548561182a565b04836001610fa683809761183d565b9e019d8e60018060a01b0390541660005260056020526000604080610fd892206000908180526020522091825461184a565b905561184a565b9b600186019c8d60018060a01b039054168f5260056020526110128f60408091206000908180526020522091825461183d565b905560018060a01b038c54168e52600560205260408e209060018060a01b0390541660018060a01b03168e5260205260408d2061105087825461183d565b905560018060a01b038c54168d52600560205260408d209060018060a01b0390541660018060a01b03168d5260205260408c2061108e86825461184a565b905560018060a01b03600b54168c5260056020526110bb6040808e208e908180526020522091825461183d565b90556110c884835461184a565b825560038301916110da85845461184a565b835554156111ac575b50541561119b575b506110f760075461175b565b958660075560018060a01b039054169660018060a01b039054169854916040519384526020840152866040840152886060840152608083015260a0820152a2808252600560205260408220828052602052600080516020611a8b83398151915260206040842054604051908152a3808252600560205260408220828052602052600080516020611a8b83398151915260206040842054604051908152a36001600255005b600801805460ff191690558a6110eb565b805460ff191690558c6110e3565b506003860154871115610f75565b60405162461bcd60e51b815260206004820152600e60248201526d0a0e4d2c6ca40dad2e6dac2e8c6d60931b6044820152606490fd5b60405162461bcd60e51b815260206004820152600e60248201526d0a8ded6cadc40dad2e6dac2e8c6d60931b6044820152606490fd5b60405162461bcd60e51b8152602060048201526013602482015272496e76616c6964206f7264657220747970657360681b6044820152606490fd5b5060ff60058701541615610efb565b60405162461bcd60e51b81526020600482015260116024820152704f7264657273206e6f742061637469766560781b6044820152606490fd5b5060ff600887015416610ee8565b63e2517d3f60e01b600052336004527fdf91394c13c48ebd5370100f1eb84afe3c6c47a78f9f9f874d5a9ec6afe0ae6b60245260446000fd5b3461019d57604036600319011261019d5761037f60043561131d611717565b9061133961037582600052600060205260016040600020015490565b611940565b3461019d57602036600319011261019d57602061136b600435600052600060205260016040600020015490565b604051908152f35b3461019d57604036600319011261019d5761138c611701565b6024359081151580920361019d5760065460009290916001600160a01b03169060015b8381111561162357506113c1846117bf565b936113cf604051958661179d565b8085526113de601f19916117bf565b0160005b8181106115cc57505060009160015b848111156114a7578560405180916020820160208352815180915260206040840192019060005b818110611426575050500390f35b919350916020610120600192610100875180518352858060a01b03858201511685840152858060a01b036040820151166040840152606081015160608401526080810151608084015260a0810151151560a084015260c081015160c084015260e081015160e084015201511515610100820152019401910191849392611418565b6000818152600360205260409020600201546001600160a01b03168214806115ad575b80611592575b6114e3575b6114de9061175b565b6113f1565b9261158a6114de91856000526003602052604060002060ff60086040519261150a84611780565b8054845260018101546001600160a01b0390811660208601526002820154166040850152600381015460608501526004810154608085015260058101548316151560a0850152600681015460c0850152600781015460e08501520154161515610100820152611579828a6117d7565b5261158481896117d7565b5061175b565b9390506114d5565b5080600052600360205260ff600860406000200154166114d0565b508060005260036020528260ff600560406000200154161515146114ca565b6020906040516115db81611780565b60008152600083820152600060408201526000606082015260006080820152600060a0820152600060c0820152600060e08201526000610100820152828289010152016113e2565b6000818152600360205260409020600201546001600160a01b031683148061168f575b80611674575b61165f575b61165a9061175b565b6113af565b9361166c61165a9161175b565b949050611651565b5080600052600360205260ff6008604060002001541661164c565b508060005260036020528160ff60056040600020015416151514611646565b3461019d57602036600319011261019d576004359063ffffffff60e01b821680920361019d57602091637965db0b60e01b81149081156116f0575b5015158152f35b6301ffc9a760e01b149050836116e9565b600435906001600160a01b038216820361019d57565b602435906001600160a01b038216820361019d57565b80548210156117455760005260206000200190600090565b634e487b7160e01b600052603260045260246000fd5b600019811461176a5760010190565b634e487b7160e01b600052601160045260246000fd5b610120810190811067ffffffffffffffff821117610c5657604052565b90601f8019910116810190811067ffffffffffffffff821117610c5657604052565b67ffffffffffffffff8111610c565760051b60200190565b80518210156117455760209160051b010190565b156117f257565b60405162461bcd60e51b815260206004820152601060248201526f416d6f756e7420746f6f206c6172676560801b6044820152606490fd5b8181029291811591840414171561176a57565b9190820180921161176a57565b9190820391821161176a57565b1561185e57565b60405162461bcd60e51b8152602060048201526014602482015273496e73756666696369656e742062616c616e636560601b6044820152606490fd5b9081602091031261019d5751801515810361019d5790565b3360009081527fad3228b676f7d3cd4284a5443f17f1962b36e491b30a40b2405849e597ba5fb5602052604090205460ff16156118eb57565b63e2517d3f60e01b60005233600452600060245260446000fd5b60008181526020818152604080832033845290915290205460ff16156119285750565b63e2517d3f60e01b6000523360045260245260446000fd5b6000818152602081815260408083206001600160a01b038616845290915290205460ff166119c4576000818152602081815260408083206001600160a01b0395909516808452949091528120805460ff19166001179055339291907f2f8788117e7eff1d82e926ec794901d17c78024a50270940304540a733656f0d9080a4600190565b5050600090565b60028054146119da5760028055565b633ee5aeb560e01b60005260046000fd5b6000818152602081815260408083206001600160a01b038616845290915290205460ff16156119c4576000818152602081815260408083206001600160a01b0395909516808452949091528120805460ff19169055339291907ff6391f5c32d9c69d2a47ea670b442974b53935d1edc7fd64eb21e047a839171b9080a4600190565b60ff60015416611a7957565b63d93c066560e01b60005260046000fdfe2047d1633ff7768462ae07d28cb16e484203bfd6d85ce832494270ebcd9081a2a264697066735822122032dde3da4c02c4a448516cbc129d64dc758e6fdf302925eebce809b33272346364736f6c634300081c00332f8788117e7eff1d82e926ec794901d17c78024a50270940304540a733656f0da364f696a6c045481f027229b52d5f6627323c1ae901ff9bb8a960d331d4b3f66ac0a3cc639bf037b4b0f42fc91a4de27374e7898883f5a05dc61a01ae170955ad3228b676f7d3cd4284a5443f17f1962b36e491b30a40b2405849e597ba5fb5",
  "linkReferences": {},
  "deployedLinkReferences": {}
}