{
  "_format": "hh-sol-artifact-1",
  "contractName": "TrustToken",
  "sourceName": "contracts/TrustToken.sol",
  "abi": [
    {
      "inputs": [],
      "stateMutability": "nonpayable",
      "type": "constructor"
    },
    {
      "inputs": [],
      "name": "AccessControlBadConfirmation",
      "type": "error"
    },
    {
      "inputs": [
        {
          "internalType": "address",
          "name": "account",
          "type": "address"
        },
        {
          "internalType": "bytes32",
          "name": "neededRole",
          "type": "bytes32"
        }
      ],
      "name": "AccessControlUnauthorizedAccount",
      "type": "error"
    },
    {
      "inputs": [
        {
          "internalType": "address",
          "name": "spender",
          "type": "address"
        },
        {
          "internalType": "uint256",
          "name": "allowance",
          "type": "uint256"
        },
        {
          "internalType": "uint256",
          "name": "needed",
          "type": "uint256"
        }
      ],
      "name": "ERC20InsufficientAllowance",
      "type": "error"
    },
    {
      "inputs": [
        {
          "internalType": "address",
          "name": "sender",
          "type": "address"
        },
        {
          "internalType": "uint256",
          "name": "balance",
          "type": "uint256"
        },
        {
          "internalType": "uint256",
          "name": "needed",
          "type": "uint256"
        }
      ],
      "name": "ERC20InsufficientBalance",
      "type": "error"
    },
    {
      "inputs": [
        {
          "internalType": "address",
          "name": "approver",
          "type": "address"
        }
      ],
      "name": "ERC20InvalidApprover",
      "type": "error"
    },
    {
      "inputs": [
        {
          "internalType": "address",
          "name": "receiver",
          "type": "address"
        }
      ],
      "name": "ERC20InvalidReceiver",
      "type": "error"
    },
    {
      "inputs": [
        {
          "internalType": "address",
          "name": "sender",
          "type": "address"
        }
      ],
      "name": "ERC20InvalidSender",
      "type": "error"
    },
    {
      "inputs": [
        {
          "internalType": "address",
          "name": "spender",
          "type": "address"
        }
      ],
      "name": "ERC20InvalidSpender",
      "type": "error"
    },
    {
      "inputs": [],
      "name": "EnforcedPause",
      "type": "error"
    },
    {
      "inputs": [],
      "name": "ExpectedPause",
      "type": "error"
    },
    {
      "inputs": [],
      "name": "ReentrancyGuardReentrantCall",
      "type": "error"
    },
    {
      "anonymous": false,
      "inputs": [
        {
          "indexed": true,
          "internalType": "address",
          "name": "owner",
          "type": "address"
        },
        {
          "indexed": true,
          "internalType": "address",
          "name": "spender",
          "type": "address"
        },
        {
          "indexed": false,
          "internalType": "uint256",
          "name": "value",
          "type": "uint256"
        }
      ],
      "name": "Approval",
      "type": "event"
    },
    {
      "anonymous": false,
      "inputs": [
        {
          "indexed": false,
          "internalType": "address",
          "name": "account",
          "type": "address"
        }
      ],
      "name": "Paused",
      "type": "event"
    },
    {
      "anonymous": false,
      "inputs": [
        {
          "indexed": true,
          "internalType": "bytes32",
          "name": "role",
          "type": "bytes32"
        },
        {
          "indexed": true,
          "internalType": "bytes32",
          "name": "previousAdminRole",
          "type": "bytes32"
        },
        {
          "indexed": true,
          "internalType": "bytes32",
          "name": "newAdminRole",
          "type": "bytes32"
        }
      ],
      "name": "RoleAdminChanged",
      "type": "event"
    },
    {
      "anonymous": false,
      "inputs": [
        {
          "indexed": true,
          "internalType": "bytes32",
          "name": "role",
          "type": "bytes32"
        },
        {
          "indexed": true,
          "internalType": "address",
          "name": "account",
          "type": "address"
        },
        {
          "indexed": true,
          "internalType": "address",
          "name": "sender",
          "type": "address"
        }
      ],
      "name": "RoleGranted",
      "type": "event"
    },
    {
      "anonymous": false,
      "inputs": [
        {
          "indexed": true,
          "internalType": "bytes32",
          "name": "role",
          "type": "bytes32"
        },
        {
          "indexed": true,
          "internalType": "address",
          "name": "account",
          "type": "address"
        },
        {
          "indexed": true,
          "internalType": "address",
          "name": "sender",
          "type": "address"
        }
      ],
      "name": "RoleRevoked",
      "type": "event"
    },
    {
      "anonymous": false,
      "inputs": [
        {
          "indexed": true,
          "internalType": "address",
          "name": "user",
          "type": "address"
        },
        {
          "indexed": false,
          "internalType": "uint256",
          "name": "amount",
          "type": "uint256"
        },
        {
          "indexed": false,
          "internalType": "uint256",
          "name": "lockPeriod",
          "type": "uint256"
        }
      ],
      "name": "Staked",
      "type": "event"
    },
    {
      "anonymous": false,
      "inputs": [
        {
          "indexed": true,
          "internalType": "address",
          "name": "from",
          "type": "address"
        },
        {
          "indexed": true,
          "internalType": "address",
          "name": "to",
          "type": "address"
        },
        {
          "indexed": false,
          "internalType": "uint256",
          "name": "value",
          "type": "uint256"
        }
      ],
      "name": "Transfer",
      "type": "event"
    },
    {
      "anonymous": false,
      "inputs": [
        {
          "indexed": false,
          "internalType": "address",
          "name": "account",
          "type": "address"
        }
      ],
      "name": "Unpaused",
      "type": "event"
    },
    {
      "anonymous": false,
      "inputs": [
        {
          "indexed": true,
          "internalType": "address",
          "name": "user",
          "type": "address"
        },
        {
          "indexed": false,
          "internalType": "uint256",
          "name": "amount",
          "type": "uint256"
        },
        {
          "indexed": false,
          "internalType": "uint256",
          "name": "reward",
          "type": "uint256"
        }
      ],
      "name": "Unstaked",
      "type": "event"
    },
    {
      "inputs": [],
      "name": "BURNER_ROLE",
      "outputs": [
        {
          "internalType": "bytes32",
          "name": "",
          "type": "bytes32"
        }
      ],
      "stateMutability": "view",
      "type": "function"
    },
    {
      "inputs": [],
      "name": "DEFAULT_ADMIN_ROLE",
      "outputs": [
        {
          "internalType": "bytes32",
          "name": "",
          "type": "bytes32"
        }
      ],
      "stateMutability": "view",
      "type": "function"
    },
    {
      "inputs": [],
      "name": "INITIAL_SUPPLY",
      "outputs": [
        {
          "internalType": "uint256",
          "name": "",
          "type": "uint256"
        }
      ],
      "stateMutability": "view",
      "type": "function"
    },
    {
      "inputs": [],
      "name": "MAX_SUPPLY",
      "outputs": [
        {
          "internalType": "uint256",
          "name": "",
          "type": "uint256"
        }
      ],
      "stateMutability": "view",
      "type": "function"
    },
    {
      "inputs": [],
      "name": "MINTER_ROLE",
      "outputs": [
        {
          "internalType": "bytes32",
          "name": "",
          "type": "bytes32"
        }
      ],
      "stateMutability": "view",
      "type": "function"
    },
    {
      "inputs": [
        {
          "internalType": "address",
          "name": "owner",
          "type": "address"
        },
        {
          "internalType": "address",
          "name": "spender",
          "type": "address"
        }
      ],
      "name": "allowance",
      "outputs": [
        {
          "internalType": "uint256",
          "name": "",
          "type": "uint256"
        }
      ],
      "stateMutability": "view",
      "type": "function"
    },
    {
      "inputs": [
        {
          "internalType": "address",
          "name": "spender",
          "type": "address"
        },
        {
          "internalType": "uint256",
          "name": "value",
          "type": "uint256"
        }
      ],
      "name": "approve",
      "outputs": [
        {
          "internalType": "bool",
          "name": "",
          "type": "bool"
        }
      ],
      "stateMutability": "nonpayable",
      "type": "function"
    },
    {
      "inputs": [
        {
          "internalType": "address",
          "name": "account",
          "type": "address"
        }
      ],
      "name": "balanceOf",
      "outputs": [
        {
          "internalType": "uint256",
          "name": "",
          "type": "uint256"
        }
      ],
      "stateMutability": "view",
      "type": "function"
    },
    {
      "inputs": [
        {
          "internalType": "uint256",
          "name": "amount",
          "type": "uint256"
        }
      ],
      "name": "burn",
      "outputs": [],
      "stateMutability": "nonpayable",
      "type": "function"
    },
    {
      "inputs": [
        {
          "internalType": "address",
          "name": "staker",
          "type": "address"
        }
      ],
      "name": "calculateReward",
      "outputs": [
        {
          "internalType": "uint256",
          "name": "",
          "type": "uint256"
        }
      ],
      "stateMutability": "view",
      "type": "function"
    },
    {
      "inputs": [],
      "name": "decimals",
      "outputs": [
        {
          "internalType": "uint8",
          "name": "",
          "type": "uint8"
        }
      ],
      "stateMutability": "view",
      "type": "function"
    },
    {
      "inputs": [
        {
          "internalType": "bytes32",
          "name": "role",
          "type": "bytes32"
        }
      ],
      "name": "getRoleAdmin",
      "outputs": [
        {
          "internalType": "bytes32",
          "name": "",
          "type": "bytes32"
        }
      ],
      "stateMutability": "view",
      "type": "function"
    },
    {
      "inputs": [
        {
          "internalType": "bytes32",
          "name": "role",
          "type": "bytes32"
        },
        {
          "internalType": "address",
          "name": "account",
          "type": "address"
        }
      ],
      "name": "grantRole",
      "outputs": [],
      "stateMutability": "nonpayable",
      "type": "function"
    },
    {
      "inputs": [
        {
          "internalType": "bytes32",
          "name": "role",
          "type": "bytes32"
        },
        {
          "internalType": "address",
          "name": "account",
          "type": "address"
        }
      ],
      "name": "hasRole",
      "outputs": [
        {
          "internalType": "bool",
          "name": "",
          "type": "bool"
        }
      ],
      "stateMutability": "view",
      "type": "function"
    },
    {
      "inputs": [
        {
          "internalType": "address",
          "name": "",
          "type": "address"
        }
      ],
      "name": "lockPeriods",
      "outputs": [
        {
          "internalType": "uint256",
          "name": "",
          "type": "uint256"
        }
      ],
      "stateMutability": "view",
      "type": "function"
    },
    {
      "inputs": [
        {
          "internalType": "address",
          "name": "to",
          "type": "address"
        },
        {
          "internalType": "uint256",
          "name": "amount",
          "type": "uint256"
        }
      ],
      "name": "mint",
      "outputs": [],
      "stateMutability": "nonpayable",
      "type": "function"
    },
    {
      "inputs": [
        {
          "internalType": "uint256",
          "name": "amount",
          "type": "uint256"
        }
      ],
      "name": "mintTestTokens",
      "outputs": [],
      "stateMutability": "nonpayable",
      "type": "function"
    },
    {
      "inputs": [],
      "name": "name",
      "outputs": [
        {
          "internalType": "string",
          "name": "",
          "type": "string"
        }
      ],
      "stateMutability": "view",
      "type": "function"
    },
    {
      "inputs": [],
      "name": "pause",
      "outputs": [],
      "stateMutability": "nonpayable",
      "type": "function"
    },
    {
      "inputs": [],
      "name": "paused",
      "outputs": [
        {
          "internalType": "bool",
          "name": "",
          "type": "bool"
        }
      ],
      "stateMutability": "view",
      "type": "function"
    },
    {
      "inputs": [
        {
          "internalType": "bytes32",
          "name": "role",
          "type": "bytes32"
        },
        {
          "internalType": "address",
          "name": "callerConfirmation",
          "type": "address"
        }
      ],
      "name": "renounceRole",
      "outputs": [],
      "stateMutability": "nonpayable",
      "type": "function"
    },
    {
      "inputs": [
        {
          "internalType": "bytes32",
          "name": "role",
          "type": "bytes32"
        },
        {
          "internalType": "address",
          "name": "account",
          "type": "address"
        }
      ],
      "name": "revokeRole",
      "outputs": [],
      "stateMutability": "nonpayable",
      "type": "function"
    },
    {
      "inputs": [
        {
          "internalType": "uint256",
          "name": "amount",
          "type": "uint256"
        },
        {
          "internalType": "uint256",
          "name": "lockPeriod",
          "type": "uint256"
        }
      ],
      "name": "stake",
      "outputs": [],
      "stateMutability": "nonpayable",
      "type": "function"
    },
    {
      "inputs": [
        {
          "internalType": "address",
          "name": "",
          "type": "address"
        }
      ],
      "name": "stakingBalances",
      "outputs": [
        {
          "internalType": "uint256",
          "name": "",
          "type": "uint256"
        }
      ],
      "stateMutability": "view",
      "type": "function"
    },
    {
      "inputs": [
        {
          "internalType": "address",
          "name": "",
          "type": "address"
        }
      ],
      "name": "stakingTimestamps",
      "outputs": [
        {
          "internalType": "uint256",
          "name": "",
          "type": "uint256"
        }
      ],
      "stateMutability": "view",
      "type": "function"
    },
    {
      "inputs": [
        {
          "internalType": "bytes4",
          "name": "interfaceId",
          "type": "bytes4"
        }
      ],
      "name": "supportsInterface",
      "outputs": [
        {
          "internalType": "bool",
          "name": "",
          "type": "bool"
        }
      ],
      "stateMutability": "view",
      "type": "function"
    },
    {
      "inputs": [],
      "name": "symbol",
      "outputs": [
        {
          "internalType": "string",
          "name": "",
          "type": "string"
        }
      ],
      "stateMutability": "view",
      "type": "function"
    },
    {
      "inputs": [],
      "name": "totalSupply",
      "outputs": [
        {
          "internalType": "uint256",
          "name": "",
          "type": "uint256"
        }
      ],
      "stateMutability": "view",
      "type": "function"
    },
    {
      "inputs": [
        {
          "internalType": "address",
          "name": "to",
          "type": "address"
        },
        {
          "internalType": "uint256",
          "name": "value",
          "type": "uint256"
        }
      ],
      "name": "transfer",
      "outputs": [
        {
          "internalType": "bool",
          "name": "",
          "type": "bool"
        }
      ],
      "stateMutability": "nonpayable",
      "type": "function"
    },
    {
      "inputs": [
        {
          "internalType": "address",
          "name": "from",
          "type": "address"
        },
        {
          "internalType": "address",
          "name": "to",
          "type": "address"
        },
        {
          "internalType": "uint256",
          "name": "value",
          "type": "uint256"
        }
      ],
      "name": "transferFrom",
      "outputs": [
        {
          "internalType": "bool",
          "name": "",
          "type": "bool"
        }
      ],
      "stateMutability": "nonpayable",
      "type": "function"
    },
    {
      "inputs": [],
      "name": "unpause",
      "outputs": [],
      "stateMutability": "nonpayable",
      "type": "function"
    },
    {
      "inputs": [],
      "name": "unstake",
      "outputs": [],
      "stateMutability": "nonpayable",
      "type": "function"
    }
  ],
  "bytecode": "0x6080604052346103f057604080519081016001600160401b038111828210176102fb576040908152600b82526a547275737442726964676560a81b602083015280519081016001600160401b038111828210176102fb57604052600581526415149554d560da1b602082015281516001600160401b0381116102fb57600354600181811c911680156103e6575b60208210146102db57601f8111610381575b50602092601f821160011461031c5792819293600092610311575b50508160011b916000199060031b1c1916176003555b80516001600160401b0381116102fb57600454600181811c911680156102f1575b60208210146102db57601f8111610276575b50602091601f821160011461021257918192600092610207575b50508160011b916000199060031b1c1916176004555b6001600755610140336103f5565b5061014a33610471565b5061015433610509565b5033156101f1576002546aa56fa5b99019a5c800000081018091116101db57600255600033815280602052604081206aa56fa5b99019a5c80000008154019055604051906aa56fa5b99019a5c800000082527fddf252ad1be2c89b69c2b068fc378daa952ba7f163c4a11628f55a4df523b3ef60203393a360405161131e90816105c68239f35b634e487b7160e01b600052601160045260246000fd5b63ec442f0560e01b600052600060045260246000fd5b01519050388061011c565b601f198216926004600052806000209160005b85811061025e57508360019510610245575b505050811b01600455610132565b015160001960f88460031b161c19169055388080610237565b91926020600181928685015181550194019201610225565b60046000527f8a35acfbc15ff81a39ae7d344fd709f28e8600b4aa8c65c6b64bfe7fe36bd19b601f830160051c810191602084106102d1575b601f0160051c01905b8181106102c55750610102565b600081556001016102b8565b90915081906102af565b634e487b7160e01b600052602260045260246000fd5b90607f16906100f0565b634e487b7160e01b600052604160045260246000fd5b0151905038806100b9565b601f198216936003600052806000209160005b8681106103695750836001959610610350575b505050811b016003556100cf565b015160001960f88460031b161c19169055388080610342565b9192602060018192868501518155019401920161032f565b60036000527fc2575a0e9e593c00f959f8c92f12db2869c3395a3b0502d05e2516446f71f85b601f830160051c810191602084106103dc575b601f0160051c01905b8181106103d0575061009e565b600081556001016103c3565b90915081906103ba565b90607f169061008c565b600080fd5b6001600160a01b0381166000908152600080516020611924833981519152602052604090205460ff1661046b576001600160a01b0316600081815260008051602061192483398151915260205260408120805460ff191660011790553391906000805160206118e48339815191528180a4600190565b50600090565b6001600160a01b0381166000908152600080516020611904833981519152602052604090205460ff1661046b576001600160a01b0316600081815260008051602061190483398151915260205260408120805460ff191660011790553391907f9f2df0fed2c77648de5860a4cc508cd0818c85b8b8a1ab4ceeef8d981c8956a6906000805160206118e48339815191529080a4600190565b6001600160a01b03811660009081527f847f481f687befb06ed3511f1a8dcef57e83007c0147ae5047583d7056170937602052604090205460ff1661046b576001600160a01b031660008181527f847f481f687befb06ed3511f1a8dcef57e83007c0147ae5047583d705617093760205260408120805460ff191660011790553391907f3c11d16cbaffd01df69ce1c404f6340ee057498f5f00246190ea54220576a848906000805160206118e48339815191529080a460019056fe608080604052600436101561001357600080fd5b60003560e01c90816301ffc9a714610e6d5750806306fdde0314610d97578063095ea7b314610d1157806318160ddd14610cf357806323b872dd14610c06578063248a9ca314610bd9578063282c51f314610b9e5780632def662014610a275780632f2ff15d146109e75780632ff2e9dc146109c1578063313ce567146109a557806332cb6b0c1461097e57806336568abe146109385780633f4ba83a146108cf57806340c10f19146107e157806342966c68146106ca5780635c975abb146106a757806361b8b5dc1461066d57806370a08231146106335780637b0472f0146105005780638456cb59146104a657806391d1485414610459578063937b983b1461041f57806395d89b41146102fe578063a217fddf146102e2578063a9059cbb146102b1578063cc02899314610277578063d53913931461023c578063d547741f146101f5578063d82e3962146101ca5763dd62ed3e1461017457600080fd5b346101c55760403660031901126101c55761018d610f09565b610195610f1f565b6001600160a01b039182166000908152600160209081526040808320949093168252928352819020549051908152f35b600080fd5b346101c55760203660031901126101c55760206101ed6101e8610f09565b610f6b565b604051908152f35b346101c55760403660031901126101c55761023a600435610214610f1f565b9061023561023082600052600560205260016040600020015490565b611179565b611245565b005b346101c55760003660031901126101c55760206040517f9f2df0fed2c77648de5860a4cc508cd0818c85b8b8a1ab4ceeef8d981c8956a68152f35b346101c55760203660031901126101c5576001600160a01b03610298610f09565b16600052600a6020526020604060002054604051908152f35b346101c55760403660031901126101c5576102d76102cd610f09565b6024359033611019565b602060405160018152f35b346101c55760003660031901126101c557602060405160008152f35b346101c55760003660031901126101c55760405160006004548060011c90600181168015610415575b602083108114610401578285529081156103e5575060011461038e575b50819003601f01601f191681019067ffffffffffffffff8211818310176103785761037482918260405282610ec0565b0390f35b634e487b7160e01b600052604160045260246000fd5b905060046000527f8a35acfbc15ff81a39ae7d344fd709f28e8600b4aa8c65c6b64bfe7fe36bd19b6000905b8282106103cf57506020915082010182610344565b60018160209254838588010152019101906103ba565b90506020925060ff191682840152151560051b82010182610344565b634e487b7160e01b84526022600452602484fd5b91607f1691610327565b346101c55760203660031901126101c5576001600160a01b03610440610f09565b1660005260096020526020604060002054604051908152f35b346101c55760403660031901126101c557610472610f1f565b600435600052600560205260406000209060018060a01b0316600052602052602060ff604060002054166040519015158152f35b346101c55760003660031901126101c5576104bf611126565b6104c76112cb565b600160ff1960065416176006557f62e78cea01bee320cd4e420270b5ea74000d11b0c9f74754ebdbfc544b05a2586020604051338152a1005b346101c55760403660031901126101c55760043560243561051f6112cb565b81156105f95762278d00811015806105eb575b156105b057610542823033611019565b336000526008602052604060002061055b838254610f35565b90553360005260096020524260406000205533600052600a6020528060406000205560405191825260208201527f1449c6dd7851abc30abf37f57715f492010519147cc2652fbc38202c18a6ee9060403392a2005b60405162461bcd60e51b8152602060048201526013602482015272125b9d985b1a59081b1bd8dac81c195c9a5bd9606a1b6044820152606490fd5b506301e13380811115610532565b60405162461bcd60e51b81526020600482015260126024820152710416d6f756e74206d757374206265203e20360741b6044820152606490fd5b346101c55760203660031901126101c5576001600160a01b03610654610f09565b1660005260006020526020604060002054604051908152f35b346101c55760203660031901126101c5576001600160a01b0361068e610f09565b1660005260086020526020604060002054604051908152f35b346101c55760003660031901126101c557602060ff600654166040519015158152f35b346101c55760203660031901126101c5573360009081527f847f481f687befb06ed3511f1a8dcef57e83007c0147ae5047583d705617093760205260409020546004359060ff16156107a857331561079257600033815280602052604081205491808310610779578082933384528360205203604083205580600254036002556040519081527fddf252ad1be2c89b69c2b068fc378daa952ba7f163c4a11628f55a4df523b3ef60203392a380f35b60649263391434e360e21b835233600452602452604452fd5b634b637e8f60e11b600052600060045260246000fd5b63e2517d3f60e01b600052336004527f3c11d16cbaffd01df69ce1c404f6340ee057498f5f00246190ea54220576a84860245260446000fd5b346101c55760403660031901126101c5576107fa610f09565b3360009081527f15a28d26fa1bf736cf7edc9922607171ccb09c3c73b808e7772a3013e068a52260205260409020546024359060ff1615610896576b033b2e3c9fd0803ce800000061084e82600254610f35565b1161085c5761023a916110c8565b60405162461bcd60e51b815260206004820152601260248201527145786365656473206d617820737570706c7960701b6044820152606490fd5b63e2517d3f60e01b600052336004527f9f2df0fed2c77648de5860a4cc508cd0818c85b8b8a1ab4ceeef8d981c8956a660245260446000fd5b346101c55760003660031901126101c5576108e8611126565b60065460ff8116156109275760ff19166006557f5db9ee0a495bf2e6ff9c91a7834c1ba4fdd244a5e8aa4e537bd38aeae4b073aa6020604051338152a1005b638dfc202b60e01b60005260046000fd5b346101c55760403660031901126101c557610951610f1f565b336001600160a01b0382160361096d5761023a90600435611245565b63334bd91960e11b60005260046000fd5b346101c55760003660031901126101c55760206040516b033b2e3c9fd0803ce80000008152f35b346101c55760003660031901126101c557602060405160128152f35b346101c55760003660031901126101c55760206040516aa56fa5b99019a5c80000008152f35b346101c55760403660031901126101c55761023a600435610a06610f1f565b90610a2261023082600052600560205260016040600020015490565b6111b6565b346101c55760003660031901126101c557600260075414610b8d5760026007553360005260086020526040600020548015610b5557336000526009602052610a8360406000205433600052600a60205260406000205490610f35565b4210610b1a57610a9233610f6b565b336000526008602052600060408120553360005260096020526000604081205533600052600a60205260006040812055610acd823330611019565b80610b0b575b60405191825260208201527f7fc4727e062e336010f2c282598ef5f14facb3de68cf8195c2f23e1454b2b74e60403392a26001600755005b610b1581336110c8565b610ad3565b60405162461bcd60e51b8152602060048201526013602482015272151bdad95b9cc81cdd1a5b1b081b1bd8dad959606a1b6044820152606490fd5b60405162461bcd60e51b815260206004820152601060248201526f4e6f207374616b656420746f6b656e7360801b6044820152606490fd5b633ee5aeb560e01b60005260046000fd5b346101c55760003660031901126101c55760206040517f3c11d16cbaffd01df69ce1c404f6340ee057498f5f00246190ea54220576a8488152f35b346101c55760203660031901126101c55760206101ed600435600052600560205260016040600020015490565b346101c55760603660031901126101c557610c1f610f09565b610c27610f1f565b6001600160a01b0382166000818152600160209081526040808320338452909152902054909260443592916000198110610c67575b506102d79350611019565b838110610cd6578415610cc0573315610caa576102d7946000526001602052604060002060018060a01b0333166000526020528360406000209103905584610c5c565b634a1406b160e11b600052600060045260246000fd5b63e602df0560e01b600052600060045260246000fd5b8390637dc7a0d960e11b6000523360045260245260445260646000fd5b346101c55760003660031901126101c5576020600254604051908152f35b346101c55760403660031901126101c557610d2a610f09565b602435903315610cc0576001600160a01b0316908115610caa57336000526001602052604060002082600052602052806040600020556040519081527f8c5be1e5ebec7d5bd14f71427d1e84f3dd0314c0f7b2291e5b200ac8c7c3b92560203392a3602060405160018152f35b346101c55760003660031901126101c55760405160006003548060011c90600181168015610e63575b602083108114610401578285529081156103e55750600114610e0c5750819003601f01601f191681019067ffffffffffffffff8211818310176103785761037482918260405282610ec0565b905060036000527fc2575a0e9e593c00f959f8c92f12db2869c3395a3b0502d05e2516446f71f85b6000905b828210610e4d57506020915082010182610344565b6001816020925483858801015201910190610e38565b91607f1691610dc0565b346101c55760203660031901126101c5576004359063ffffffff60e01b82168092036101c557602091637965db0b60e01b8114908115610eaf575b5015158152f35b6301ffc9a760e01b14905083610ea8565b91909160208152825180602083015260005b818110610ef3575060409293506000838284010152601f8019910116010190565b8060208092870101516040828601015201610ed2565b600435906001600160a01b03821682036101c557565b602435906001600160a01b03821682036101c557565b91908201809211610f4257565b634e487b7160e01b600052601160045260246000fd5b81810292918115918404141715610f4257565b6001600160a01b0316600090815260086020908152604080832054600a835281842054600990935292205490919042908103908111610f425781158015611010575b6110085764496cebb80092610fd592610fd09162278d008111610fd957506101f4905b610f58565b0490565b6276a7008111610fed57506103e890610f58565b62ed4e0010610fff576105dc90610f58565b6109c490610f58565b505050600090565b50828110610fad565b6001600160a01b0316908115610792576001600160a01b03169182156110b25760008281528060205260408120548281106110985791604082827fddf252ad1be2c89b69c2b068fc378daa952ba7f163c4a11628f55a4df523b3ef958760209652828652038282205586815280845220818154019055604051908152a3565b916064928463391434e360e21b8452600452602452604452fd5b63ec442f0560e01b600052600060045260246000fd5b6001600160a01b03169081156110b2576110e481600254610f35565b6002557fddf252ad1be2c89b69c2b068fc378daa952ba7f163c4a11628f55a4df523b3ef602060009284845283825260408420818154019055604051908152a3565b3360009081527f05b8ccbb9d4d8fb16ea74ce3c29a41f1b461fbdaff4714a0d9a8eb05499746bc602052604090205460ff161561115f57565b63e2517d3f60e01b60005233600452600060245260446000fd5b600081815260056020908152604080832033845290915290205460ff161561119e5750565b63e2517d3f60e01b6000523360045260245260446000fd5b60008181526005602090815260408083206001600160a01b038616845290915290205460ff1661123e5760008181526005602090815260408083206001600160a01b0395909516808452949091528120805460ff19166001179055339291907f2f8788117e7eff1d82e926ec794901d17c78024a50270940304540a733656f0d9080a4600190565b5050600090565b60008181526005602090815260408083206001600160a01b038616845290915290205460ff161561123e5760008181526005602090815260408083206001600160a01b0395909516808452949091528120805460ff19169055339291907ff6391f5c32d9c69d2a47ea670b442974b53935d1edc7fd64eb21e047a839171b9080a4600190565b60ff600654166112d757565b63d93c066560e01b60005260046000fdfea2646970667358221220e56fa23c8a8e887c1769c0fcd014a384eeb24c39e636d91e96c2634df0281b7b64736f6c634300081c00332f8788117e7eff1d82e926ec794901d17c78024a50270940304540a733656f0d15a28d26fa1bf736cf7edc9922607171ccb09c3c73b808e7772a3013e068a52205b8ccbb9d4d8fb16ea74ce3c29a41f1b461fbdaff4714a0d9a8eb05499746bc",
  "linkReferences": {},
  "deployedLinkReferences": {}
}