{
  "_format": "hh-sol-artifact-1",
  "contractName": "TRUSTMarketplace",
  "sourceName": "contracts/TRUSTMarketplace.sol",
  "abi": [
    {
      "inputs": [
        {
          "internalType": "address",
          "name": "_assetNFT",
          "type": "address"
        },
        {
          "internalType": "address",
          "name": "_trustToken",
          "type": "address"
        },
        {
          "internalType": "address",
          "name": "_feeRecipient",
          "type": "address"
        }
      ],
      "stateMutability": "nonpayable",
      "type": "constructor"
    },
    {
      "inputs": [],
      "name": "AccessControlBadConfirmation",
      "type": "error"
    },
    {
      "inputs": [
        {
          "internalType": "address",
          "name": "account",
          "type": "address"
        },
        {
          "internalType": "bytes32",
          "name": "neededRole",
          "type": "bytes32"
        }
      ],
      "name": "AccessControlUnauthorizedAccount",
      "type": "error"
    },
    {
      "inputs": [],
      "name": "EnforcedPause",
      "type": "error"
    },
    {
      "inputs": [],
      "name": "ExpectedPause",
      "type": "error"
    },
    {
      "inputs": [],
      "name": "ReentrancyGuardReentrantCall",
      "type": "error"
    },
    {
      "anonymous": false,
      "inputs": [
        {
          "indexed": true,
          "internalType": "uint256",
          "name": "listingId",
          "type": "uint256"
        },
        {
          "indexed": true,
          "internalType": "address",
          "name": "seller",
          "type": "address"
        },
        {
          "indexed": true,
          "internalType": "address",
          "name": "nftContract",
          "type": "address"
        },
        {
          "indexed": false,
          "internalType": "uint256",
          "name": "tokenId",
          "type": "uint256"
        },
        {
          "indexed": false,
          "internalType": "uint256",
          "name": "price",
          "type": "uint256"
        }
      ],
      "name": "AssetListed",
      "type": "event"
    },
    {
      "anonymous": false,
      "inputs": [
        {
          "indexed": true,
          "internalType": "uint256",
          "name": "listingId",
          "type": "uint256"
        },
        {
          "indexed": true,
          "internalType": "address",
          "name": "seller",
          "type": "address"
        },
        {
          "indexed": true,
          "internalType": "address",
          "name": "buyer",
          "type": "address"
        },
        {
          "indexed": false,
          "internalType": "uint256",
          "name": "price",
          "type": "uint256"
        },
        {
          "indexed": false,
          "internalType": "uint256",
          "name": "fee",
          "type": "uint256"
        }
      ],
      "name": "AssetSold",
      "type": "event"
    },
    {
      "anonymous": false,
      "inputs": [
        {
          "indexed": true,
          "internalType": "uint256",
          "name": "listingId",
          "type": "uint256"
        }
      ],
      "name": "ListingCancelled",
      "type": "event"
    },
    {
      "anonymous": false,
      "inputs": [
        {
          "indexed": true,
          "internalType": "uint256",
          "name": "listingId",
          "type": "uint256"
        },
        {
          "indexed": true,
          "internalType": "address",
          "name": "buyer",
          "type": "address"
        },
        {
          "indexed": false,
          "internalType": "uint256",
          "name": "price",
          "type": "uint256"
        }
      ],
      "name": "OfferAccepted",
      "type": "event"
    },
    {
      "anonymous": false,
      "inputs": [
        {
          "indexed": true,
          "internalType": "uint256",
          "name": "listingId",
          "type": "uint256"
        },
        {
          "indexed": true,
          "internalType": "address",
          "name": "buyer",
          "type": "address"
        }
      ],
      "name": "OfferCancelled",
      "type": "event"
    },
    {
      "anonymous": false,
      "inputs": [
        {
          "indexed": true,
          "internalType": "uint256",
          "name": "listingId",
          "type": "uint256"
        },
        {
          "indexed": true,
          "internalType": "address",
          "name": "buyer",
          "type": "address"
        },
        {
          "indexed": false,
          "internalType": "uint256",
          "name": "price",
          "type": "uint256"
        }
      ],
      "name": "OfferMade",
      "type": "event"
    },
    {
      "anonymous": false,
      "inputs": [
        {
          "indexed": false,
          "internalType": "address",
          "name": "account",
          "type": "address"
        }
      ],
      "name": "Paused",
      "type": "event"
    },
    {
      "anonymous": false,
      "inputs": [
        {
          "indexed": true,
          "internalType": "bytes32",
          "name": "role",
          "type": "bytes32"
        },
        {
          "indexed": true,
          "internalType": "bytes32",
          "name": "previousAdminRole",
          "type": "bytes32"
        },
        {
          "indexed": true,
          "internalType": "bytes32",
          "name": "newAdminRole",
          "type": "bytes32"
        }
      ],
      "name": "RoleAdminChanged",
      "type": "event"
    },
    {
      "anonymous": false,
      "inputs": [
        {
          "indexed": true,
          "internalType": "bytes32",
          "name": "role",
          "type": "bytes32"
        },
        {
          "indexed": true,
          "internalType": "address",
          "name": "account",
          "type": "address"
        },
        {
          "indexed": true,
          "internalType": "address",
          "name": "sender",
          "type": "address"
        }
      ],
      "name": "RoleGranted",
      "type": "event"
    },
    {
      "anonymous": false,
      "inputs": [
        {
          "indexed": true,
          "internalType": "bytes32",
          "name": "role",
          "type": "bytes32"
        },
        {
          "indexed": true,
          "internalType": "address",
          "name": "account",
          "type": "address"
        },
        {
          "indexed": true,
          "internalType": "address",
          "name": "sender",
          "type": "address"
        }
      ],
      "name": "RoleRevoked",
      "type": "event"
    },
    {
      "anonymous": false,
      "inputs": [
        {
          "indexed": false,
          "internalType": "address",
          "name": "account",
          "type": "address"
        }
      ],
      "name": "Unpaused",
      "type": "event"
    },
    {
      "inputs": [],
      "name": "DEFAULT_ADMIN_ROLE",
      "outputs": [
        {
          "internalType": "bytes32",
          "name": "",
          "type": "bytes32"
        }
      ],
      "stateMutability": "view",
      "type": "function"
    },
    {
      "inputs": [],
      "name": "LISTER_ROLE",
      "outputs": [
        {
          "internalType": "bytes32",
          "name": "",
          "type": "bytes32"
        }
      ],
      "stateMutability": "view",
      "type": "function"
    },
    {
      "inputs": [
        {
          "internalType": "uint256",
          "name": "listingId",
          "type": "uint256"
        },
        {
          "internalType": "address",
          "name": "buyer",
          "type": "address"
        }
      ],
      "name": "acceptOffer",
      "outputs": [],
      "stateMutability": "nonpayable",
      "type": "function"
    },
    {
      "inputs": [],
      "name": "assetNFT",
      "outputs": [
        {
          "internalType": "contract AssetNFT",
          "name": "",
          "type": "address"
        }
      ],
      "stateMutability": "view",
      "type": "function"
    },
    {
      "inputs": [
        {
          "internalType": "uint256",
          "name": "listingId",
          "type": "uint256"
        }
      ],
      "name": "buyAsset",
      "outputs": [],
      "stateMutability": "nonpayable",
      "type": "function"
    },
    {
      "inputs": [
        {
          "internalType": "uint256",
          "name": "listingId",
          "type": "uint256"
        }
      ],
      "name": "cancelListing",
      "outputs": [],
      "stateMutability": "nonpayable",
      "type": "function"
    },
    {
      "inputs": [
        {
          "internalType": "uint256",
          "name": "listingId",
          "type": "uint256"
        }
      ],
      "name": "cancelOffer",
      "outputs": [],
      "stateMutability": "nonpayable",
      "type": "function"
    },
    {
      "inputs": [
        {
          "internalType": "address",
          "name": "token",
          "type": "address"
        },
        {
          "internalType": "uint256",
          "name": "amount",
          "type": "uint256"
        }
      ],
      "name": "emergencyWithdraw",
      "outputs": [],
      "stateMutability": "nonpayable",
      "type": "function"
    },
    {
      "inputs": [],
      "name": "feeRecipient",
      "outputs": [
        {
          "internalType": "address",
          "name": "",
          "type": "address"
        }
      ],
      "stateMutability": "view",
      "type": "function"
    },
    {
      "inputs": [],
      "name": "getActiveListings",
      "outputs": [
        {
          "internalType": "uint256[]",
          "name": "",
          "type": "uint256[]"
        }
      ],
      "stateMutability": "view",
      "type": "function"
    },
    {
      "inputs": [
        {
          "internalType": "address",
          "name": "nftContract",
          "type": "address"
        },
        {
          "internalType": "uint256",
          "name": "tokenId",
          "type": "uint256"
        }
      ],
      "name": "getAssetListings",
      "outputs": [
        {
          "internalType": "uint256[]",
          "name": "",
          "type": "uint256[]"
        }
      ],
      "stateMutability": "view",
      "type": "function"
    },
    {
      "inputs": [
        {
          "internalType": "uint256",
          "name": "listingId",
          "type": "uint256"
        }
      ],
      "name": "getListing",
      "outputs": [
        {
          "components": [
            {
              "internalType": "address",
              "name": "seller",
              "type": "address"
            },
            {
              "internalType": "address",
              "name": "nftContract",
              "type": "address"
            },
            {
              "internalType": "uint256",
              "name": "tokenId",
              "type": "uint256"
            },
            {
              "internalType": "uint256",
              "name": "price",
              "type": "uint256"
            },
            {
              "internalType": "bool",
              "name": "isActive",
              "type": "bool"
            },
            {
              "internalType": "uint256",
              "name": "createdAt",
              "type": "uint256"
            },
            {
              "internalType": "uint256",
              "name": "expiresAt",
              "type": "uint256"
            }
          ],
          "internalType": "struct TRUSTMarketplace.Listing",
          "name": "",
          "type": "tuple"
        }
      ],
      "stateMutability": "view",
      "type": "function"
    },
    {
      "inputs": [
        {
          "internalType": "uint256",
          "name": "listingId",
          "type": "uint256"
        },
        {
          "internalType": "address",
          "name": "buyer",
          "type": "address"
        }
      ],
      "name": "getOffer",
      "outputs": [
        {
          "components": [
            {
              "internalType": "address",
              "name": "buyer",
              "type": "address"
            },
            {
              "internalType": "uint256",
              "name": "price",
              "type": "uint256"
            },
            {
              "internalType": "bool",
              "name": "isActive",
              "type": "bool"
            },
            {
              "internalType": "uint256",
              "name": "createdAt",
              "type": "uint256"
            },
            {
              "internalType": "uint256",
              "name": "expiresAt",
              "type": "uint256"
            }
          ],
          "internalType": "struct TRUSTMarketplace.Offer",
          "name": "",
          "type": "tuple"
        }
      ],
      "stateMutability": "view",
      "type": "function"
    },
    {
      "inputs": [
        {
          "internalType": "bytes32",
          "name": "role",
          "type": "bytes32"
        }
      ],
      "name": "getRoleAdmin",
      "outputs": [
        {
          "internalType": "bytes32",
          "name": "",
          "type": "bytes32"
        }
      ],
      "stateMutability": "view",
      "type": "function"
    },
    {
      "inputs": [
        {
          "internalType": "address",
          "name": "user",
          "type": "address"
        }
      ],
      "name": "getUserListings",
      "outputs": [
        {
          "internalType": "uint256[]",
          "name": "",
          "type": "uint256[]"
        }
      ],
      "stateMutability": "view",
      "type": "function"
    },
    {
      "inputs": [
        {
          "internalType": "address",
          "name": "user",
          "type": "address"
        }
      ],
      "name": "getUserOffers",
      "outputs": [
        {
          "internalType": "uint256[]",
          "name": "",
          "type": "uint256[]"
        }
      ],
      "stateMutability": "view",
      "type": "function"
    },
    {
      "inputs": [
        {
          "internalType": "bytes32",
          "name": "role",
          "type": "bytes32"
        },
        {
          "internalType": "address",
          "name": "account",
          "type": "address"
        }
      ],
      "name": "grantRole",
      "outputs": [],
      "stateMutability": "nonpayable",
      "type": "function"
    },
    {
      "inputs": [
        {
          "internalType": "bytes32",
          "name": "role",
          "type": "bytes32"
        },
        {
          "internalType": "address",
          "name": "account",
          "type": "address"
        }
      ],
      "name": "hasRole",
      "outputs": [
        {
          "internalType": "bool",
          "name": "",
          "type": "bool"
        }
      ],
      "stateMutability": "view",
      "type": "function"
    },
    {
      "inputs": [
        {
          "internalType": "address",
          "name": "nftContract",
          "type": "address"
        },
        {
          "internalType": "uint256",
          "name": "tokenId",
          "type": "uint256"
        },
        {
          "internalType": "uint256",
          "name": "price",
          "type": "uint256"
        },
        {
          "internalType": "uint256",
          "name": "duration",
          "type": "uint256"
        }
      ],
      "name": "listAsset",
      "outputs": [
        {
          "internalType": "uint256",
          "name": "",
          "type": "uint256"
        }
      ],
      "stateMutability": "nonpayable",
      "type": "function"
    },
    {
      "inputs": [],
      "name": "listingCounter",
      "outputs": [
        {
          "internalType": "uint256",
          "name": "",
          "type": "uint256"
        }
      ],
      "stateMutability": "view",
      "type": "function"
    },
    {
      "inputs": [
        {
          "internalType": "uint256",
          "name": "",
          "type": "uint256"
        }
      ],
      "name": "listings",
      "outputs": [
        {
          "internalType": "address",
          "name": "seller",
          "type": "address"
        },
        {
          "internalType": "address",
          "name": "nftContract",
          "type": "address"
        },
        {
          "internalType": "uint256",
          "name": "tokenId",
          "type": "uint256"
        },
        {
          "internalType": "uint256",
          "name": "price",
          "type": "uint256"
        },
        {
          "internalType": "bool",
          "name": "isActive",
          "type": "bool"
        },
        {
          "internalType": "uint256",
          "name": "createdAt",
          "type": "uint256"
        },
        {
          "internalType": "uint256",
          "name": "expiresAt",
          "type": "uint256"
        }
      ],
      "stateMutability": "view",
      "type": "function"
    },
    {
      "inputs": [
        {
          "internalType": "uint256",
          "name": "listingId",
          "type": "uint256"
        },
        {
          "internalType": "uint256",
          "name": "price",
          "type": "uint256"
        },
        {
          "internalType": "uint256",
          "name": "duration",
          "type": "uint256"
        }
      ],
      "name": "makeOffer",
      "outputs": [],
      "stateMutability": "nonpayable",
      "type": "function"
    },
    {
      "inputs": [],
      "name": "maximumListingPrice",
      "outputs": [
        {
          "internalType": "uint256",
          "name": "",
          "type": "uint256"
        }
      ],
      "stateMutability": "view",
      "type": "function"
    },
    {
      "inputs": [],
      "name": "minimumListingPrice",
      "outputs": [
        {
          "internalType": "uint256",
          "name": "",
          "type": "uint256"
        }
      ],
      "stateMutability": "view",
      "type": "function"
    },
    {
      "inputs": [
        {
          "internalType": "uint256",
          "name": "",
          "type": "uint256"
        },
        {
          "internalType": "address",
          "name": "",
          "type": "address"
        }
      ],
      "name": "offers",
      "outputs": [
        {
          "internalType": "address",
          "name": "buyer",
          "type": "address"
        },
        {
          "internalType": "uint256",
          "name": "price",
          "type": "uint256"
        },
        {
          "internalType": "bool",
          "name": "isActive",
          "type": "bool"
        },
        {
          "internalType": "uint256",
          "name": "createdAt",
          "type": "uint256"
        },
        {
          "internalType": "uint256",
          "name": "expiresAt",
          "type": "uint256"
        }
      ],
      "stateMutability": "view",
      "type": "function"
    },
    {
      "inputs": [],
      "name": "pause",
      "outputs": [],
      "stateMutability": "nonpayable",
      "type": "function"
    },
    {
      "inputs": [],
      "name": "paused",
      "outputs": [
        {
          "internalType": "bool",
          "name": "",
          "type": "bool"
        }
      ],
      "stateMutability": "view",
      "type": "function"
    },
    {
      "inputs": [
        {
          "internalType": "bytes32",
          "name": "role",
          "type": "bytes32"
        },
        {
          "internalType": "address",
          "name": "callerConfirmation",
          "type": "address"
        }
      ],
      "name": "renounceRole",
      "outputs": [],
      "stateMutability": "nonpayable",
      "type": "function"
    },
    {
      "inputs": [
        {
          "internalType": "bytes32",
          "name": "role",
          "type": "bytes32"
        },
        {
          "internalType": "address",
          "name": "account",
          "type": "address"
        }
      ],
      "name": "revokeRole",
      "outputs": [],
      "stateMutability": "nonpayable",
      "type": "function"
    },
    {
      "inputs": [
        {
          "internalType": "uint256",
          "name": "minPrice",
          "type": "uint256"
        },
        {
          "internalType": "uint256",
          "name": "maxPrice",
          "type": "uint256"
        }
      ],
      "name": "setPriceLimits",
      "outputs": [],
      "stateMutability": "nonpayable",
      "type": "function"
    },
    {
      "inputs": [
        {
          "internalType": "uint256",
          "name": "newFee",
          "type": "uint256"
        }
      ],
      "name": "setTradingFee",
      "outputs": [],
      "stateMutability": "nonpayable",
      "type": "function"
    },
    {
      "inputs": [
        {
          "internalType": "address",
          "name": "_trustToken",
          "type": "address"
        }
      ],
      "name": "setTrustToken",
      "outputs": [],
      "stateMutability": "nonpayable",
      "type": "function"
    },
    {
      "inputs": [
        {
          "internalType": "bytes4",
          "name": "interfaceId",
          "type": "bytes4"
        }
      ],
      "name": "supportsInterface",
      "outputs": [
        {
          "internalType": "bool",
          "name": "",
          "type": "bool"
        }
      ],
      "stateMutability": "view",
      "type": "function"
    },
    {
      "inputs": [],
      "name": "tradingFee",
      "outputs": [
        {
          "internalType": "uint256",
          "name": "",
          "type": "uint256"
        }
      ],
      "stateMutability": "view",
      "type": "function"
    },
    {
      "inputs": [],
      "name": "trustToken",
      "outputs": [
        {
          "internalType": "contract TrustToken",
          "name": "",
          "type": "address"
        }
      ],
      "stateMutability": "view",
      "type": "function"
    },
    {
      "inputs": [],
      "name": "unpause",
      "outputs": [],
      "stateMutability": "nonpayable",
      "type": "function"
    },
    {
      "inputs": [
        {
          "internalType": "address",
          "name": "",
          "type": "address"
        },
        {
          "internalType": "uint256",
          "name": "",
          "type": "uint256"
        }
      ],
      "name": "userListings",
      "outputs": [
        {
          "internalType": "uint256",
          "name": "",
          "type": "uint256"
        }
      ],
      "stateMutability": "view",
      "type": "function"
    },
    {
      "inputs": [
        {
          "internalType": "address",
          "name": "",
          "type": "address"
        },
        {
          "internalType": "uint256",
          "name": "",
          "type": "uint256"
        }
      ],
      "name": "userOffers",
      "outputs": [
        {
          "internalType": "uint256",
          "name": "",
          "type": "uint256"
        }
      ],
      "stateMutability": "view",
      "type": "function"
    }
  ],
  "bytecode": "0x6080346100e657601f61277638819003918201601f19168301916001600160401b038311848410176100eb578084926060946040528339810103126100e65761004781610101565b90610060604061005960208401610101565b9201610101565b91600160025560fa600855670de0b6b3a764000060095569d3c21bcecceda1000000600a5561008e33610115565b5061009833610191565b50600c80546001600160a01b03199081166001600160a01b0393841617909155600d8054821693831693909317909255600b805490921692169190911790556040516124ec908161022a8239f35b600080fd5b634e487b7160e01b600052604160045260246000fd5b51906001600160a01b03821682036100e657565b6001600160a01b0381166000908152600080516020612756833981519152602052604090205460ff1661018b576001600160a01b0316600081815260008051602061275683398151915260205260408120805460ff191660011790553391906000805160206127168339815191528180a4600190565b50600090565b6001600160a01b0381166000908152600080516020612736833981519152602052604090205460ff1661018b576001600160a01b0316600081815260008051602061273683398151915260205260408120805460ff191660011790553391907ff94103142c1baabe9ac2b5d1487bf783de9e69cfeea9a72f5c9c94afd7877b8c906000805160206127168339815191529080a460019056fe608080604052600436101561001357600080fd5b600090813560e01c90816301ffc9a714611d4d57508063107a274a14611c53578063110d35b8146118a4578063248a9ca31461186e5780632db73153146118295780632f2ff15d146117e8578063305a67a81461177557806336568abe14611730578063370faeb0146116c95780633bd12ba5146116ab5780633f4ba83a14611643578063469048401461161a57806348c2d2c4146115fc57806356f43352146115de5780635c975abb146115bb578063614f6f2e146112bd578063661d2c2c1461124b5780636c2c9c7d1461122d5780638456cb59146111d357806386cfa7d31461118b57806387c35bc0146110c0578063918d407d14610cd157806391d1485414610c8657806395ccea6714610bb9578063a217fddf14610b9d578063ac6a258d14610b74578063b0d54bcf14610b14578063b9520ce414610a43578063bd5fec65146109ec578063d13deb2f146109c3578063d547741f14610979578063de74e57b146108f8578063deb26b94146108bd578063e210a72d14610576578063eb18a9d8146104f8578063ebdfbce51461047b578063eda26407146103475763ef706adf146101c357600080fd5b3461034457602036600319011261034457600480358083526020918252604080842033600081815291909452208054919290916001600160a01b031603610313576020610263826002869401805461021d60ff821661229f565b60ff19169055600d546001919091015460405163a9059cbb60e01b815233600482015260248101919091529384926001600160a01b039092169183919082906044820190565b03925af19081156103085783916102d9575b50156102a45733907f1f51377b3e685a0e2419f9bb4ba7c07ec54936353ba3d0fb3c6538dab67662228380a380f35b60405162461bcd60e51b815260206004820152600d60248201526c1499599d5b990819985a5b1959609a1b6044820152606490fd5b6102fb915060203d602011610301575b6102f38183611e88565b810190611ff7565b38610275565b503d6102e9565b6040513d85823e3d90fd5b60405162461bcd60e51b81526020600482015260096024820152682737ba10313abcb2b960b91b6044820152606490fd5b80fd5b503461034457604036600319011261034457610361611da6565b60243560075461037081612259565b84939092906001600160a01b031660015b838111156103d0575050505061039682612259565b925b8281106103b157604051806103ad8682611dd2565b0390f35b806103be6001928461228b565b516103c9828761228b565b5201610398565b808752600360205260408720600101546001600160a01b0316821480610463575b8061044a575b80610431575b610410575b61040b906121eb565b610381565b94610429818761042361040b948961228b565b526121eb565b959050610402565b50808752600360205260066040882001544211156103fd565b50808752600360205260ff6004604089200154166103f7565b508087526003602052826002604089200154146103f1565b503461034457604036600319011261034457604060a0918161049b611dbc565b916004358152600460205220600091600180861b0316825260205220600180831b038154169060018101549060ff600282015416600460038301549201549260405194855260208501521515604084015260608301526080820152f35b5034610344576020366003190112610344576001600160a01b0361051a611da6565b168152600560205260408120604051918260208354918281520192825260208220915b818110610560576103ad8561055481870382611e88565b60405191829182611dd2565b825484526020909301926001928301920161053d565b5034610344576060366003190112610344576024356004356044356105996122de565b6105a16122fb565b8184526003602052604084206105bd60ff600483015416611eaa565b6105cd6006820154421115611eeb565b546001600160a01b0316331461087857821561083f576105ee81151561211a565b600d546040516370a0823160e01b81523360048201526001600160a01b039091169190602081602481865afa80156107fe5785908790610809575b61063592501015611f29565b604051636eb1769f60e11b8152336004820152306024820152602081604481865afa80156107fe57859087906107c3575b61067292501015611f75565b6040516323b872dd60e01b815233600482015230602482015260448101859052916020908390606490829089905af19182156107b8576106c3926106bd918791610799575b5061200f565b426121fa565b6004604051916106d283611e6c565b338084526020808501878152600160408088018281524260608a0190815260808a019788528a8d52888652828d2060009788529095529420965187546001600160a01b039091166001600160a01b0319909116178755905190860155905160028501805460ff191691151560ff169190911790555160038401555191015533835260066020526107658160408520612207565b6040519182527fbdf1e76c2ba2a5c85b93bf78678a4a3b06d63b18422612dac8d7d5249ed4671460203393a3600160025580f35b6107b2915060203d602011610301576102f38183611e88565b386106b7565b6040513d87823e3d90fd5b50506020813d6020116107f6575b816107de60209383611e88565b810103126107f157846106729151610666565b600080fd5b3d91506107d1565b6040513d88823e3d90fd5b50506020813d602011610837575b8161082460209383611e88565b810103126107f157846106359151610629565b3d9150610817565b60405162461bcd60e51b815260206004820152601160248201527004f66666572206d757374206265203e203607c1b6044820152606490fd5b60405162461bcd60e51b815260206004820152601960248201527f43616e6e6f74206f66666572206f6e206f776e206173736574000000000000006044820152606490fd5b503461034457806003193601126103445760206040517ff94103142c1baabe9ac2b5d1487bf783de9e69cfeea9a72f5c9c94afd7877b8c8152f35b503461034457602036600319011261034457604060e091600435815260036020522060018060a01b038154169060018060a01b03600182015416906002810154600382015460ff6004840154169160066005850154940154946040519687526020870152604086015260608501521515608084015260a083015260c0820152f35b5034610344576040366003190112610344576109bf600435610999611dbc565b906109ba6109b582600052600060205260016040600020015490565b61236e565b612434565b5080f35b5034610344578060031936011261034457600d546040516001600160a01b039091168152602090f35b503461034457604036600319011261034457610a06611da6565b6001600160a01b0316815260066020526040812080546024359290831015610344576020610a348484611e0c565b90549060031b1c604051908152f35b503461034457604036600319011261034457604060a09181610a63611dbc565b918060808351610a7281611e6c565b828152826020820152828582015282606082015201526004358152600460205220600091600180861b0316825260205220604051610aaf81611e6c565b600180841b038254169182825260018101546020830190815260ff600283015416906040840191151582526080600460038501549460608701958652015494019384526040519485525160208501525115156040840152516060830152516080820152f35b503461034457602036600319011261034457600435610b3161231b565b6103e88111610b405760085580f35b60405162461bcd60e51b815260206004820152600c60248201526b08ccaca40e8dede40d0d2ced60a31b6044820152606490fd5b5034610344578060031936011261034457600c546040516001600160a01b039091168152602090f35b5034610344578060031936011261034457602090604051908152f35b503461034457604036600319011261034457610bd3611da6565b610bdb61231b565b60405163a9059cbb60e01b81523360048201526024803590820152906020908290604490829086906001600160a01b03165af1908115610c7b578291610c5c575b5015610c255780f35b60405162461bcd60e51b815260206004820152600f60248201526e151c985b9cd9995c8819985a5b1959608a1b6044820152606490fd5b610c75915060203d602011610301576102f38183611e88565b38610c1c565b6040513d84823e3d90fd5b5034610344576040366003190112610344576040610ca2611dbc565b91600435815280602052209060018060a01b0316600052602052602060ff604060002054166040519015158152f35b503461034457604036600319011261034457600435610cee611dbc565b90610cf76122de565b610cff6122fb565b8083526003602052604083208184526004602052604080852060009060018060a01b038616825260205220610d3e60018060a01b0383541633146120e1565b6002810190610d5060ff83541661229f565b6004810154421161108b57600183015460028401546040516331a9108f60e11b81526004810182905288946001600160a01b039093169390602081602481885afa80156107fe57610db391879161106c575b506001600160a01b03163314612178565b60405163020604bf60e21b815260048101839052602081602481885afa9081156107fe57869161103d575b506001600160a01b031630148015610fdb575b90610dfd6001926121b0565b0192835491610e1c612710610e1460085486611fc1565b048094611fea565b91803b15610fd757604051632142170760e11b81523360048201526001600160a01b038b166024820152604481019290925286908290606490829084905af19081156107fe578691610fbe575b5050600d5460405163a9059cbb60e01b81523360048201526024810192909252909460209186916044918391906001600160a01b03165af1908115610fb357610ebf602092610eff968b91610f96575b50612053565b600d54600b5460405163a9059cbb60e01b81526001600160a01b0391821660048201526024810193909352919586929091169082908b9082906044820190565b03925af18015610f8b577fea555ab99331ceac5051c58f17cc7b411b30241b0e28cb93a7d3a24c77a7a9a994610f416004926020968b91610f6e575b5061209f565b01805460ff199081169091558154169055546040519081526001600160a01b0390941693a3600160025580f35b610f859150873d8911610301576102f38183611e88565b38610f3b565b6040513d89823e3d90fd5b610fad9150843d8611610301576102f38183611e88565b38610eb9565b6040513d8a823e3d90fd5b81610fc891611e88565b610fd3578438610e69565b8480fd5b8680fd5b5060405163e985e9c560e01b815233600482015230602482015290602082604481885afa9182156107fe57600192610dfd91889161101e575b5091925050610df1565b611037915060203d602011610301576102f38183611e88565b38611014565b61105f915060203d602011611065575b6110578183611e88565b810190612159565b38610dde565b503d61104d565b611085915060203d602011611065576110578183611e88565b38610da2565b60405162461bcd60e51b815260206004820152600d60248201526c13d999995c88195e1c1a5c9959609a1b6044820152606490fd5b50346103445780600319360112610344576007546110dd81612259565b829160015b8181111561112b5750506110f582612259565b925b82811061110c57604051806103ad8682611dd2565b806111196001928461228b565b51611124828761228b565b52016110f7565b808552600360205260ff60046040872001541680611172575b611157575b611152906121eb565b6110e2565b9261116a8185610423611152948761228b565b939050611149565b5080855260036020526006604086200154421115611144565b5034610344576040366003190112610344576111a5611da6565b6001600160a01b0316815260056020526040812080546024359290831015610344576020610a348484611e0c565b50346103445780600319360112610344576111ec61231b565b6111f46122de565b600160ff19815416176001557f62e78cea01bee320cd4e420270b5ea74000d11b0c9f74754ebdbfc544b05a2586020604051338152a180f35b50346103445780600319360112610344576020600754604051908152f35b5034610344576020366003190112610344576001600160a01b0361126d611da6565b168152600660205260408120604051918260208354918281520192825260208220915b8181106112a7576103ad8561055481870382611e88565b8254845260209093019260019283019201611290565b5034610344576080366003190112610344576112d7611da6565b602435604435606435926112e96122de565b6112f16122fb565b600954821061158657600a5482116115505761130e84151561211a565b6040516331a9108f60e11b8152600481018490526001600160a01b03919091169390602081602481885afa80156107fe5761135a91879161106c57506001600160a01b03163314612178565b60405163020604bf60e21b815260048101849052602081602481885afa9081156107fe578691611531575b506001600160a01b0316301480156114be575b6113c89493929160406020976113b0611480946121b0565b6113bb6007546121eb565b97889384600755426121fa565b60068351916113d683611e3a565b3383528b83018a81528584018a8152606085018a81526001608087018181524260a0890190815260c089019687528b8a52600360208190528b8b2099518a546001600160a01b039182166001600160a01b0319918216178c559751948b018054959091169490971693909317909555925160028801559051908601555160048501805460ff191691151560ff16919091179055516005840155519101553381526005895220612207565b60405191825284820152827fe333e8a630b5207a9fdbc2d23b2528d3cc45cf85c35506efb781fd0087b6764e60403393a46001600255604051908152f35b5060405163e985e9c560e01b8152336004820152306024820152602081604481885afa9081156107fe57916040876113b0611480946113c89998979660209b91611514575b509450509750509192939450611398565b61152b91508b3d8d11610301576102f38183611e88565b38611503565b61154a915060203d602011611065576110578183611e88565b38611385565b60405162461bcd60e51b815260206004820152600e60248201526d0a0e4d2c6ca40e8dede40d0d2ced60931b6044820152606490fd5b60405162461bcd60e51b815260206004820152600d60248201526c507269636520746f6f206c6f7760981b6044820152606490fd5b5034610344578060031936011261034457602060ff600154166040519015158152f35b50346103445780600319360112610344576020600854604051908152f35b50346103445780600319360112610344576020600954604051908152f35b5034610344578060031936011261034457600b546040516001600160a01b039091168152602090f35b503461034457806003193601126103445761165c61231b565b60015460ff81161561169c5760ff19166001557f5db9ee0a495bf2e6ff9c91a7834c1ba4fdd244a5e8aa4e537bd38aeae4b073aa6020604051338152a180f35b638dfc202b60e01b8252600482fd5b50346103445780600319360112610344576020600a54604051908152f35b5034610344576040366003190112610344576024356004356116e961231b565b818110156116fa57600955600a5580f35b60405162461bcd60e51b815260206004820152600e60248201526d496e76616c6964206c696d69747360901b6044820152606490fd5b50346103445760403660031901126103445761174a611dbc565b336001600160a01b03821603611766576109bf90600435612434565b63334bd91960e11b8252600482fd5b50346103445760203660031901126103445760043580825260036020526004604083206117ac60018060a01b0382541633146120e1565b0180546117bb60ff8216611eaa565b60ff191690557f411aee90354c51b1b04cd563fcab2617142a9d50da19232d888547c8a1b7fd8a8280a280f35b5034610344576040366003190112610344576109bf600435611808611dbc565b906118246109b582600052600060205260016040600020015490565b6123a9565b503461034457602036600319011261034457611843611da6565b61184b61231b565b60018060a01b03166bffffffffffffffffffffffff60a01b600d541617600d5580f35b503461034457602036600319011261034457602061189c600435600052600060205260016040600020015490565b604051908152f35b5034610344576020366003190112610344576004356118c16122de565b6118c96122fb565b8082526003602052604082209060048201906118e860ff835416611eaa565b6118f86006840154421115611eeb565b82546001600160a01b03163314611c1757600d546040516370a0823160e01b81523360048201526001600160a01b03909116939092602084602481885afa9384156107fe578694611bdf575b506003820193611958855480921015611f29565b604051636eb1769f60e11b81523360048201523060248201526020816044818a5afa8015610fb35782908990611ba5575b61199592501015611f75565b8660206119e76127106119aa60085486611fc1565b04986119b68a86611fea565b6040516323b872dd60e01b815233600482015230602482015260448101969096529493849283919082906064820190565b03925af18015610fb357611a01918991610799575061200f565b6001830154835460028501546001600160a01b03918216928a9216803b15611ba157604051632142170760e11b81526001600160a01b0394909416600485015233602485015260448401919091528290606490829084905af18015610fb357611b88575b50600d54835460405163a9059cbb60e01b81526001600160a01b0391821660048201526024810193909352602091839116818a81604481015b03925af18015610f8b57611ab8918891611b6f5750612053565b600d54600b5460405163a9059cbb60e01b81526001600160a01b0391821660048201526024810188905291602091839160449183918c91165af18015610f8b57611b08918891611b56575061209f565b60ff19815416905560018060a01b0390541691549260405193845260208401527fae0a5043fad0418cf5fe7aecc5bc470022b72ed7985bc2e6b2cbfb922626ee5760403394a4600160025580f35b610f85915060203d602011610301576102f38183611e88565b610fad915060203d602011610301576102f38183611e88565b87611b99611a9e9399602093611e88565b979150611a65565b8280fd5b50506020813d602011611bd7575b81611bc060209383611e88565b81010312611bd357816119959151611989565b8780fd5b3d9150611bb3565b9093506020813d602011611c0f575b81611bfb60209383611e88565b81010312611c0b57519238611944565b8580fd5b3d9150611bee565b60405162461bcd60e51b815260206004820152601460248201527310d85b9b9bdd08189d5e481bdddb88185cdcd95d60621b6044820152606490fd5b50346103445760203660031901126103445760408160e09260c08351611c7881611e3a565b82815282602082015282858201528260608201528260808201528260a082015201526004358152600360205220604051611cb181611e3a565b60018060a01b038254169182825260018060a01b03600182015416602083019081526002820154604084019081526003830154906060850191825260ff6004850154169260808601931515845260c0600660058701549660a089019788520154960195865260405196875260018060a01b03905116602087015251604086015251606085015251151560808401525160a08301525160c0820152f35b905034611da2576020366003190112611da25760043563ffffffff60e01b8116809103611ba15760209250637965db0b60e01b8114908115611d91575b5015158152f35b6301ffc9a760e01b14905038611d8a565b5080fd5b600435906001600160a01b03821682036107f157565b602435906001600160a01b03821682036107f157565b602060408183019282815284518094520192019060005b818110611df65750505090565b8251845260209384019390920191600101611de9565b8054821015611e245760005260206000200190600090565b634e487b7160e01b600052603260045260246000fd5b60e0810190811067ffffffffffffffff821117611e5657604052565b634e487b7160e01b600052604160045260246000fd5b60a0810190811067ffffffffffffffff821117611e5657604052565b90601f8019910116810190811067ffffffffffffffff821117611e5657604052565b15611eb157565b60405162461bcd60e51b81526020600482015260126024820152714c697374696e67206e6f742061637469766560701b6044820152606490fd5b15611ef257565b60405162461bcd60e51b815260206004820152600f60248201526e131a5cdd1a5b99c8195e1c1a5c9959608a1b6044820152606490fd5b15611f3057565b60405162461bcd60e51b815260206004820152601960248201527f496e73756666696369656e7420545255535420746f6b656e73000000000000006044820152606490fd5b15611f7c57565b60405162461bcd60e51b815260206004820152601c60248201527f496e73756666696369656e7420545255535420616c6c6f77616e6365000000006044820152606490fd5b81810292918115918404141715611fd457565b634e487b7160e01b600052601160045260246000fd5b91908203918211611fd457565b908160209103126107f1575180151581036107f15790565b1561201657565b60405162461bcd60e51b815260206004820152601560248201527415149554d5081d1c985b9cd9995c8819985a5b1959605a1b6044820152606490fd5b1561205a57565b60405162461bcd60e51b815260206004820152601860248201527f5061796d656e7420746f2073656c6c6572206661696c656400000000000000006044820152606490fd5b156120a657565b60405162461bcd60e51b8152602060048201526013602482015272119959481d1c985b9cd9995c8819985a5b1959606a1b6044820152606490fd5b156120e857565b60405162461bcd60e51b815260206004820152600a6024820152692737ba1039b2b63632b960b11b6044820152606490fd5b1561212157565b60405162461bcd60e51b815260206004820152601060248201526f24b73b30b634b210323ab930ba34b7b760811b6044820152606490fd5b908160209103126107f157516001600160a01b03811681036107f15790565b1561217f57565b60405162461bcd60e51b81526020600482015260096024820152682737ba1037bbb732b960b91b6044820152606490fd5b156121b757565b60405162461bcd60e51b815260206004820152600c60248201526b139bdd08185c1c1c9bdd995960a21b6044820152606490fd5b6000198114611fd45760010190565b91908201809211611fd457565b805468010000000000000000811015611e565761222991600182018155611e0c565b819291549060031b91821b91600019901b1916179055565b67ffffffffffffffff8111611e565760051b60200190565b9061226382612241565b6122706040519182611e88565b8281528092612281601f1991612241565b0190602036910137565b8051821015611e245760209160051b010190565b156122a657565b60405162461bcd60e51b815260206004820152601060248201526f4f66666572206e6f742061637469766560801b6044820152606490fd5b60ff600154166122ea57565b63d93c066560e01b60005260046000fd5b600280541461230a5760028055565b633ee5aeb560e01b60005260046000fd5b3360009081527fad3228b676f7d3cd4284a5443f17f1962b36e491b30a40b2405849e597ba5fb5602052604090205460ff161561235457565b63e2517d3f60e01b60005233600452600060245260446000fd5b60008181526020818152604080832033845290915290205460ff16156123915750565b63e2517d3f60e01b6000523360045260245260446000fd5b6000818152602081815260408083206001600160a01b038616845290915290205460ff1661242d576000818152602081815260408083206001600160a01b0395909516808452949091528120805460ff19166001179055339291907f2f8788117e7eff1d82e926ec794901d17c78024a50270940304540a733656f0d9080a4600190565b5050600090565b6000818152602081815260408083206001600160a01b038616845290915290205460ff161561242d576000818152602081815260408083206001600160a01b0395909516808452949091528120805460ff19169055339291907ff6391f5c32d9c69d2a47ea670b442974b53935d1edc7fd64eb21e047a839171b9080a460019056fea26469706673582212201bb860a467c831a055b1b8db3d1fd76010cafc584ac98dd96f4de9af7659206664736f6c634300081c00332f8788117e7eff1d82e926ec794901d17c78024a50270940304540a733656f0d8c9316582f0a7d5089f81a074beb8d9c5f5a846953b1a406916a4a62930e9356ad3228b676f7d3cd4284a5443f17f1962b36e491b30a40b2405849e597ba5fb5",
  "linkReferences": {},
  "deployedLinkReferences": {}
}