{
  "_format": "hh-sol-artifact-1",
  "contractName": "VerificationRegistry",
  "sourceName": "contracts/VerificationRegistry.sol",
  "abi": [
    {
      "inputs": [],
      "stateMutability": "nonpayable",
      "type": "constructor"
    },
    {
      "inputs": [],
      "name": "AccessControlBadConfirmation",
      "type": "error"
    },
    {
      "inputs": [
        {
          "internalType": "address",
          "name": "account",
          "type": "address"
        },
        {
          "internalType": "bytes32",
          "name": "neededRole",
          "type": "bytes32"
        }
      ],
      "name": "AccessControlUnauthorizedAccount",
      "type": "error"
    },
    {
      "inputs": [],
      "name": "ReentrancyGuardReentrantCall",
      "type": "error"
    },
    {
      "anonymous": false,
      "inputs": [
        {
          "indexed": true,
          "internalType": "bytes32",
          "name": "role",
          "type": "bytes32"
        },
        {
          "indexed": true,
          "internalType": "bytes32",
          "name": "previousAdminRole",
          "type": "bytes32"
        },
        {
          "indexed": true,
          "internalType": "bytes32",
          "name": "newAdminRole",
          "type": "bytes32"
        }
      ],
      "name": "RoleAdminChanged",
      "type": "event"
    },
    {
      "anonymous": false,
      "inputs": [
        {
          "indexed": true,
          "internalType": "bytes32",
          "name": "role",
          "type": "bytes32"
        },
        {
          "indexed": true,
          "internalType": "address",
          "name": "account",
          "type": "address"
        },
        {
          "indexed": true,
          "internalType": "address",
          "name": "sender",
          "type": "address"
        }
      ],
      "name": "RoleGranted",
      "type": "event"
    },
    {
      "anonymous": false,
      "inputs": [
        {
          "indexed": true,
          "internalType": "bytes32",
          "name": "role",
          "type": "bytes32"
        },
        {
          "indexed": true,
          "internalType": "address",
          "name": "account",
          "type": "address"
        },
        {
          "indexed": true,
          "internalType": "address",
          "name": "sender",
          "type": "address"
        }
      ],
      "name": "RoleRevoked",
      "type": "event"
    },
    {
      "anonymous": false,
      "inputs": [
        {
          "indexed": true,
          "internalType": "bytes32",
          "name": "assetId",
          "type": "bytes32"
        },
        {
          "indexed": false,
          "internalType": "uint256",
          "name": "score",
          "type": "uint256"
        }
      ],
      "name": "VerificationApproved",
      "type": "event"
    },
    {
      "anonymous": false,
      "inputs": [
        {
          "indexed": true,
          "internalType": "bytes32",
          "name": "assetId",
          "type": "bytes32"
        },
        {
          "indexed": false,
          "internalType": "string",
          "name": "reason",
          "type": "string"
        }
      ],
      "name": "VerificationRevoked",
      "type": "event"
    },
    {
      "anonymous": false,
      "inputs": [
        {
          "indexed": true,
          "internalType": "bytes32",
          "name": "assetId",
          "type": "bytes32"
        },
        {
          "indexed": false,
          "internalType": "bytes32",
          "name": "assetType",
          "type": "bytes32"
        },
        {
          "indexed": false,
          "internalType": "uint256",
          "name": "score",
          "type": "uint256"
        },
        {
          "indexed": false,
          "internalType": "bytes32",
          "name": "evidenceRoot",
          "type": "bytes32"
        }
      ],
      "name": "VerificationSubmitted",
      "type": "event"
    },
    {
      "inputs": [],
      "name": "DEFAULT_ADMIN_ROLE",
      "outputs": [
        {
          "internalType": "bytes32",
          "name": "",
          "type": "bytes32"
        }
      ],
      "stateMutability": "view",
      "type": "function"
    },
    {
      "inputs": [],
      "name": "GATEWAY_ROLE",
      "outputs": [
        {
          "internalType": "bytes32",
          "name": "",
          "type": "bytes32"
        }
      ],
      "stateMutability": "view",
      "type": "function"
    },
    {
      "inputs": [
        {
          "internalType": "bytes32",
          "name": "",
          "type": "bytes32"
        },
        {
          "internalType": "address",
          "name": "",
          "type": "address"
        }
      ],
      "name": "attestorSigned",
      "outputs": [
        {
          "internalType": "bool",
          "name": "",
          "type": "bool"
        }
      ],
      "stateMutability": "view",
      "type": "function"
    },
    {
      "inputs": [],
      "name": "getAllVerifications",
      "outputs": [
        {
          "components": [
            {
              "internalType": "bytes32",
              "name": "assetId",
              "type": "bytes32"
            },
            {
              "internalType": "bytes32",
              "name": "assetType",
              "type": "bytes32"
            },
            {
              "internalType": "address",
              "name": "owner",
              "type": "address"
            },
            {
              "internalType": "uint256",
              "name": "score",
              "type": "uint256"
            },
            {
              "internalType": "bytes32",
              "name": "evidenceRoot",
              "type": "bytes32"
            },
            {
              "internalType": "enum IVerificationRegistry.VerificationStatus",
              "name": "status",
              "type": "uint8"
            },
            {
              "internalType": "uint256",
              "name": "createdAt",
              "type": "uint256"
            },
            {
              "internalType": "uint256",
              "name": "expiresAt",
              "type": "uint256"
            },
            {
              "internalType": "address[]",
              "name": "attestors",
              "type": "address[]"
            }
          ],
          "internalType": "struct IVerificationRegistry.VerificationRecord[]",
          "name": "",
          "type": "tuple[]"
        }
      ],
      "stateMutability": "view",
      "type": "function"
    },
    {
      "inputs": [
        {
          "internalType": "bytes32",
          "name": "role",
          "type": "bytes32"
        }
      ],
      "name": "getRoleAdmin",
      "outputs": [
        {
          "internalType": "bytes32",
          "name": "",
          "type": "bytes32"
        }
      ],
      "stateMutability": "view",
      "type": "function"
    },
    {
      "inputs": [],
      "name": "getVerificationCount",
      "outputs": [
        {
          "internalType": "uint256",
          "name": "",
          "type": "uint256"
        }
      ],
      "stateMutability": "view",
      "type": "function"
    },
    {
      "inputs": [
        {
          "internalType": "bytes32",
          "name": "assetId",
          "type": "bytes32"
        }
      ],
      "name": "getVerificationStatus",
      "outputs": [
        {
          "internalType": "bool",
          "name": "verified",
          "type": "bool"
        },
        {
          "internalType": "uint256",
          "name": "score",
          "type": "uint256"
        },
        {
          "internalType": "uint256",
          "name": "expiresAt",
          "type": "uint256"
        },
        {
          "internalType": "enum IVerificationRegistry.VerificationStatus",
          "name": "status",
          "type": "uint8"
        }
      ],
      "stateMutability": "view",
      "type": "function"
    },
    {
      "inputs": [
        {
          "internalType": "bytes32",
          "name": "role",
          "type": "bytes32"
        },
        {
          "internalType": "address",
          "name": "account",
          "type": "address"
        }
      ],
      "name": "grantRole",
      "outputs": [],
      "stateMutability": "nonpayable",
      "type": "function"
    },
    {
      "inputs": [
        {
          "internalType": "bytes32",
          "name": "assetId",
          "type": "bytes32"
        },
        {
          "internalType": "address",
          "name": "attestor",
          "type": "address"
        }
      ],
      "name": "hasAttestorSigned",
      "outputs": [
        {
          "internalType": "bool",
          "name": "",
          "type": "bool"
        }
      ],
      "stateMutability": "view",
      "type": "function"
    },
    {
      "inputs": [
        {
          "internalType": "bytes32",
          "name": "role",
          "type": "bytes32"
        },
        {
          "internalType": "address",
          "name": "account",
          "type": "address"
        }
      ],
      "name": "hasRole",
      "outputs": [
        {
          "internalType": "bool",
          "name": "",
          "type": "bool"
        }
      ],
      "stateMutability": "view",
      "type": "function"
    },
    {
      "inputs": [
        {
          "internalType": "bytes32",
          "name": "role",
          "type": "bytes32"
        },
        {
          "internalType": "address",
          "name": "callerConfirmation",
          "type": "address"
        }
      ],
      "name": "renounceRole",
      "outputs": [],
      "stateMutability": "nonpayable",
      "type": "function"
    },
    {
      "inputs": [
        {
          "internalType": "bytes32",
          "name": "assetId",
          "type": "bytes32"
        },
        {
          "internalType": "bool",
          "name": "approved",
          "type": "bool"
        }
      ],
      "name": "reviewVerification",
      "outputs": [],
      "stateMutability": "nonpayable",
      "type": "function"
    },
    {
      "inputs": [
        {
          "internalType": "bytes32",
          "name": "role",
          "type": "bytes32"
        },
        {
          "internalType": "address",
          "name": "account",
          "type": "address"
        }
      ],
      "name": "revokeRole",
      "outputs": [],
      "stateMutability": "nonpayable",
      "type": "function"
    },
    {
      "inputs": [
        {
          "internalType": "bytes32",
          "name": "assetId",
          "type": "bytes32"
        },
        {
          "internalType": "string",
          "name": "reason",
          "type": "string"
        }
      ],
      "name": "revokeVerification",
      "outputs": [],
      "stateMutability": "nonpayable",
      "type": "function"
    },
    {
      "inputs": [
        {
          "internalType": "bytes32",
          "name": "assetId",
          "type": "bytes32"
        },
        {
          "internalType": "bytes32",
          "name": "assetType",
          "type": "bytes32"
        },
        {
          "internalType": "address",
          "name": "owner",
          "type": "address"
        },
        {
          "internalType": "uint256",
          "name": "score",
          "type": "uint256"
        },
        {
          "internalType": "bytes32",
          "name": "evidenceRoot",
          "type": "bytes32"
        },
        {
          "internalType": "uint256",
          "name": "expiresAt",
          "type": "uint256"
        },
        {
          "internalType": "bytes[]",
          "name": "attestorSigs",
          "type": "bytes[]"
        },
        {
          "internalType": "address[]",
          "name": "signingAttestors",
          "type": "address[]"
        }
      ],
      "name": "submitVerification",
      "outputs": [],
      "stateMutability": "nonpayable",
      "type": "function"
    },
    {
      "inputs": [
        {
          "internalType": "bytes4",
          "name": "interfaceId",
          "type": "bytes4"
        }
      ],
      "name": "supportsInterface",
      "outputs": [
        {
          "internalType": "bool",
          "name": "",
          "type": "bool"
        }
      ],
      "stateMutability": "view",
      "type": "function"
    },
    {
      "inputs": [
        {
          "internalType": "bytes32",
          "name": "",
          "type": "bytes32"
        }
      ],
      "name": "verificationExists",
      "outputs": [
        {
          "internalType": "bool",
          "name": "",
          "type": "bool"
        }
      ],
      "stateMutability": "view",
      "type": "function"
    },
    {
      "inputs": [
        {
          "internalType": "uint256",
          "name": "",
          "type": "uint256"
        }
      ],
      "name": "verificationIds",
      "outputs": [
        {
          "internalType": "bytes32",
          "name": "",
          "type": "bytes32"
        }
      ],
      "stateMutability": "view",
      "type": "function"
    },
    {
      "inputs": [
        {
          "internalType": "bytes32",
          "name": "",
          "type": "bytes32"
        }
      ],
      "name": "verifications",
      "outputs": [
        {
          "internalType": "bytes32",
          "name": "assetId",
          "type": "bytes32"
        },
        {
          "internalType": "bytes32",
          "name": "assetType",
          "type": "bytes32"
        },
        {
          "internalType": "address",
          "name": "owner",
          "type": "address"
        },
        {
          "internalType": "uint256",
          "name": "score",
          "type": "uint256"
        },
        {
          "internalType": "bytes32",
          "name": "evidenceRoot",
          "type": "bytes32"
        },
        {
          "internalType": "enum IVerificationRegistry.VerificationStatus",
          "name": "status",
          "type": "uint8"
        },
        {
          "internalType": "uint256",
          "name": "createdAt",
          "type": "uint256"
        },
        {
          "internalType": "uint256",
          "name": "expiresAt",
          "type": "uint256"
        }
      ],
      "stateMutability": "view",
      "type": "function"
    }
  ],
  "bytecode": "0x608060405234610030576001805561001633610035565b50610020336100b1565b50604051611224908161014a8239f35b600080fd5b6001600160a01b03811660009081526000805160206113ae833981519152602052604090205460ff166100ab576001600160a01b031660008181526000805160206113ae83398151915260205260408120805460ff1916600117905533919060008051602061136e8339815191528180a4600190565b50600090565b6001600160a01b038116600090815260008051602061138e833981519152602052604090205460ff166100ab576001600160a01b0316600081815260008051602061138e83398151915260205260408120805460ff191660011790553391907fb90e9995c6170fff8ea03e9ad6919878e483770c237f1a6f330ceaa7112b344a9060008051602061136e8339815191529080a460019056fe608080604052600436101561001357600080fd5b60003560e01c90816301ffc9a714610e275750806306cfb49a14610df65780630e93c89f14610d1357806310c74e1614610c8757806312ba6ea0146100f05780631f05b37414610c69578063248a9ca314610c345780632f2ff15d14610bf457806336568abe14610bae5780635205c2c114610b765780635897138e146106d6578063608d3c10146105425780636346000b146104ff57806391d14854146104b2578063a217fddf14610496578063c50d6dd91461045b578063d547741f14610414578063e4c085e9146101425763f41b3116146100f057600080fd5b3461013d57604036600319011261013d57610109610e87565b600435600052600360205260406000209060018060a01b0316600052602052602060ff604060002054166040519015158152f35b600080fd5b3461013d57600036600319011261013d5760045461015f81611027565b9061016d6040519283610f1c565b808252601f1961017c82611027565b0160005b8181106103bd57505060005b81811061029e57826040518091602082016020835281518091526040830190602060408260051b8601019301916000905b8282106101cc57505050500390f35b919390929450603f198682030182528451602061014061010061012085019380518652838101518487015260018060a01b036040820151166040870152606081015160608701526080810151608087015261022f60a082015160a0880190610e7a565b60c081015160c087015260e081015160e08701520151936101206101008201528451809452019201906000905b80821061027c5750505060208060019296019201920185949391926101bd565b82516001600160a01b031684526020938401939092019160019091019061025c565b6102a781610e9d565b90549060031b1c60005260026020526040600020604051906102c882610eff565b805482526001810154602083015260028101546001600160a01b03166040830152600381015460608301526004810154608083015260058082015460ff1691908210156103a75760089160a0840152600681015460c0840152600781015460e0840152016040519081602082549182815201916000526020600020906000905b80821061038557505050906103638160019594930382610f1c565b610100820152610373828661103f565b5261037e818561103f565b500161018c565b82546001600160a01b0316845260209093019260019283019290910190610348565b634e487b7160e01b600052602160045260246000fd5b6020906040516103cc81610eff565b60008152600083820152600060408201526000606082015260006080820152600060a0820152600060c0820152600060e0820152606061010082015282828701015201610180565b3461013d57604036600319011261013d57610459600435610433610e87565b9061045461044f82600052600060205260016040600020015490565b6110a6565b61116c565b005b3461013d57600036600319011261013d5760206040517fb90e9995c6170fff8ea03e9ad6919878e483770c237f1a6f330ceaa7112b344a8152f35b3461013d57600036600319011261013d57602060405160008152f35b3461013d57604036600319011261013d576104cb610e87565b600435600052600060205260406000209060018060a01b0316600052602052602060ff604060002054166040519015158152f35b3461013d57602036600319011261013d576080610540610520600435610fa7565b916040949394519415158552602085015260408401526060830190610e7a565bf35b3461013d57604036600319011261013d5760243560043567ffffffffffffffff821161013d573660238301121561013d57816004013567ffffffffffffffff81116106c0576040519261059f601f8301601f191660200185610f1c565b818452366024838301011161013d578160009260246020930183870137840101526105c8611053565b80600052600260205260406000206105e281541515610f3e565b6005810160ff81541660058110156103a75760010361068c57805460ff191660041790556008015460005b8181106106845750506040516020815282519283602083015260005b84811061066e57837f0af25337197360ea7566cc383dcc5dbfccc7e5174cb0f9646ac12d4f91ddf29284604081896000838284010152601f80199101168101030190a2005b8060208092840101516040828601015201610629565b60010161060d565b60405162461bcd60e51b815260206004820152600c60248201526b139bdd081d995c9a599a595960a21b6044820152606490fd5b634e487b7160e01b600052604160045260246000fd5b3461013d5761010036600319011261013d576004356024356044356001600160a01b0381169081900361013d576064356084359160c43567ffffffffffffffff811161013d5761072a903690600401610ece565b905060e43567ffffffffffffffff811161013d5761074c903690600401610ece565b3360009081527f59c0980bfaec0307574430d6763959542abfd6e2a2838a35f6554be2d921c8a0602052604090205490929060ff1615610b3d57600260015414610b2c576002600155876000526002602052604060002054610ae757828103610aa257600111610a4c5760005b8281106109e3575086600052600260205260406000209287845586600185015560028401906bffffffffffffffffffffffff60a01b82541617905583600384015584600484015542600684015560a43560078401556008830167ffffffffffffffff83116106c057600160401b83116106c05780548382558084106109ba575b50819060005260206000209060005b84811061099f5750505086600052600560205260ff604060002054161561094d575b60005b82811061090757877f93ceb32841a28b5a843b75e76faf37a7c43416dcbaca8a7395ba29a18666ab41606089898960058a611b5883106108f65701600160ff19825416179055857f73a2e882ef8c8afd8a0cc32e2ba9e1ca80a8965d0e5528c58021539f536349f66020604051848152a25b60405192835260208301526040820152a260018055005b01805460ff191660021790556108df565b60019088600052600360205260408060002061092c610927848888610f83565b610f93565b90600091858060a01b03168252602052208260ff198254161790550161086d565b600454600160401b8110156106c05780600161096c9201600455610e9d565b81549060031b9089821b91600019901b19161790558660005260056020526040600020600160ff1982541617905561086a565b60019060206109ad84610f93565b9301928185015501610848565b8160005283602060002091820191015b8181106109d75750610839565b600081556001016109ca565b6001600160a01b036109f9610927838686610f83565b1615610a07576001016107b9565b60405162461bcd60e51b815260206004820152601860248201527f496e76616c6964206174746573746f72206164647265737300000000000000006044820152606490fd5b60405162461bcd60e51b815260206004820152602860248201527f4174206c65617374206f6e65206174746573746f72207369676e6174757265206044820152671c995c5d5a5c995960c21b6064820152608490fd5b60405162461bcd60e51b815260206004820152601860248201527f5369676e617475726520636f756e74206d69736d6174636800000000000000006044820152606490fd5b60405162461bcd60e51b815260206004820152601b60248201527f566572696669636174696f6e20616c72656164792065786973747300000000006044820152606490fd5b633ee5aeb560e01b60005260046000fd5b63e2517d3f60e01b600052336004527fb90e9995c6170fff8ea03e9ad6919878e483770c237f1a6f330ceaa7112b344a60245260446000fd5b3461013d57602036600319011261013d5760043560045481101561013d57610b9f602091610e9d565b90549060031b1c604051908152f35b3461013d57604036600319011261013d57610bc7610e87565b336001600160a01b03821603610be3576104599060043561116c565b63334bd91960e11b60005260046000fd5b3461013d57604036600319011261013d57610459600435610c13610e87565b90610c2f61044f82600052600060205260016040600020015490565b6110e1565b3461013d57602036600319011261013d576020610c61600435600052600060205260016040600020015490565b604051908152f35b3461013d57600036600319011261013d576020600454604051908152f35b3461013d57602036600319011261013d5760043560005260026020526101006040600020805490600181015490610d0760018060a01b03600283015416600383015460048401549060ff600586015416926007600687015496015496604051988952602089015260408801526060870152608086015260a0850190610e7a565b60c083015260e0820152f35b3461013d57604036600319011261013d57600435602435801515810361013d57610d3b611053565b816000526002602052604060002090610d5682541515610f3e565b600582019060ff82541660058110156103a757610dbc5715610daf57805460ff19166001179055600301546040519081527f73a2e882ef8c8afd8a0cc32e2ba9e1ca80a8965d0e5528c58021539f536349f690602090a2005b805460ff19166002179055005b60405162461bcd60e51b81526020600482015260126024820152714e6f742070656e64696e672072657669657760701b6044820152606490fd5b3461013d57602036600319011261013d576004356000526005602052602060ff604060002054166040519015158152f35b3461013d57602036600319011261013d576004359063ffffffff60e01b821680920361013d57602091637965db0b60e01b8114908115610e69575b5015158152f35b6301ffc9a760e01b14905083610e62565b9060058210156103a75752565b602435906001600160a01b038216820361013d57565b600454811015610eb857600460005260206000200190600090565b634e487b7160e01b600052603260045260246000fd5b9181601f8401121561013d5782359167ffffffffffffffff831161013d576020808501948460051b01011161013d57565b610120810190811067ffffffffffffffff8211176106c057604052565b90601f8019910116810190811067ffffffffffffffff8211176106c057604052565b15610f4557565b60405162461bcd60e51b815260206004820152601660248201527515995c9a599a58d85d1a5bdb881b9bdd08199bdd5b9960521b6044820152606490fd5b9190811015610eb85760051b0190565b356001600160a01b038116810361013d5790565b600052600260205260406000208054156110185760078101549081421180610ffe575b610fef5760ff6005820154169060058210156103a75760030154926001821493929190565b60030154916000929190600390565b5060ff60058201541660058110156103a757600114610fca565b50600090600090600090600090565b67ffffffffffffffff81116106c05760051b60200190565b8051821015610eb85760209160051b010190565b3360009081527fad3228b676f7d3cd4284a5443f17f1962b36e491b30a40b2405849e597ba5fb5602052604090205460ff161561108c57565b63e2517d3f60e01b60005233600452600060245260446000fd5b60008181526020818152604080832033845290915290205460ff16156110c95750565b63e2517d3f60e01b6000523360045260245260446000fd5b6000818152602081815260408083206001600160a01b038616845290915290205460ff16611165576000818152602081815260408083206001600160a01b0395909516808452949091528120805460ff19166001179055339291907f2f8788117e7eff1d82e926ec794901d17c78024a50270940304540a733656f0d9080a4600190565b5050600090565b6000818152602081815260408083206001600160a01b038616845290915290205460ff1615611165576000818152602081815260408083206001600160a01b0395909516808452949091528120805460ff19169055339291907ff6391f5c32d9c69d2a47ea670b442974b53935d1edc7fd64eb21e047a839171b9080a460019056fea2646970667358221220056f79d5c456fd07f89c63fba291230f03dffd57076eadc24e2ba1cb5ceee9cf64736f6c634300081c00332f8788117e7eff1d82e926ec794901d17c78024a50270940304540a733656f0d59c0980bfaec0307574430d6763959542abfd6e2a2838a35f6554be2d921c8a0ad3228b676f7d3cd4284a5443f17f1962b36e491b30a40b2405849e597ba5fb5",
  "linkReferences": {},
  "deployedLinkReferences": {}
}